{
  "_format": "hh-sol-artifact-1",
  "contractName": "MINKtoken",
  "sourceName": "contracts/MINKTOKEN/MINKToken.sol",
  "abi": [
    {
      "inputs": [
        {
          "internalType": "uint256",
          "name": "totalSupply",
          "type": "uint256"
        }
      ],
      "stateMutability": "nonpayable",
      "type": "constructor"
    },
    {
      "anonymous": false,
      "inputs": [
        {
          "indexed": true,
          "internalType": "address",
          "name": "owner",
          "type": "address"
        },
        {
          "indexed": true,
          "internalType": "address",
          "name": "spender",
          "type": "address"
        },
        {
          "indexed": false,
          "internalType": "uint256",
          "name": "value",
          "type": "uint256"
        }
      ],
      "name": "Approval",
      "type": "event"
    },
    {
      "anonymous": false,
      "inputs": [
        {
          "indexed": true,
          "internalType": "address",
          "name": "previousOwner",
          "type": "address"
        },
        {
          "indexed": true,
          "internalType": "address",
          "name": "newOwner",
          "type": "address"
        }
      ],
      "name": "OwnershipTransferred",
      "type": "event"
    },
    {
      "anonymous": false,
      "inputs": [
        {
          "indexed": true,
          "internalType": "string",
          "name": "Items",
          "type": "string"
        },
        {
          "indexed": false,
          "internalType": "address",
          "name": "from",
          "type": "address"
        },
        {
          "indexed": false,
          "internalType": "address",
          "name": "to",
          "type": "address"
        }
      ],
      "name": "PurchaseList",
      "type": "event"
    },
    {
      "anonymous": false,
      "inputs": [
        {
          "indexed": true,
          "internalType": "address",
          "name": "from",
          "type": "address"
        },
        {
          "indexed": true,
          "internalType": "address",
          "name": "to",
          "type": "address"
        },
        {
          "indexed": false,
          "internalType": "uint256",
          "name": "value",
          "type": "uint256"
        }
      ],
      "name": "Transfer",
      "type": "event"
    },
    {
      "inputs": [
        {
          "internalType": "address",
          "name": "owner",
          "type": "address"
        },
        {
          "internalType": "address",
          "name": "spender",
          "type": "address"
        }
      ],
      "name": "allowance",
      "outputs": [
        {
          "internalType": "uint256",
          "name": "",
          "type": "uint256"
        }
      ],
      "stateMutability": "view",
      "type": "function"
    },
    {
      "inputs": [
        {
          "internalType": "address",
          "name": "spender",
          "type": "address"
        },
        {
          "internalType": "uint256",
          "name": "amount",
          "type": "uint256"
        }
      ],
      "name": "approve",
      "outputs": [
        {
          "internalType": "bool",
          "name": "",
          "type": "bool"
        }
      ],
      "stateMutability": "nonpayable",
      "type": "function"
    },
    {
      "inputs": [
        {
          "internalType": "address",
          "name": "account",
          "type": "address"
        }
      ],
      "name": "balanceOf",
      "outputs": [
        {
          "internalType": "uint256",
          "name": "",
          "type": "uint256"
        }
      ],
      "stateMutability": "view",
      "type": "function"
    },
    {
      "inputs": [],
      "name": "decimals",
      "outputs": [
        {
          "internalType": "uint8",
          "name": "",
          "type": "uint8"
        }
      ],
      "stateMutability": "view",
      "type": "function"
    },
    {
      "inputs": [
        {
          "internalType": "address",
          "name": "spender",
          "type": "address"
        },
        {
          "internalType": "uint256",
          "name": "subtractedValue",
          "type": "uint256"
        }
      ],
      "name": "decreaseAllowance",
      "outputs": [
        {
          "internalType": "bool",
          "name": "",
          "type": "bool"
        }
      ],
      "stateMutability": "nonpayable",
      "type": "function"
    },
    {
      "inputs": [
        {
          "internalType": "address",
          "name": "spender",
          "type": "address"
        },
        {
          "internalType": "uint256",
          "name": "addedValue",
          "type": "uint256"
        }
      ],
      "name": "increaseAllowance",
      "outputs": [
        {
          "internalType": "bool",
          "name": "",
          "type": "bool"
        }
      ],
      "stateMutability": "nonpayable",
      "type": "function"
    },
    {
      "inputs": [],
      "name": "name",
      "outputs": [
        {
          "internalType": "string",
          "name": "",
          "type": "string"
        }
      ],
      "stateMutability": "view",
      "type": "function"
    },
    {
      "inputs": [],
      "name": "owner",
      "outputs": [
        {
          "internalType": "address",
          "name": "",
          "type": "address"
        }
      ],
      "stateMutability": "view",
      "type": "function"
    },
    {
      "inputs": [],
      "name": "renounceOwnership",
      "outputs": [],
      "stateMutability": "nonpayable",
      "type": "function"
    },
    {
      "inputs": [],
      "name": "symbol",
      "outputs": [
        {
          "internalType": "string",
          "name": "",
          "type": "string"
        }
      ],
      "stateMutability": "view",
      "type": "function"
    },
    {
      "inputs": [],
      "name": "totalSupply",
      "outputs": [
        {
          "internalType": "uint256",
          "name": "",
          "type": "uint256"
        }
      ],
      "stateMutability": "view",
      "type": "function"
    },
    {
      "inputs": [
        {
          "internalType": "address",
          "name": "to",
          "type": "address"
        },
        {
          "internalType": "uint256",
          "name": "amount",
          "type": "uint256"
        },
        {
          "internalType": "string",
          "name": "items",
          "type": "string"
        }
      ],
      "name": "transfer",
      "outputs": [
        {
          "internalType": "bool",
          "name": "",
          "type": "bool"
        }
      ],
      "stateMutability": "nonpayable",
      "type": "function"
    },
    {
      "inputs": [
        {
          "internalType": "address",
          "name": "from",
          "type": "address"
        },
        {
          "internalType": "address",
          "name": "to",
          "type": "address"
        },
        {
          "internalType": "uint256",
          "name": "amount",
          "type": "uint256"
        },
        {
          "internalType": "string",
          "name": "items",
          "type": "string"
        }
      ],
      "name": "transferFrom",
      "outputs": [
        {
          "internalType": "bool",
          "name": "",
          "type": "bool"
        }
      ],
      "stateMutability": "nonpayable",
      "type": "function"
    },
    {
      "inputs": [
        {
          "internalType": "address",
          "name": "newOwner",
          "type": "address"
        }
      ],
      "name": "transferOwnership",
      "outputs": [],
      "stateMutability": "nonpayable",
      "type": "function"
    }
  ],
  "bytecode": "0x60806040523480156200001157600080fd5b5060405162002108380380620021088339818101604052810190620000379190620003c0565b6040518060400160405280600481526020017f4d494e4b000000000000000000000000000000000000000000000000000000008152506040518060400160405280600481526020017f4d494e4b000000000000000000000000000000000000000000000000000000008152508160039081620000b4919062000662565b508060049081620000c6919062000662565b505050620000e9620000dd6200011160201b60201c565b6200011960201b60201c565b6200010a620000fd620001df60201b60201c565b826200020960201b60201c565b5062000864565b600033905090565b6000600560009054906101000a900473ffffffffffffffffffffffffffffffffffffffff16905081600560006101000a81548173ffffffffffffffffffffffffffffffffffffffff021916908373ffffffffffffffffffffffffffffffffffffffff1602179055508173ffffffffffffffffffffffffffffffffffffffff168173ffffffffffffffffffffffffffffffffffffffff167f8be0079c531659141344cd1fd0a4f28419497f9722a3daafe3b4186f6b6457e060405160405180910390a35050565b6000600560009054906101000a900473ffffffffffffffffffffffffffffffffffffffff16905090565b600073ffffffffffffffffffffffffffffffffffffffff168273ffffffffffffffffffffffffffffffffffffffff16036200027b576040517f08c379a00000000000000000000000000000000000000000000000000000000081526004016200027290620007aa565b60405180910390fd5b6200028f600083836200037660201b60201c565b8060026000828254620002a39190620007fb565b92505081905550806000808473ffffffffffffffffffffffffffffffffffffffff1673ffffffffffffffffffffffffffffffffffffffff168152602001908152602001600020600082825401925050819055508173ffffffffffffffffffffffffffffffffffffffff16600073ffffffffffffffffffffffffffffffffffffffff167fddf252ad1be2c89b69c2b068fc378daa952ba7f163c4a11628f55a4df523b3ef8360405162000356919062000847565b60405180910390a362000372600083836200037b60201b60201c565b5050565b505050565b505050565b600080fd5b6000819050919050565b6200039a8162000385565b8114620003a657600080fd5b50565b600081519050620003ba816200038f565b92915050565b600060208284031215620003d957620003d862000380565b5b6000620003e984828501620003a9565b91505092915050565b600081519050919050565b7f4e487b7100000000000000000000000000000000000000000000000000000000600052604160045260246000fd5b7f4e487b7100000000000000000000000000000000000000000000000000000000600052602260045260246000fd5b600060028204905060018216806200047457607f821691505b6020821081036200048a57620004896200042c565b5b50919050565b60008190508160005260206000209050919050565b60006020601f8301049050919050565b600082821b905092915050565b600060088302620004f47fffffffffffffffffffffffffffffffffffffffffffffffffffffffffffffffff82620004b5565b620005008683620004b5565b95508019841693508086168417925050509392505050565b6000819050919050565b6000620005436200053d620005378462000385565b62000518565b62000385565b9050919050565b6000819050919050565b6200055f8362000522565b620005776200056e826200054a565b848454620004c2565b825550505050565b600090565b6200058e6200057f565b6200059b81848462000554565b505050565b5b81811015620005c357620005b760008262000584565b600181019050620005a1565b5050565b601f8211156200061257620005dc8162000490565b620005e784620004a5565b81016020851015620005f7578190505b6200060f6200060685620004a5565b830182620005a0565b50505b505050565b600082821c905092915050565b6000620006376000198460080262000617565b1980831691505092915050565b600062000652838362000624565b9150826002028217905092915050565b6200066d82620003f2565b67ffffffffffffffff811115620006895762000688620003fd565b5b6200069582546200045b565b620006a2828285620005c7565b600060209050601f831160018114620006da5760008415620006c5578287015190505b620006d1858262000644565b86555062000741565b601f198416620006ea8662000490565b60005b828110156200071457848901518255600182019150602085019450602081019050620006ed565b8683101562000734578489015162000730601f89168262000624565b8355505b6001600288020188555050505b505050505050565b600082825260208201905092915050565b7f45524332303a206d696e7420746f20746865207a65726f206164647265737300600082015250565b600062000792601f8362000749565b91506200079f826200075a565b602082019050919050565b60006020820190508181036000830152620007c58162000783565b9050919050565b7f4e487b7100000000000000000000000000000000000000000000000000000000600052601160045260246000fd5b6000620008088262000385565b9150620008158362000385565b925082820190508082111562000830576200082f620007cc565b5b92915050565b620008418162000385565b82525050565b60006020820190506200085e600083018462000836565b92915050565b61189480620008746000396000f3fe608060405234801561001057600080fd5b50600436106100ea5760003560e01c806370a082311161008c57806395d89b411161006657806395d89b4114610261578063a457c2d71461027f578063dd62ed3e146102af578063f2fde38b146102df576100ea565b806370a0823114610209578063715018a6146102395780638da5cb5b14610243576100ea565b80631af716ba116100c85780631af716ba1461015b578063313ce5671461018b57806339509351146101a957806356b8c724146101d9576100ea565b806306fdde03146100ef578063095ea7b31461010d57806318160ddd1461013d575b600080fd5b6100f76102fb565b6040516101049190610dea565b60405180910390f35b61012760048036038101906101229190610eb4565b61038d565b6040516101349190610f0f565b60405180910390f35b6101456103b0565b6040516101529190610f39565b60405180910390f35b61017560048036038101906101709190611089565b6103ba565b6040516101829190610f0f565b60405180910390f35b6101936103eb565b6040516101a09190611128565b60405180910390f35b6101c360048036038101906101be9190610eb4565b6103f4565b6040516101d09190610f0f565b60405180910390f35b6101f360048036038101906101ee9190611143565b61042b565b6040516102009190610f0f565b60405180910390f35b610223600480360381019061021e91906111b2565b610450565b6040516102309190610f39565b60405180910390f35b610241610498565b005b61024b6104ac565b60405161025891906111ee565b60405180910390f35b6102696104d6565b6040516102769190610dea565b60405180910390f35b61029960048036038101906102949190610eb4565b610568565b6040516102a69190610f0f565b60405180910390f35b6102c960048036038101906102c49190611209565b6105df565b6040516102d69190610f39565b60405180910390f35b6102f960048036038101906102f491906111b2565b610666565b005b60606003805461030a90611278565b80601f016020809104026020016040519081016040528092919081815260200182805461033690611278565b80156103835780601f1061035857610100808354040283529160200191610383565b820191906000526020600020905b81548152906001019060200180831161036657829003601f168201915b5050505050905090565b6000806103986106e9565b90506103a58185856106f1565b600191505092915050565b6000600254905090565b6000806103c56106e9565b90506103d28682866108ba565b6103de86868686610946565b6001915050949350505050565b60006003905090565b6000806103ff6106e9565b905061042081858561041185896105df565b61041b91906112d8565b6106f1565b600191505092915050565b6000806104366106e9565b905061044481868686610946565b60019150509392505050565b60008060008373ffffffffffffffffffffffffffffffffffffffff1673ffffffffffffffffffffffffffffffffffffffff168152602001908152602001600020549050919050565b6104a0610c0c565b6104aa6000610c8a565b565b6000600560009054906101000a900473ffffffffffffffffffffffffffffffffffffffff16905090565b6060600480546104e590611278565b80601f016020809104026020016040519081016040528092919081815260200182805461051190611278565b801561055e5780601f106105335761010080835404028352916020019161055e565b820191906000526020600020905b81548152906001019060200180831161054157829003601f168201915b5050505050905090565b6000806105736106e9565b9050600061058182866105df565b9050838110156105c6576040517f08c379a00000000000000000000000000000000000000000000000000000000081526004016105bd9061137e565b60405180910390fd5b6105d382868684036106f1565b60019250505092915050565b6000600160008473ffffffffffffffffffffffffffffffffffffffff1673ffffffffffffffffffffffffffffffffffffffff16815260200190815260200160002060008373ffffffffffffffffffffffffffffffffffffffff1673ffffffffffffffffffffffffffffffffffffffff16815260200190815260200160002054905092915050565b61066e610c0c565b600073ffffffffffffffffffffffffffffffffffffffff168173ffffffffffffffffffffffffffffffffffffffff16036106dd576040517f08c379a00000000000000000000000000000000000000000000000000000000081526004016106d490611410565b60405180910390fd5b6106e681610c8a565b50565b600033905090565b600073ffffffffffffffffffffffffffffffffffffffff168373ffffffffffffffffffffffffffffffffffffffff1603610760576040517f08c379a0000000000000000000000000000000000000000000000000000000008152600401610757906114a2565b60405180910390fd5b600073ffffffffffffffffffffffffffffffffffffffff168273ffffffffffffffffffffffffffffffffffffffff16036107cf576040517f08c379a00000000000000000000000000000000000000000000000000000000081526004016107c690611534565b60405180910390fd5b80600160008573ffffffffffffffffffffffffffffffffffffffff1673ffffffffffffffffffffffffffffffffffffffff16815260200190815260200160002060008473ffffffffffffffffffffffffffffffffffffffff1673ffffffffffffffffffffffffffffffffffffffff168152602001908152602001600020819055508173ffffffffffffffffffffffffffffffffffffffff168373ffffffffffffffffffffffffffffffffffffffff167f8c5be1e5ebec7d5bd14f71427d1e84f3dd0314c0f7b2291e5b200ac8c7c3b925836040516108ad9190610f39565b60405180910390a3505050565b60006108c684846105df565b90507fffffffffffffffffffffffffffffffffffffffffffffffffffffffffffffffff81146109405781811015610932576040517f08c379a0000000000000000000000000000000000000000000000000000000008152600401610929906115a0565b60405180910390fd5b61093f84848484036106f1565b5b50505050565b600073ffffffffffffffffffffffffffffffffffffffff168473ffffffffffffffffffffffffffffffffffffffff16036109b5576040517f08c379a00000000000000000000000000000000000000000000000000000000081526004016109ac90611632565b60405180910390fd5b600073ffffffffffffffffffffffffffffffffffffffff168373ffffffffffffffffffffffffffffffffffffffff1603610a24576040517f08c379a0000000000000000000000000000000000000000000000000000000008152600401610a1b906116c4565b60405180910390fd5b610a2f848484610d50565b60008060008673ffffffffffffffffffffffffffffffffffffffff1673ffffffffffffffffffffffffffffffffffffffff16815260200190815260200160002054905082811015610ab5576040517f08c379a0000000000000000000000000000000000000000000000000000000008152600401610aac90611756565b60405180910390fd5b8281036000808773ffffffffffffffffffffffffffffffffffffffff1673ffffffffffffffffffffffffffffffffffffffff16815260200190815260200160002081905550826000808673ffffffffffffffffffffffffffffffffffffffff1673ffffffffffffffffffffffffffffffffffffffff168152602001908152602001600020600082825401925050819055508373ffffffffffffffffffffffffffffffffffffffff168573ffffffffffffffffffffffffffffffffffffffff167fddf252ad1be2c89b69c2b068fc378daa952ba7f163c4a11628f55a4df523b3ef85604051610ba39190610f39565b60405180910390a381604051610bb991906117b2565b60405180910390207fdecd6112d6b0a0700b83811714b9c82c8586f9140cbb52558a2ce181e6c459548686604051610bf29291906117c9565b60405180910390a2610c05858585610d55565b5050505050565b610c146106e9565b73ffffffffffffffffffffffffffffffffffffffff16610c326104ac565b73ffffffffffffffffffffffffffffffffffffffff1614610c88576040517f08c379a0000000000000000000000000000000000000000000000000000000008152600401610c7f9061183e565b60405180910390fd5b565b6000600560009054906101000a900473ffffffffffffffffffffffffffffffffffffffff16905081600560006101000a81548173ffffffffffffffffffffffffffffffffffffffff021916908373ffffffffffffffffffffffffffffffffffffffff1602179055508173ffffffffffffffffffffffffffffffffffffffff168173ffffffffffffffffffffffffffffffffffffffff167f8be0079c531659141344cd1fd0a4f28419497f9722a3daafe3b4186f6b6457e060405160405180910390a35050565b505050565b505050565b600081519050919050565b600082825260208201905092915050565b60005b83811015610d94578082015181840152602081019050610d79565b60008484015250505050565b6000601f19601f8301169050919050565b6000610dbc82610d5a565b610dc68185610d65565b9350610dd6818560208601610d76565b610ddf81610da0565b840191505092915050565b60006020820190508181036000830152610e048184610db1565b905092915050565b6000604051905090565b600080fd5b600080fd5b600073ffffffffffffffffffffffffffffffffffffffff82169050919050565b6000610e4b82610e20565b9050919050565b610e5b81610e40565b8114610e6657600080fd5b50565b600081359050610e7881610e52565b92915050565b6000819050919050565b610e9181610e7e565b8114610e9c57600080fd5b50565b600081359050610eae81610e88565b92915050565b60008060408385031215610ecb57610eca610e16565b5b6000610ed985828601610e69565b9250506020610eea85828601610e9f565b9150509250929050565b60008115159050919050565b610f0981610ef4565b82525050565b6000602082019050610f246000830184610f00565b92915050565b610f3381610e7e565b82525050565b6000602082019050610f4e6000830184610f2a565b92915050565b600080fd5b600080fd5b7f4e487b7100000000000000000000000000000000000000000000000000000000600052604160045260246000fd5b610f9682610da0565b810181811067ffffffffffffffff82111715610fb557610fb4610f5e565b5b80604052505050565b6000610fc8610e0c565b9050610fd48282610f8d565b919050565b600067ffffffffffffffff821115610ff457610ff3610f5e565b5b610ffd82610da0565b9050602081019050919050565b82818337600083830152505050565b600061102c61102784610fd9565b610fbe565b90508281526020810184848401111561104857611047610f59565b5b61105384828561100a565b509392505050565b600082601f8301126110705761106f610f54565b5b8135611080848260208601611019565b91505092915050565b600080600080608085870312156110a3576110a2610e16565b5b60006110b187828801610e69565b94505060206110c287828801610e69565b93505060406110d387828801610e9f565b925050606085013567ffffffffffffffff8111156110f4576110f3610e1b565b5b6111008782880161105b565b91505092959194509250565b600060ff82169050919050565b6111228161110c565b82525050565b600060208201905061113d6000830184611119565b92915050565b60008060006060848603121561115c5761115b610e16565b5b600061116a86828701610e69565b935050602061117b86828701610e9f565b925050604084013567ffffffffffffffff81111561119c5761119b610e1b565b5b6111a88682870161105b565b9150509250925092565b6000602082840312156111c8576111c7610e16565b5b60006111d684828501610e69565b91505092915050565b6111e881610e40565b82525050565b600060208201905061120360008301846111df565b92915050565b600080604083850312156112205761121f610e16565b5b600061122e85828601610e69565b925050602061123f85828601610e69565b9150509250929050565b7f4e487b7100000000000000000000000000000000000000000000000000000000600052602260045260246000fd5b6000600282049050600182168061129057607f821691505b6020821081036112a3576112a2611249565b5b50919050565b7f4e487b7100000000000000000000000000000000000000000000000000000000600052601160045260246000fd5b60006112e382610e7e565b91506112ee83610e7e565b9250828201905080821115611306576113056112a9565b5b92915050565b7f45524332303a2064656372656173656420616c6c6f77616e63652062656c6f7760008201527f207a65726f000000000000000000000000000000000000000000000000000000602082015250565b6000611368602583610d65565b91506113738261130c565b604082019050919050565b600060208201905081810360008301526113978161135b565b9050919050565b7f4f776e61626c653a206e6577206f776e657220697320746865207a65726f206160008201527f6464726573730000000000000000000000000000000000000000000000000000602082015250565b60006113fa602683610d65565b91506114058261139e565b604082019050919050565b60006020820190508181036000830152611429816113ed565b9050919050565b7f45524332303a20617070726f76652066726f6d20746865207a65726f2061646460008201527f7265737300000000000000000000000000000000000000000000000000000000602082015250565b600061148c602483610d65565b915061149782611430565b604082019050919050565b600060208201905081810360008301526114bb8161147f565b9050919050565b7f45524332303a20617070726f766520746f20746865207a65726f20616464726560008201527f7373000000000000000000000000000000000000000000000000000000000000602082015250565b600061151e602283610d65565b9150611529826114c2565b604082019050919050565b6000602082019050818103600083015261154d81611511565b9050919050565b7f45524332303a20696e73756666696369656e7420616c6c6f77616e6365000000600082015250565b600061158a601d83610d65565b915061159582611554565b602082019050919050565b600060208201905081810360008301526115b98161157d565b9050919050565b7f45524332303a207472616e736665722066726f6d20746865207a65726f20616460008201527f6472657373000000000000000000000000000000000000000000000000000000602082015250565b600061161c602583610d65565b9150611627826115c0565b604082019050919050565b6000602082019050818103600083015261164b8161160f565b9050919050565b7f45524332303a207472616e7366657220746f20746865207a65726f206164647260008201527f6573730000000000000000000000000000000000000000000000000000000000602082015250565b60006116ae602383610d65565b91506116b982611652565b604082019050919050565b600060208201905081810360008301526116dd816116a1565b9050919050565b7f45524332303a207472616e7366657220616d6f756e742065786365656473206260008201527f616c616e63650000000000000000000000000000000000000000000000000000602082015250565b6000611740602683610d65565b915061174b826116e4565b604082019050919050565b6000602082019050818103600083015261176f81611733565b9050919050565b600081905092915050565b600061178c82610d5a565b6117968185611776565b93506117a6818560208601610d76565b80840191505092915050565b60006117be8284611781565b915081905092915050565b60006040820190506117de60008301856111df565b6117eb60208301846111df565b9392505050565b7f4f776e61626c653a2063616c6c6572206973206e6f7420746865206f776e6572600082015250565b6000611828602083610d65565b9150611833826117f2565b602082019050919050565b600060208201905081810360008301526118578161181b565b905091905056fea26469706673582212204bbb2381f8e2b4da90330863a27723659963deeb07b8931fc433e5f80523f56c64736f6c63430008110033",
  "linkReferences": {},
  "deployedLinkReferences": {}
}