{
  "_format": "hh-sol-artifact-1",
  "contractName": "MINKtoken",
  "sourceName": "contracts/MINKTOKEN/MINKToken.sol",
  "abi": [
    {
      "inputs": [
        {
          "internalType": "uint256",
          "name": "totalSupply",
          "type": "uint256"
        }
      ],
      "stateMutability": "nonpayable",
      "type": "constructor"
    },
    {
      "anonymous": false,
      "inputs": [
        {
          "indexed": true,
          "internalType": "address",
          "name": "owner",
          "type": "address"
        },
        {
          "indexed": true,
          "internalType": "address",
          "name": "spender",
          "type": "address"
        },
        {
          "indexed": false,
          "internalType": "uint256",
          "name": "value",
          "type": "uint256"
        }
      ],
      "name": "Approval",
      "type": "event"
    },
    {
      "anonymous": false,
      "inputs": [
        {
          "indexed": true,
          "internalType": "address",
          "name": "from",
          "type": "address"
        },
        {
          "indexed": true,
          "internalType": "address",
          "name": "to",
          "type": "address"
        },
        {
          "indexed": false,
          "internalType": "uint256",
          "name": "value",
          "type": "uint256"
        }
      ],
      "name": "Transfer",
      "type": "event"
    },
    {
      "anonymous": false,
      "inputs": [
        {
          "indexed": false,
          "internalType": "string",
          "name": "list",
          "type": "string"
        },
        {
          "indexed": false,
          "internalType": "address",
          "name": "from",
          "type": "address"
        },
        {
          "indexed": false,
          "internalType": "address",
          "name": "to",
          "type": "address"
        }
      ],
      "name": "shoppingList",
      "type": "event"
    },
    {
      "inputs": [
        {
          "internalType": "string",
          "name": "Item",
          "type": "string"
        }
      ],
      "name": "addshoppinglistItems",
      "outputs": [],
      "stateMutability": "nonpayable",
      "type": "function"
    },
    {
      "inputs": [
        {
          "internalType": "address",
          "name": "owner",
          "type": "address"
        },
        {
          "internalType": "address",
          "name": "spender",
          "type": "address"
        }
      ],
      "name": "allowance",
      "outputs": [
        {
          "internalType": "uint256",
          "name": "",
          "type": "uint256"
        }
      ],
      "stateMutability": "view",
      "type": "function"
    },
    {
      "inputs": [
        {
          "internalType": "address",
          "name": "spender",
          "type": "address"
        },
        {
          "internalType": "uint256",
          "name": "amount",
          "type": "uint256"
        }
      ],
      "name": "approve",
      "outputs": [
        {
          "internalType": "bool",
          "name": "",
          "type": "bool"
        }
      ],
      "stateMutability": "nonpayable",
      "type": "function"
    },
    {
      "inputs": [
        {
          "internalType": "address",
          "name": "account",
          "type": "address"
        }
      ],
      "name": "balanceOf",
      "outputs": [
        {
          "internalType": "uint256",
          "name": "",
          "type": "uint256"
        }
      ],
      "stateMutability": "view",
      "type": "function"
    },
    {
      "inputs": [],
      "name": "decimals",
      "outputs": [
        {
          "internalType": "uint8",
          "name": "",
          "type": "uint8"
        }
      ],
      "stateMutability": "view",
      "type": "function"
    },
    {
      "inputs": [
        {
          "internalType": "address",
          "name": "spender",
          "type": "address"
        },
        {
          "internalType": "uint256",
          "name": "subtractedValue",
          "type": "uint256"
        }
      ],
      "name": "decreaseAllowance",
      "outputs": [
        {
          "internalType": "bool",
          "name": "",
          "type": "bool"
        }
      ],
      "stateMutability": "nonpayable",
      "type": "function"
    },
    {
      "inputs": [
        {
          "internalType": "address",
          "name": "spender",
          "type": "address"
        },
        {
          "internalType": "uint256",
          "name": "addedValue",
          "type": "uint256"
        }
      ],
      "name": "increaseAllowance",
      "outputs": [
        {
          "internalType": "bool",
          "name": "",
          "type": "bool"
        }
      ],
      "stateMutability": "nonpayable",
      "type": "function"
    },
    {
      "inputs": [],
      "name": "name",
      "outputs": [
        {
          "internalType": "string",
          "name": "",
          "type": "string"
        }
      ],
      "stateMutability": "view",
      "type": "function"
    },
    {
      "inputs": [],
      "name": "symbol",
      "outputs": [
        {
          "internalType": "string",
          "name": "",
          "type": "string"
        }
      ],
      "stateMutability": "view",
      "type": "function"
    },
    {
      "inputs": [],
      "name": "totalSupply",
      "outputs": [
        {
          "internalType": "uint256",
          "name": "",
          "type": "uint256"
        }
      ],
      "stateMutability": "view",
      "type": "function"
    },
    {
      "inputs": [
        {
          "internalType": "address",
          "name": "to",
          "type": "address"
        },
        {
          "internalType": "uint256",
          "name": "amount",
          "type": "uint256"
        }
      ],
      "name": "transfer",
      "outputs": [
        {
          "internalType": "bool",
          "name": "",
          "type": "bool"
        }
      ],
      "stateMutability": "nonpayable",
      "type": "function"
    },
    {
      "inputs": [
        {
          "internalType": "address",
          "name": "from",
          "type": "address"
        },
        {
          "internalType": "address",
          "name": "to",
          "type": "address"
        },
        {
          "internalType": "uint256",
          "name": "amount",
          "type": "uint256"
        }
      ],
      "name": "transferFrom",
      "outputs": [
        {
          "internalType": "bool",
          "name": "",
          "type": "bool"
        }
      ],
      "stateMutability": "nonpayable",
      "type": "function"
    }
  ],
  "bytecode": "0x60806040523480156200001157600080fd5b5060405162001c4038038062001c408339818101604052810190620000379190620002fc565b6040518060400160405280600481526020017f4d494e4b000000000000000000000000000000000000000000000000000000008152506040518060400160405280600481526020017f4d494e4b000000000000000000000000000000000000000000000000000000008152508160039081620000b491906200059e565b508060049081620000c691906200059e565b50505033600560006101000a81548173ffffffffffffffffffffffffffffffffffffffff021916908373ffffffffffffffffffffffffffffffffffffffff1602179055506200013e600560009054906101000a900473ffffffffffffffffffffffffffffffffffffffff16826200014560201b60201c565b50620007a0565b600073ffffffffffffffffffffffffffffffffffffffff168273ffffffffffffffffffffffffffffffffffffffff1603620001b7576040517f08c379a0000000000000000000000000000000000000000000000000000000008152600401620001ae90620006e6565b60405180910390fd5b620001cb60008383620002b260201b60201c565b8060026000828254620001df919062000737565b92505081905550806000808473ffffffffffffffffffffffffffffffffffffffff1673ffffffffffffffffffffffffffffffffffffffff168152602001908152602001600020600082825401925050819055508173ffffffffffffffffffffffffffffffffffffffff16600073ffffffffffffffffffffffffffffffffffffffff167fddf252ad1be2c89b69c2b068fc378daa952ba7f163c4a11628f55a4df523b3ef8360405162000292919062000783565b60405180910390a3620002ae60008383620002b760201b60201c565b5050565b505050565b505050565b600080fd5b6000819050919050565b620002d681620002c1565b8114620002e257600080fd5b50565b600081519050620002f681620002cb565b92915050565b600060208284031215620003155762000314620002bc565b5b60006200032584828501620002e5565b91505092915050565b600081519050919050565b7f4e487b7100000000000000000000000000000000000000000000000000000000600052604160045260246000fd5b7f4e487b7100000000000000000000000000000000000000000000000000000000600052602260045260246000fd5b60006002820490506001821680620003b057607f821691505b602082108103620003c657620003c562000368565b5b50919050565b60008190508160005260206000209050919050565b60006020601f8301049050919050565b600082821b905092915050565b600060088302620004307fffffffffffffffffffffffffffffffffffffffffffffffffffffffffffffffff82620003f1565b6200043c8683620003f1565b95508019841693508086168417925050509392505050565b6000819050919050565b60006200047f620004796200047384620002c1565b62000454565b620002c1565b9050919050565b6000819050919050565b6200049b836200045e565b620004b3620004aa8262000486565b848454620003fe565b825550505050565b600090565b620004ca620004bb565b620004d781848462000490565b505050565b5b81811015620004ff57620004f3600082620004c0565b600181019050620004dd565b5050565b601f8211156200054e576200051881620003cc565b6200052384620003e1565b8101602085101562000533578190505b6200054b6200054285620003e1565b830182620004dc565b50505b505050565b600082821c905092915050565b6000620005736000198460080262000553565b1980831691505092915050565b60006200058e838362000560565b9150826002028217905092915050565b620005a9826200032e565b67ffffffffffffffff811115620005c557620005c462000339565b5b620005d1825462000397565b620005de82828562000503565b600060209050601f83116001811462000616576000841562000601578287015190505b6200060d858262000580565b8655506200067d565b601f1984166200062686620003cc565b60005b82811015620006505784890151825560018201915060208501945060208101905062000629565b868310156200067057848901516200066c601f89168262000560565b8355505b6001600288020188555050505b505050505050565b600082825260208201905092915050565b7f45524332303a206d696e7420746f20746865207a65726f206164647265737300600082015250565b6000620006ce601f8362000685565b9150620006db8262000696565b602082019050919050565b600060208201905081810360008301526200070181620006bf565b9050919050565b7f4e487b7100000000000000000000000000000000000000000000000000000000600052601160045260246000fd5b60006200074482620002c1565b91506200075183620002c1565b92508282019050808211156200076c576200076b62000708565b5b92915050565b6200077d81620002c1565b82525050565b60006020820190506200079a600083018462000772565b92915050565b61149080620007b06000396000f3fe608060405234801561001057600080fd5b50600436106100b45760003560e01c806370a082311161007157806370a08231146101a357806395d89b41146101d3578063a457c2d7146101f1578063a9059cbb14610221578063dd62ed3e14610251578063ed045e4d14610281576100b4565b806306fdde03146100b9578063095ea7b3146100d757806318160ddd1461010757806323b872dd14610125578063313ce567146101555780633950935114610173575b600080fd5b6100c161029d565b6040516100ce9190610b93565b60405180910390f35b6100f160048036038101906100ec9190610c5d565b61032f565b6040516100fe9190610cb8565b60405180910390f35b61010f610352565b60405161011c9190610ce2565b60405180910390f35b61013f600480360381019061013a9190610cfd565b61035c565b60405161014c9190610cb8565b60405180910390f35b61015d61038b565b60405161016a9190610d6c565b60405180910390f35b61018d60048036038101906101889190610c5d565b610394565b60405161019a9190610cb8565b60405180910390f35b6101bd60048036038101906101b89190610d87565b6103cb565b6040516101ca9190610ce2565b60405180910390f35b6101db610413565b6040516101e89190610b93565b60405180910390f35b61020b60048036038101906102069190610c5d565b6104a5565b6040516102189190610cb8565b60405180910390f35b61023b60048036038101906102369190610c5d565b61051c565b6040516102489190610cb8565b60405180910390f35b61026b60048036038101906102669190610db4565b61053f565b6040516102789190610ce2565b60405180910390f35b61029b60048036038101906102969190610f29565b6105c6565b005b6060600380546102ac90610fa1565b80601f01602080910402602001604051908101604052809291908181526020018280546102d890610fa1565b80156103255780601f106102fa57610100808354040283529160200191610325565b820191906000526020600020905b81548152906001019060200180831161030857829003601f168201915b5050505050905090565b60008061033a610626565b905061034781858561062e565b600191505092915050565b6000600254905090565b600080610367610626565b90506103748582856107f7565b61037f858585610883565b60019150509392505050565b60006003905090565b60008061039f610626565b90506103c08185856103b1858961053f565b6103bb9190611001565b61062e565b600191505092915050565b60008060008373ffffffffffffffffffffffffffffffffffffffff1673ffffffffffffffffffffffffffffffffffffffff168152602001908152602001600020549050919050565b60606004805461042290610fa1565b80601f016020809104026020016040519081016040528092919081815260200182805461044e90610fa1565b801561049b5780601f106104705761010080835404028352916020019161049b565b820191906000526020600020905b81548152906001019060200180831161047e57829003601f168201915b5050505050905090565b6000806104b0610626565b905060006104be828661053f565b905083811015610503576040517f08c379a00000000000000000000000000000000000000000000000000000000081526004016104fa906110a7565b60405180910390fd5b610510828686840361062e565b60019250505092915050565b600080610527610626565b9050610534818585610883565b600191505092915050565b6000600160008473ffffffffffffffffffffffffffffffffffffffff1673ffffffffffffffffffffffffffffffffffffffff16815260200190815260200160002060008373ffffffffffffffffffffffffffffffffffffffff1673ffffffffffffffffffffffffffffffffffffffff16815260200190815260200160002054905092915050565b7f8a2e47a31a45e415fd4726d70672588bda671656ddf22c9923350ea3711032ad8133600560009054906101000a900473ffffffffffffffffffffffffffffffffffffffff1660405161061b939291906110d6565b60405180910390a150565b600033905090565b600073ffffffffffffffffffffffffffffffffffffffff168373ffffffffffffffffffffffffffffffffffffffff160361069d576040517f08c379a000000000000000000000000000000000000000000000000000000000815260040161069490611186565b60405180910390fd5b600073ffffffffffffffffffffffffffffffffffffffff168273ffffffffffffffffffffffffffffffffffffffff160361070c576040517f08c379a000000000000000000000000000000000000000000000000000000000815260040161070390611218565b60405180910390fd5b80600160008573ffffffffffffffffffffffffffffffffffffffff1673ffffffffffffffffffffffffffffffffffffffff16815260200190815260200160002060008473ffffffffffffffffffffffffffffffffffffffff1673ffffffffffffffffffffffffffffffffffffffff168152602001908152602001600020819055508173ffffffffffffffffffffffffffffffffffffffff168373ffffffffffffffffffffffffffffffffffffffff167f8c5be1e5ebec7d5bd14f71427d1e84f3dd0314c0f7b2291e5b200ac8c7c3b925836040516107ea9190610ce2565b60405180910390a3505050565b6000610803848461053f565b90507fffffffffffffffffffffffffffffffffffffffffffffffffffffffffffffffff811461087d578181101561086f576040517f08c379a000000000000000000000000000000000000000000000000000000000815260040161086690611284565b60405180910390fd5b61087c848484840361062e565b5b50505050565b600073ffffffffffffffffffffffffffffffffffffffff168373ffffffffffffffffffffffffffffffffffffffff16036108f2576040517f08c379a00000000000000000000000000000000000000000000000000000000081526004016108e990611316565b60405180910390fd5b600073ffffffffffffffffffffffffffffffffffffffff168273ffffffffffffffffffffffffffffffffffffffff1603610961576040517f08c379a0000000000000000000000000000000000000000000000000000000008152600401610958906113a8565b60405180910390fd5b61096c838383610af9565b60008060008573ffffffffffffffffffffffffffffffffffffffff1673ffffffffffffffffffffffffffffffffffffffff168152602001908152602001600020549050818110156109f2576040517f08c379a00000000000000000000000000000000000000000000000000000000081526004016109e99061143a565b60405180910390fd5b8181036000808673ffffffffffffffffffffffffffffffffffffffff1673ffffffffffffffffffffffffffffffffffffffff16815260200190815260200160002081905550816000808573ffffffffffffffffffffffffffffffffffffffff1673ffffffffffffffffffffffffffffffffffffffff168152602001908152602001600020600082825401925050819055508273ffffffffffffffffffffffffffffffffffffffff168473ffffffffffffffffffffffffffffffffffffffff167fddf252ad1be2c89b69c2b068fc378daa952ba7f163c4a11628f55a4df523b3ef84604051610ae09190610ce2565b60405180910390a3610af3848484610afe565b50505050565b505050565b505050565b600081519050919050565b600082825260208201905092915050565b60005b83811015610b3d578082015181840152602081019050610b22565b60008484015250505050565b6000601f19601f8301169050919050565b6000610b6582610b03565b610b6f8185610b0e565b9350610b7f818560208601610b1f565b610b8881610b49565b840191505092915050565b60006020820190508181036000830152610bad8184610b5a565b905092915050565b6000604051905090565b600080fd5b600080fd5b600073ffffffffffffffffffffffffffffffffffffffff82169050919050565b6000610bf482610bc9565b9050919050565b610c0481610be9565b8114610c0f57600080fd5b50565b600081359050610c2181610bfb565b92915050565b6000819050919050565b610c3a81610c27565b8114610c4557600080fd5b50565b600081359050610c5781610c31565b92915050565b60008060408385031215610c7457610c73610bbf565b5b6000610c8285828601610c12565b9250506020610c9385828601610c48565b9150509250929050565b60008115159050919050565b610cb281610c9d565b82525050565b6000602082019050610ccd6000830184610ca9565b92915050565b610cdc81610c27565b82525050565b6000602082019050610cf76000830184610cd3565b92915050565b600080600060608486031215610d1657610d15610bbf565b5b6000610d2486828701610c12565b9350506020610d3586828701610c12565b9250506040610d4686828701610c48565b9150509250925092565b600060ff82169050919050565b610d6681610d50565b82525050565b6000602082019050610d816000830184610d5d565b92915050565b600060208284031215610d9d57610d9c610bbf565b5b6000610dab84828501610c12565b91505092915050565b60008060408385031215610dcb57610dca610bbf565b5b6000610dd985828601610c12565b9250506020610dea85828601610c12565b9150509250929050565b600080fd5b600080fd5b7f4e487b7100000000000000000000000000000000000000000000000000000000600052604160045260246000fd5b610e3682610b49565b810181811067ffffffffffffffff82111715610e5557610e54610dfe565b5b80604052505050565b6000610e68610bb5565b9050610e748282610e2d565b919050565b600067ffffffffffffffff821115610e9457610e93610dfe565b5b610e9d82610b49565b9050602081019050919050565b82818337600083830152505050565b6000610ecc610ec784610e79565b610e5e565b905082815260208101848484011115610ee857610ee7610df9565b5b610ef3848285610eaa565b509392505050565b600082601f830112610f1057610f0f610df4565b5b8135610f20848260208601610eb9565b91505092915050565b600060208284031215610f3f57610f3e610bbf565b5b600082013567ffffffffffffffff811115610f5d57610f5c610bc4565b5b610f6984828501610efb565b91505092915050565b7f4e487b7100000000000000000000000000000000000000000000000000000000600052602260045260246000fd5b60006002820490506001821680610fb957607f821691505b602082108103610fcc57610fcb610f72565b5b50919050565b7f4e487b7100000000000000000000000000000000000000000000000000000000600052601160045260246000fd5b600061100c82610c27565b915061101783610c27565b925082820190508082111561102f5761102e610fd2565b5b92915050565b7f45524332303a2064656372656173656420616c6c6f77616e63652062656c6f7760008201527f207a65726f000000000000000000000000000000000000000000000000000000602082015250565b6000611091602583610b0e565b915061109c82611035565b604082019050919050565b600060208201905081810360008301526110c081611084565b9050919050565b6110d081610be9565b82525050565b600060608201905081810360008301526110f08186610b5a565b90506110ff60208301856110c7565b61110c60408301846110c7565b949350505050565b7f45524332303a20617070726f76652066726f6d20746865207a65726f2061646460008201527f7265737300000000000000000000000000000000000000000000000000000000602082015250565b6000611170602483610b0e565b915061117b82611114565b604082019050919050565b6000602082019050818103600083015261119f81611163565b9050919050565b7f45524332303a20617070726f766520746f20746865207a65726f20616464726560008201527f7373000000000000000000000000000000000000000000000000000000000000602082015250565b6000611202602283610b0e565b915061120d826111a6565b604082019050919050565b60006020820190508181036000830152611231816111f5565b9050919050565b7f45524332303a20696e73756666696369656e7420616c6c6f77616e6365000000600082015250565b600061126e601d83610b0e565b915061127982611238565b602082019050919050565b6000602082019050818103600083015261129d81611261565b9050919050565b7f45524332303a207472616e736665722066726f6d20746865207a65726f20616460008201527f6472657373000000000000000000000000000000000000000000000000000000602082015250565b6000611300602583610b0e565b915061130b826112a4565b604082019050919050565b6000602082019050818103600083015261132f816112f3565b9050919050565b7f45524332303a207472616e7366657220746f20746865207a65726f206164647260008201527f6573730000000000000000000000000000000000000000000000000000000000602082015250565b6000611392602383610b0e565b915061139d82611336565b604082019050919050565b600060208201905081810360008301526113c181611385565b9050919050565b7f45524332303a207472616e7366657220616d6f756e742065786365656473206260008201527f616c616e63650000000000000000000000000000000000000000000000000000602082015250565b6000611424602683610b0e565b915061142f826113c8565b604082019050919050565b6000602082019050818103600083015261145381611417565b905091905056fea264697066735822122025ae05b115b7c573d49d680a603f9267c5cefe2586d32f547b8b01589106521864736f6c63430008110033",
  "linkReferences": {},
  "deployedLinkReferences": {}
}