{
  "_format": "hh-sol-artifact-1",
  "contractName": "MINKtoken",
  "sourceName": "contracts/MINKTOKEN/MINKToken.sol",
  "abi": [
    {
      "inputs": [
        {
          "internalType": "uint256",
          "name": "totalSupply",
          "type": "uint256"
        }
      ],
      "stateMutability": "nonpayable",
      "type": "constructor"
    },
    {
      "anonymous": false,
      "inputs": [
        {
          "indexed": true,
          "internalType": "address",
          "name": "owner",
          "type": "address"
        },
        {
          "indexed": true,
          "internalType": "address",
          "name": "spender",
          "type": "address"
        },
        {
          "indexed": false,
          "internalType": "uint256",
          "name": "value",
          "type": "uint256"
        }
      ],
      "name": "Approval",
      "type": "event"
    },
    {
      "anonymous": false,
      "inputs": [
        {
          "indexed": true,
          "internalType": "address",
          "name": "previousOwner",
          "type": "address"
        },
        {
          "indexed": true,
          "internalType": "address",
          "name": "newOwner",
          "type": "address"
        }
      ],
      "name": "OwnershipTransferred",
      "type": "event"
    },
    {
      "anonymous": false,
      "inputs": [
        {
          "indexed": true,
          "internalType": "address",
          "name": "from",
          "type": "address"
        },
        {
          "indexed": true,
          "internalType": "address",
          "name": "to",
          "type": "address"
        },
        {
          "indexed": false,
          "internalType": "uint256",
          "name": "value",
          "type": "uint256"
        }
      ],
      "name": "Transfer",
      "type": "event"
    },
    {
      "anonymous": false,
      "inputs": [
        {
          "indexed": true,
          "internalType": "string",
          "name": "purchases",
          "type": "string"
        },
        {
          "indexed": true,
          "internalType": "address",
          "name": "from",
          "type": "address"
        },
        {
          "indexed": true,
          "internalType": "address",
          "name": "to",
          "type": "address"
        },
        {
          "indexed": false,
          "internalType": "bool",
          "name": "purchaseStatus",
          "type": "bool"
        }
      ],
      "name": "purchaseDetails",
      "type": "event"
    },
    {
      "inputs": [
        {
          "internalType": "address",
          "name": "owner",
          "type": "address"
        },
        {
          "internalType": "address",
          "name": "spender",
          "type": "address"
        }
      ],
      "name": "allowance",
      "outputs": [
        {
          "internalType": "uint256",
          "name": "",
          "type": "uint256"
        }
      ],
      "stateMutability": "view",
      "type": "function"
    },
    {
      "inputs": [
        {
          "internalType": "address",
          "name": "spender",
          "type": "address"
        },
        {
          "internalType": "uint256",
          "name": "amount",
          "type": "uint256"
        }
      ],
      "name": "approve",
      "outputs": [
        {
          "internalType": "bool",
          "name": "",
          "type": "bool"
        }
      ],
      "stateMutability": "nonpayable",
      "type": "function"
    },
    {
      "inputs": [
        {
          "internalType": "address",
          "name": "account",
          "type": "address"
        }
      ],
      "name": "balanceOf",
      "outputs": [
        {
          "internalType": "uint256",
          "name": "",
          "type": "uint256"
        }
      ],
      "stateMutability": "view",
      "type": "function"
    },
    {
      "inputs": [],
      "name": "decimals",
      "outputs": [
        {
          "internalType": "uint8",
          "name": "",
          "type": "uint8"
        }
      ],
      "stateMutability": "pure",
      "type": "function"
    },
    {
      "inputs": [
        {
          "internalType": "address",
          "name": "spender",
          "type": "address"
        },
        {
          "internalType": "uint256",
          "name": "subtractedValue",
          "type": "uint256"
        }
      ],
      "name": "decreaseAllowance",
      "outputs": [
        {
          "internalType": "bool",
          "name": "",
          "type": "bool"
        }
      ],
      "stateMutability": "nonpayable",
      "type": "function"
    },
    {
      "inputs": [
        {
          "internalType": "address",
          "name": "spender",
          "type": "address"
        },
        {
          "internalType": "uint256",
          "name": "addedValue",
          "type": "uint256"
        }
      ],
      "name": "increaseAllowance",
      "outputs": [
        {
          "internalType": "bool",
          "name": "",
          "type": "bool"
        }
      ],
      "stateMutability": "nonpayable",
      "type": "function"
    },
    {
      "inputs": [],
      "name": "name",
      "outputs": [
        {
          "internalType": "string",
          "name": "",
          "type": "string"
        }
      ],
      "stateMutability": "view",
      "type": "function"
    },
    {
      "inputs": [],
      "name": "owner",
      "outputs": [
        {
          "internalType": "address",
          "name": "",
          "type": "address"
        }
      ],
      "stateMutability": "view",
      "type": "function"
    },
    {
      "inputs": [],
      "name": "renounceOwnership",
      "outputs": [],
      "stateMutability": "nonpayable",
      "type": "function"
    },
    {
      "inputs": [],
      "name": "symbol",
      "outputs": [
        {
          "internalType": "string",
          "name": "",
          "type": "string"
        }
      ],
      "stateMutability": "view",
      "type": "function"
    },
    {
      "inputs": [],
      "name": "totalSupply",
      "outputs": [
        {
          "internalType": "uint256",
          "name": "",
          "type": "uint256"
        }
      ],
      "stateMutability": "view",
      "type": "function"
    },
    {
      "inputs": [
        {
          "internalType": "address",
          "name": "to",
          "type": "address"
        },
        {
          "internalType": "uint256",
          "name": "amount",
          "type": "uint256"
        },
        {
          "internalType": "string",
          "name": "purchases",
          "type": "string"
        }
      ],
      "name": "transfer",
      "outputs": [
        {
          "internalType": "bool",
          "name": "",
          "type": "bool"
        }
      ],
      "stateMutability": "nonpayable",
      "type": "function"
    },
    {
      "inputs": [
        {
          "internalType": "address",
          "name": "from",
          "type": "address"
        },
        {
          "internalType": "address",
          "name": "to",
          "type": "address"
        },
        {
          "internalType": "uint256",
          "name": "amount",
          "type": "uint256"
        },
        {
          "internalType": "string",
          "name": "purchases",
          "type": "string"
        }
      ],
      "name": "transferFrom",
      "outputs": [
        {
          "internalType": "bool",
          "name": "",
          "type": "bool"
        }
      ],
      "stateMutability": "nonpayable",
      "type": "function"
    },
    {
      "inputs": [
        {
          "internalType": "address",
          "name": "newOwner",
          "type": "address"
        }
      ],
      "name": "transferOwnership",
      "outputs": [],
      "stateMutability": "nonpayable",
      "type": "function"
    }
  ],
  "bytecode": "0x60806040523480156200001157600080fd5b5060405162002117380380620021178339818101604052810190620000379190620003c0565b6040518060400160405280600881526020017f4d494e4b546573740000000000000000000000000000000000000000000000008152506040518060400160405280600881526020017f4d494e4b546573740000000000000000000000000000000000000000000000008152508160039081620000b4919062000662565b508060049081620000c6919062000662565b505050620000e9620000dd6200011160201b60201c565b6200011960201b60201c565b6200010a620000fd620001df60201b60201c565b826200020960201b60201c565b5062000864565b600033905090565b6000600560009054906101000a900473ffffffffffffffffffffffffffffffffffffffff16905081600560006101000a81548173ffffffffffffffffffffffffffffffffffffffff021916908373ffffffffffffffffffffffffffffffffffffffff1602179055508173ffffffffffffffffffffffffffffffffffffffff168173ffffffffffffffffffffffffffffffffffffffff167f8be0079c531659141344cd1fd0a4f28419497f9722a3daafe3b4186f6b6457e060405160405180910390a35050565b6000600560009054906101000a900473ffffffffffffffffffffffffffffffffffffffff16905090565b600073ffffffffffffffffffffffffffffffffffffffff168273ffffffffffffffffffffffffffffffffffffffff16036200027b576040517f08c379a00000000000000000000000000000000000000000000000000000000081526004016200027290620007aa565b60405180910390fd5b6200028f600083836200037660201b60201c565b8060026000828254620002a39190620007fb565b92505081905550806000808473ffffffffffffffffffffffffffffffffffffffff1673ffffffffffffffffffffffffffffffffffffffff168152602001908152602001600020600082825401925050819055508173ffffffffffffffffffffffffffffffffffffffff16600073ffffffffffffffffffffffffffffffffffffffff167fddf252ad1be2c89b69c2b068fc378daa952ba7f163c4a11628f55a4df523b3ef8360405162000356919062000847565b60405180910390a362000372600083836200037b60201b60201c565b5050565b505050565b505050565b600080fd5b6000819050919050565b6200039a8162000385565b8114620003a657600080fd5b50565b600081519050620003ba816200038f565b92915050565b600060208284031215620003d957620003d862000380565b5b6000620003e984828501620003a9565b91505092915050565b600081519050919050565b7f4e487b7100000000000000000000000000000000000000000000000000000000600052604160045260246000fd5b7f4e487b7100000000000000000000000000000000000000000000000000000000600052602260045260246000fd5b600060028204905060018216806200047457607f821691505b6020821081036200048a57620004896200042c565b5b50919050565b60008190508160005260206000209050919050565b60006020601f8301049050919050565b600082821b905092915050565b600060088302620004f47fffffffffffffffffffffffffffffffffffffffffffffffffffffffffffffffff82620004b5565b620005008683620004b5565b95508019841693508086168417925050509392505050565b6000819050919050565b6000620005436200053d620005378462000385565b62000518565b62000385565b9050919050565b6000819050919050565b6200055f8362000522565b620005776200056e826200054a565b848454620004c2565b825550505050565b600090565b6200058e6200057f565b6200059b81848462000554565b505050565b5b81811015620005c357620005b760008262000584565b600181019050620005a1565b5050565b601f8211156200061257620005dc8162000490565b620005e784620004a5565b81016020851015620005f7578190505b6200060f6200060685620004a5565b830182620005a0565b50505b505050565b600082821c905092915050565b6000620006376000198460080262000617565b1980831691505092915050565b600062000652838362000624565b9150826002028217905092915050565b6200066d82620003f2565b67ffffffffffffffff811115620006895762000688620003fd565b5b6200069582546200045b565b620006a2828285620005c7565b600060209050601f831160018114620006da5760008415620006c5578287015190505b620006d1858262000644565b86555062000741565b601f198416620006ea8662000490565b60005b828110156200071457848901518255600182019150602085019450602081019050620006ed565b8683101562000734578489015162000730601f89168262000624565b8355505b6001600288020188555050505b505050505050565b600082825260208201905092915050565b7f45524332303a206d696e7420746f20746865207a65726f206164647265737300600082015250565b600062000792601f8362000749565b91506200079f826200075a565b602082019050919050565b60006020820190508181036000830152620007c58162000783565b9050919050565b7f4e487b7100000000000000000000000000000000000000000000000000000000600052601160045260246000fd5b6000620008088262000385565b9150620008158362000385565b925082820190508082111562000830576200082f620007cc565b5b92915050565b620008418162000385565b82525050565b60006020820190506200085e600083018462000836565b92915050565b6118a380620008746000396000f3fe608060405234801561001057600080fd5b50600436106100ea5760003560e01c806370a082311161008c57806395d89b411161006657806395d89b4114610261578063a457c2d71461027f578063dd62ed3e146102af578063f2fde38b146102df576100ea565b806370a0823114610209578063715018a6146102395780638da5cb5b14610243576100ea565b80631af716ba116100c85780631af716ba1461015b578063313ce5671461018b57806339509351146101a957806356b8c724146101d9576100ea565b806306fdde03146100ef578063095ea7b31461010d57806318160ddd1461013d575b600080fd5b6100f76102fb565b6040516101049190610e22565b60405180910390f35b61012760048036038101906101229190610eec565b61038d565b6040516101349190610f47565b60405180910390f35b6101456103b0565b6040516101529190610f71565b60405180910390f35b610175600480360381019061017091906110c1565b6103ba565b6040516101829190610f47565b60405180910390f35b6101936103eb565b6040516101a09190611160565b60405180910390f35b6101c360048036038101906101be9190610eec565b6103f4565b6040516101d09190610f47565b60405180910390f35b6101f360048036038101906101ee919061117b565b61042b565b6040516102009190610f47565b60405180910390f35b610223600480360381019061021e91906111ea565b610450565b6040516102309190610f71565b60405180910390f35b610241610498565b005b61024b6104ac565b6040516102589190611226565b60405180910390f35b6102696104d6565b6040516102769190610e22565b60405180910390f35b61029960048036038101906102949190610eec565b610568565b6040516102a69190610f47565b60405180910390f35b6102c960048036038101906102c49190611241565b6105df565b6040516102d69190610f71565b60405180910390f35b6102f960048036038101906102f491906111ea565b610666565b005b60606003805461030a906112b0565b80601f0160208091040260200160405190810160405280929190818152602001828054610336906112b0565b80156103835780601f1061035857610100808354040283529160200191610383565b820191906000526020600020905b81548152906001019060200180831161036657829003601f168201915b5050505050905090565b6000806103986106e9565b90506103a58185856106f1565b600191505092915050565b6000600254905090565b6000806103c56106e9565b90506103d28682866108ba565b6103de86868686610946565b6001915050949350505050565b60006003905090565b6000806103ff6106e9565b905061042081858561041185896105df565b61041b9190611310565b6106f1565b600191505092915050565b6000806104366106e9565b905061044481868686610946565b60019150509392505050565b60008060008373ffffffffffffffffffffffffffffffffffffffff1673ffffffffffffffffffffffffffffffffffffffff168152602001908152602001600020549050919050565b6104a0610c44565b6104aa6000610cc2565b565b6000600560009054906101000a900473ffffffffffffffffffffffffffffffffffffffff16905090565b6060600480546104e5906112b0565b80601f0160208091040260200160405190810160405280929190818152602001828054610511906112b0565b801561055e5780601f106105335761010080835404028352916020019161055e565b820191906000526020600020905b81548152906001019060200180831161054157829003601f168201915b5050505050905090565b6000806105736106e9565b9050600061058182866105df565b9050838110156105c6576040517f08c379a00000000000000000000000000000000000000000000000000000000081526004016105bd906113b6565b60405180910390fd5b6105d382868684036106f1565b60019250505092915050565b6000600160008473ffffffffffffffffffffffffffffffffffffffff1673ffffffffffffffffffffffffffffffffffffffff16815260200190815260200160002060008373ffffffffffffffffffffffffffffffffffffffff1673ffffffffffffffffffffffffffffffffffffffff16815260200190815260200160002054905092915050565b61066e610c44565b600073ffffffffffffffffffffffffffffffffffffffff168173ffffffffffffffffffffffffffffffffffffffff16036106dd576040517f08c379a00000000000000000000000000000000000000000000000000000000081526004016106d490611448565b60405180910390fd5b6106e681610cc2565b50565b600033905090565b600073ffffffffffffffffffffffffffffffffffffffff168373ffffffffffffffffffffffffffffffffffffffff1603610760576040517f08c379a0000000000000000000000000000000000000000000000000000000008152600401610757906114da565b60405180910390fd5b600073ffffffffffffffffffffffffffffffffffffffff168273ffffffffffffffffffffffffffffffffffffffff16036107cf576040517f08c379a00000000000000000000000000000000000000000000000000000000081526004016107c69061156c565b60405180910390fd5b80600160008573ffffffffffffffffffffffffffffffffffffffff1673ffffffffffffffffffffffffffffffffffffffff16815260200190815260200160002060008473ffffffffffffffffffffffffffffffffffffffff1673ffffffffffffffffffffffffffffffffffffffff168152602001908152602001600020819055508173ffffffffffffffffffffffffffffffffffffffff168373ffffffffffffffffffffffffffffffffffffffff167f8c5be1e5ebec7d5bd14f71427d1e84f3dd0314c0f7b2291e5b200ac8c7c3b925836040516108ad9190610f71565b60405180910390a3505050565b60006108c684846105df565b90507fffffffffffffffffffffffffffffffffffffffffffffffffffffffffffffffff81146109405781811015610932576040517f08c379a0000000000000000000000000000000000000000000000000000000008152600401610929906115d8565b60405180910390fd5b61093f84848484036106f1565b5b50505050565b600073ffffffffffffffffffffffffffffffffffffffff168473ffffffffffffffffffffffffffffffffffffffff16036109b5576040517f08c379a00000000000000000000000000000000000000000000000000000000081526004016109ac9061166a565b60405180910390fd5b600073ffffffffffffffffffffffffffffffffffffffff168373ffffffffffffffffffffffffffffffffffffffff1603610a24576040517f08c379a0000000000000000000000000000000000000000000000000000000008152600401610a1b906116fc565b60405180910390fd5b610a2f848484610d88565b60008060008673ffffffffffffffffffffffffffffffffffffffff1673ffffffffffffffffffffffffffffffffffffffff16815260200190815260200160002054905082811015610ab5576040517f08c379a0000000000000000000000000000000000000000000000000000000008152600401610aac9061178e565b60405180910390fd5b8281036000808773ffffffffffffffffffffffffffffffffffffffff1673ffffffffffffffffffffffffffffffffffffffff16815260200190815260200160002081905550826000808673ffffffffffffffffffffffffffffffffffffffff1673ffffffffffffffffffffffffffffffffffffffff168152602001908152602001600020600082825401925050819055508373ffffffffffffffffffffffffffffffffffffffff168573ffffffffffffffffffffffffffffffffffffffff167fddf252ad1be2c89b69c2b068fc378daa952ba7f163c4a11628f55a4df523b3ef85604051610ba39190610f71565b60405180910390a3600082511115610c32578373ffffffffffffffffffffffffffffffffffffffff168573ffffffffffffffffffffffffffffffffffffffff1683604051610bf191906117ea565b60405180910390207fdac62292037ac4ba89dd0b90fdf8e90c04b18e6c11848ff41018329e0bbf6b016001604051610c299190610f47565b60405180910390a45b610c3d858585610d8d565b5050505050565b610c4c6106e9565b73ffffffffffffffffffffffffffffffffffffffff16610c6a6104ac565b73ffffffffffffffffffffffffffffffffffffffff1614610cc0576040517f08c379a0000000000000000000000000000000000000000000000000000000008152600401610cb79061184d565b60405180910390fd5b565b6000600560009054906101000a900473ffffffffffffffffffffffffffffffffffffffff16905081600560006101000a81548173ffffffffffffffffffffffffffffffffffffffff021916908373ffffffffffffffffffffffffffffffffffffffff1602179055508173ffffffffffffffffffffffffffffffffffffffff168173ffffffffffffffffffffffffffffffffffffffff167f8be0079c531659141344cd1fd0a4f28419497f9722a3daafe3b4186f6b6457e060405160405180910390a35050565b505050565b505050565b600081519050919050565b600082825260208201905092915050565b60005b83811015610dcc578082015181840152602081019050610db1565b60008484015250505050565b6000601f19601f8301169050919050565b6000610df482610d92565b610dfe8185610d9d565b9350610e0e818560208601610dae565b610e1781610dd8565b840191505092915050565b60006020820190508181036000830152610e3c8184610de9565b905092915050565b6000604051905090565b600080fd5b600080fd5b600073ffffffffffffffffffffffffffffffffffffffff82169050919050565b6000610e8382610e58565b9050919050565b610e9381610e78565b8114610e9e57600080fd5b50565b600081359050610eb081610e8a565b92915050565b6000819050919050565b610ec981610eb6565b8114610ed457600080fd5b50565b600081359050610ee681610ec0565b92915050565b60008060408385031215610f0357610f02610e4e565b5b6000610f1185828601610ea1565b9250506020610f2285828601610ed7565b9150509250929050565b60008115159050919050565b610f4181610f2c565b82525050565b6000602082019050610f5c6000830184610f38565b92915050565b610f6b81610eb6565b82525050565b6000602082019050610f866000830184610f62565b92915050565b600080fd5b600080fd5b7f4e487b7100000000000000000000000000000000000000000000000000000000600052604160045260246000fd5b610fce82610dd8565b810181811067ffffffffffffffff82111715610fed57610fec610f96565b5b80604052505050565b6000611000610e44565b905061100c8282610fc5565b919050565b600067ffffffffffffffff82111561102c5761102b610f96565b5b61103582610dd8565b9050602081019050919050565b82818337600083830152505050565b600061106461105f84611011565b610ff6565b9050828152602081018484840111156110805761107f610f91565b5b61108b848285611042565b509392505050565b600082601f8301126110a8576110a7610f8c565b5b81356110b8848260208601611051565b91505092915050565b600080600080608085870312156110db576110da610e4e565b5b60006110e987828801610ea1565b94505060206110fa87828801610ea1565b935050604061110b87828801610ed7565b925050606085013567ffffffffffffffff81111561112c5761112b610e53565b5b61113887828801611093565b91505092959194509250565b600060ff82169050919050565b61115a81611144565b82525050565b60006020820190506111756000830184611151565b92915050565b60008060006060848603121561119457611193610e4e565b5b60006111a286828701610ea1565b93505060206111b386828701610ed7565b925050604084013567ffffffffffffffff8111156111d4576111d3610e53565b5b6111e086828701611093565b9150509250925092565b600060208284031215611200576111ff610e4e565b5b600061120e84828501610ea1565b91505092915050565b61122081610e78565b82525050565b600060208201905061123b6000830184611217565b92915050565b6000806040838503121561125857611257610e4e565b5b600061126685828601610ea1565b925050602061127785828601610ea1565b9150509250929050565b7f4e487b7100000000000000000000000000000000000000000000000000000000600052602260045260246000fd5b600060028204905060018216806112c857607f821691505b6020821081036112db576112da611281565b5b50919050565b7f4e487b7100000000000000000000000000000000000000000000000000000000600052601160045260246000fd5b600061131b82610eb6565b915061132683610eb6565b925082820190508082111561133e5761133d6112e1565b5b92915050565b7f45524332303a2064656372656173656420616c6c6f77616e63652062656c6f7760008201527f207a65726f000000000000000000000000000000000000000000000000000000602082015250565b60006113a0602583610d9d565b91506113ab82611344565b604082019050919050565b600060208201905081810360008301526113cf81611393565b9050919050565b7f4f776e61626c653a206e6577206f776e657220697320746865207a65726f206160008201527f6464726573730000000000000000000000000000000000000000000000000000602082015250565b6000611432602683610d9d565b915061143d826113d6565b604082019050919050565b6000602082019050818103600083015261146181611425565b9050919050565b7f45524332303a20617070726f76652066726f6d20746865207a65726f2061646460008201527f7265737300000000000000000000000000000000000000000000000000000000602082015250565b60006114c4602483610d9d565b91506114cf82611468565b604082019050919050565b600060208201905081810360008301526114f3816114b7565b9050919050565b7f45524332303a20617070726f766520746f20746865207a65726f20616464726560008201527f7373000000000000000000000000000000000000000000000000000000000000602082015250565b6000611556602283610d9d565b9150611561826114fa565b604082019050919050565b6000602082019050818103600083015261158581611549565b9050919050565b7f45524332303a20696e73756666696369656e7420616c6c6f77616e6365000000600082015250565b60006115c2601d83610d9d565b91506115cd8261158c565b602082019050919050565b600060208201905081810360008301526115f1816115b5565b9050919050565b7f45524332303a207472616e736665722066726f6d20746865207a65726f20616460008201527f6472657373000000000000000000000000000000000000000000000000000000602082015250565b6000611654602583610d9d565b915061165f826115f8565b604082019050919050565b6000602082019050818103600083015261168381611647565b9050919050565b7f45524332303a207472616e7366657220746f20746865207a65726f206164647260008201527f6573730000000000000000000000000000000000000000000000000000000000602082015250565b60006116e6602383610d9d565b91506116f18261168a565b604082019050919050565b60006020820190508181036000830152611715816116d9565b9050919050565b7f45524332303a207472616e7366657220616d6f756e742065786365656473206260008201527f616c616e63650000000000000000000000000000000000000000000000000000602082015250565b6000611778602683610d9d565b91506117838261171c565b604082019050919050565b600060208201905081810360008301526117a78161176b565b9050919050565b600081905092915050565b60006117c482610d92565b6117ce81856117ae565b93506117de818560208601610dae565b80840191505092915050565b60006117f682846117b9565b915081905092915050565b7f4f776e61626c653a2063616c6c6572206973206e6f7420746865206f776e6572600082015250565b6000611837602083610d9d565b915061184282611801565b602082019050919050565b600060208201905081810360008301526118668161182a565b905091905056fea264697066735822122093d8c3650d108c3289ea5e504a224bd21760ea962e7c99d2c92860a253dbced164736f6c63430008110033",
  "linkReferences": {},
  "deployedLinkReferences": {}
}