{
  "_format": "hh-sol-artifact-1",
  "contractName": "MINKtoken",
  "sourceName": "contracts/MINKTOKEN/MINKToken.sol",
  "abi": [
    {
      "inputs": [
        {
          "internalType": "uint256",
          "name": "totalSupply",
          "type": "uint256"
        }
      ],
      "stateMutability": "nonpayable",
      "type": "constructor"
    },
    {
      "anonymous": false,
      "inputs": [
        {
          "indexed": true,
          "internalType": "address",
          "name": "owner",
          "type": "address"
        },
        {
          "indexed": true,
          "internalType": "address",
          "name": "spender",
          "type": "address"
        },
        {
          "indexed": false,
          "internalType": "uint256",
          "name": "value",
          "type": "uint256"
        }
      ],
      "name": "Approval",
      "type": "event"
    },
    {
      "anonymous": false,
      "inputs": [
        {
          "indexed": true,
          "internalType": "address",
          "name": "previousOwner",
          "type": "address"
        },
        {
          "indexed": true,
          "internalType": "address",
          "name": "newOwner",
          "type": "address"
        }
      ],
      "name": "OwnershipTransferred",
      "type": "event"
    },
    {
      "anonymous": false,
      "inputs": [
        {
          "indexed": true,
          "internalType": "address",
          "name": "from",
          "type": "address"
        },
        {
          "indexed": true,
          "internalType": "address",
          "name": "to",
          "type": "address"
        },
        {
          "indexed": false,
          "internalType": "uint256",
          "name": "value",
          "type": "uint256"
        }
      ],
      "name": "Transfer",
      "type": "event"
    },
    {
      "anonymous": false,
      "inputs": [
        {
          "indexed": true,
          "internalType": "string",
          "name": "purchases",
          "type": "string"
        },
        {
          "indexed": true,
          "internalType": "address",
          "name": "from",
          "type": "address"
        },
        {
          "indexed": true,
          "internalType": "address",
          "name": "to",
          "type": "address"
        },
        {
          "indexed": false,
          "internalType": "bool",
          "name": "purchaseStatus",
          "type": "bool"
        }
      ],
      "name": "purchaseDetails",
      "type": "event"
    },
    {
      "inputs": [
        {
          "internalType": "address",
          "name": "owner",
          "type": "address"
        },
        {
          "internalType": "address",
          "name": "spender",
          "type": "address"
        }
      ],
      "name": "allowance",
      "outputs": [
        {
          "internalType": "uint256",
          "name": "",
          "type": "uint256"
        }
      ],
      "stateMutability": "view",
      "type": "function"
    },
    {
      "inputs": [
        {
          "internalType": "address",
          "name": "spender",
          "type": "address"
        },
        {
          "internalType": "uint256",
          "name": "amount",
          "type": "uint256"
        }
      ],
      "name": "approve",
      "outputs": [
        {
          "internalType": "bool",
          "name": "",
          "type": "bool"
        }
      ],
      "stateMutability": "nonpayable",
      "type": "function"
    },
    {
      "inputs": [
        {
          "internalType": "address",
          "name": "account",
          "type": "address"
        }
      ],
      "name": "balanceOf",
      "outputs": [
        {
          "internalType": "uint256",
          "name": "",
          "type": "uint256"
        }
      ],
      "stateMutability": "view",
      "type": "function"
    },
    {
      "inputs": [],
      "name": "decimals",
      "outputs": [
        {
          "internalType": "uint8",
          "name": "",
          "type": "uint8"
        }
      ],
      "stateMutability": "pure",
      "type": "function"
    },
    {
      "inputs": [
        {
          "internalType": "address",
          "name": "spender",
          "type": "address"
        },
        {
          "internalType": "uint256",
          "name": "subtractedValue",
          "type": "uint256"
        }
      ],
      "name": "decreaseAllowance",
      "outputs": [
        {
          "internalType": "bool",
          "name": "",
          "type": "bool"
        }
      ],
      "stateMutability": "nonpayable",
      "type": "function"
    },
    {
      "inputs": [
        {
          "internalType": "address",
          "name": "spender",
          "type": "address"
        },
        {
          "internalType": "uint256",
          "name": "addedValue",
          "type": "uint256"
        }
      ],
      "name": "increaseAllowance",
      "outputs": [
        {
          "internalType": "bool",
          "name": "",
          "type": "bool"
        }
      ],
      "stateMutability": "nonpayable",
      "type": "function"
    },
    {
      "inputs": [],
      "name": "name",
      "outputs": [
        {
          "internalType": "string",
          "name": "",
          "type": "string"
        }
      ],
      "stateMutability": "view",
      "type": "function"
    },
    {
      "inputs": [],
      "name": "owner",
      "outputs": [
        {
          "internalType": "address",
          "name": "",
          "type": "address"
        }
      ],
      "stateMutability": "view",
      "type": "function"
    },
    {
      "inputs": [],
      "name": "renounceOwnership",
      "outputs": [],
      "stateMutability": "nonpayable",
      "type": "function"
    },
    {
      "inputs": [
        {
          "internalType": "address",
          "name": "to",
          "type": "address"
        },
        {
          "internalType": "string",
          "name": "details",
          "type": "string"
        },
        {
          "internalType": "uint256",
          "name": "amount",
          "type": "uint256"
        }
      ],
      "name": "runPurchase",
      "outputs": [],
      "stateMutability": "nonpayable",
      "type": "function"
    },
    {
      "inputs": [],
      "name": "symbol",
      "outputs": [
        {
          "internalType": "string",
          "name": "",
          "type": "string"
        }
      ],
      "stateMutability": "view",
      "type": "function"
    },
    {
      "inputs": [],
      "name": "totalSupply",
      "outputs": [
        {
          "internalType": "uint256",
          "name": "",
          "type": "uint256"
        }
      ],
      "stateMutability": "view",
      "type": "function"
    },
    {
      "inputs": [
        {
          "internalType": "address",
          "name": "to",
          "type": "address"
        },
        {
          "internalType": "uint256",
          "name": "amount",
          "type": "uint256"
        }
      ],
      "name": "transfer",
      "outputs": [
        {
          "internalType": "bool",
          "name": "",
          "type": "bool"
        }
      ],
      "stateMutability": "nonpayable",
      "type": "function"
    },
    {
      "inputs": [
        {
          "internalType": "address",
          "name": "from",
          "type": "address"
        },
        {
          "internalType": "address",
          "name": "to",
          "type": "address"
        },
        {
          "internalType": "uint256",
          "name": "amount",
          "type": "uint256"
        }
      ],
      "name": "transferFrom",
      "outputs": [
        {
          "internalType": "bool",
          "name": "",
          "type": "bool"
        }
      ],
      "stateMutability": "nonpayable",
      "type": "function"
    },
    {
      "inputs": [
        {
          "internalType": "address",
          "name": "newOwner",
          "type": "address"
        }
      ],
      "name": "transferOwnership",
      "outputs": [],
      "stateMutability": "nonpayable",
      "type": "function"
    }
  ],
  "bytecode": "0x60806040523480156200001157600080fd5b506040516200212e3803806200212e8339818101604052810190620000379190620003c0565b6040518060400160405280600881526020017f4d494e4b546573740000000000000000000000000000000000000000000000008152506040518060400160405280600881526020017f4d494e4b546573740000000000000000000000000000000000000000000000008152508160039081620000b4919062000662565b508060049081620000c6919062000662565b505050620000e9620000dd6200011160201b60201c565b6200011960201b60201c565b6200010a620000fd620001df60201b60201c565b826200020960201b60201c565b5062000864565b600033905090565b6000600560009054906101000a900473ffffffffffffffffffffffffffffffffffffffff16905081600560006101000a81548173ffffffffffffffffffffffffffffffffffffffff021916908373ffffffffffffffffffffffffffffffffffffffff1602179055508173ffffffffffffffffffffffffffffffffffffffff168173ffffffffffffffffffffffffffffffffffffffff167f8be0079c531659141344cd1fd0a4f28419497f9722a3daafe3b4186f6b6457e060405160405180910390a35050565b6000600560009054906101000a900473ffffffffffffffffffffffffffffffffffffffff16905090565b600073ffffffffffffffffffffffffffffffffffffffff168273ffffffffffffffffffffffffffffffffffffffff16036200027b576040517f08c379a00000000000000000000000000000000000000000000000000000000081526004016200027290620007aa565b60405180910390fd5b6200028f600083836200037660201b60201c565b8060026000828254620002a39190620007fb565b92505081905550806000808473ffffffffffffffffffffffffffffffffffffffff1673ffffffffffffffffffffffffffffffffffffffff168152602001908152602001600020600082825401925050819055508173ffffffffffffffffffffffffffffffffffffffff16600073ffffffffffffffffffffffffffffffffffffffff167fddf252ad1be2c89b69c2b068fc378daa952ba7f163c4a11628f55a4df523b3ef8360405162000356919062000847565b60405180910390a362000372600083836200037b60201b60201c565b5050565b505050565b505050565b600080fd5b6000819050919050565b6200039a8162000385565b8114620003a657600080fd5b50565b600081519050620003ba816200038f565b92915050565b600060208284031215620003d957620003d862000380565b5b6000620003e984828501620003a9565b91505092915050565b600081519050919050565b7f4e487b7100000000000000000000000000000000000000000000000000000000600052604160045260246000fd5b7f4e487b7100000000000000000000000000000000000000000000000000000000600052602260045260246000fd5b600060028204905060018216806200047457607f821691505b6020821081036200048a57620004896200042c565b5b50919050565b60008190508160005260206000209050919050565b60006020601f8301049050919050565b600082821b905092915050565b600060088302620004f47fffffffffffffffffffffffffffffffffffffffffffffffffffffffffffffffff82620004b5565b620005008683620004b5565b95508019841693508086168417925050509392505050565b6000819050919050565b6000620005436200053d620005378462000385565b62000518565b62000385565b9050919050565b6000819050919050565b6200055f8362000522565b620005776200056e826200054a565b848454620004c2565b825550505050565b600090565b6200058e6200057f565b6200059b81848462000554565b505050565b5b81811015620005c357620005b760008262000584565b600181019050620005a1565b5050565b601f8211156200061257620005dc8162000490565b620005e784620004a5565b81016020851015620005f7578190505b6200060f6200060685620004a5565b830182620005a0565b50505b505050565b600082821c905092915050565b6000620006376000198460080262000617565b1980831691505092915050565b600062000652838362000624565b9150826002028217905092915050565b6200066d82620003f2565b67ffffffffffffffff811115620006895762000688620003fd565b5b6200069582546200045b565b620006a2828285620005c7565b600060209050601f831160018114620006da5760008415620006c5578287015190505b620006d1858262000644565b86555062000741565b601f198416620006ea8662000490565b60005b828110156200071457848901518255600182019150602085019450602081019050620006ed565b8683101562000734578489015162000730601f89168262000624565b8355505b6001600288020188555050505b505050505050565b600082825260208201905092915050565b7f45524332303a206d696e7420746f20746865207a65726f206164647265737300600082015250565b600062000792601f8362000749565b91506200079f826200075a565b602082019050919050565b60006020820190508181036000830152620007c58162000783565b9050919050565b7f4e487b7100000000000000000000000000000000000000000000000000000000600052601160045260246000fd5b6000620008088262000385565b9150620008158362000385565b925082820190508082111562000830576200082f620007cc565b5b92915050565b620008418162000385565b82525050565b60006020820190506200085e600083018462000836565b92915050565b6118ba80620008746000396000f3fe608060405234801561001057600080fd5b50600436106100f55760003560e01c806370a0823111610097578063a457c2d711610066578063a457c2d714610276578063a9059cbb146102a6578063dd62ed3e146102d6578063f2fde38b14610306576100f5565b806370a0823114610200578063715018a6146102305780638da5cb5b1461023a57806395d89b4114610258576100f5565b806323b872dd116100d357806323b872dd14610166578063313ce5671461019657806339509351146101b4578063688ffefa146101e4576100f5565b806306fdde03146100fa578063095ea7b31461011857806318160ddd14610148575b600080fd5b610102610322565b60405161010f9190610e69565b60405180910390f35b610132600480360381019061012d9190610f33565b6103b4565b60405161013f9190610f8e565b60405180910390f35b6101506103d7565b60405161015d9190610fb8565b60405180910390f35b610180600480360381019061017b9190610fd3565b6103e1565b60405161018d9190610f8e565b60405180910390f35b61019e610410565b6040516101ab9190611042565b60405180910390f35b6101ce60048036038101906101c99190610f33565b610419565b6040516101db9190610f8e565b60405180910390f35b6101fe60048036038101906101f99190611192565b610450565b005b61021a60048036038101906102159190611201565b610461565b6040516102279190610fb8565b60405180910390f35b6102386104a9565b005b6102426104bd565b60405161024f919061123d565b60405180910390f35b6102606104e7565b60405161026d9190610e69565b60405180910390f35b610290600480360381019061028b9190610f33565b610579565b60405161029d9190610f8e565b60405180910390f35b6102c060048036038101906102bb9190610f33565b6105f0565b6040516102cd9190610f8e565b60405180910390f35b6102f060048036038101906102eb9190611258565b610613565b6040516102fd9190610fb8565b60405180910390f35b610320600480360381019061031b9190611201565b61069a565b005b606060038054610331906112c7565b80601f016020809104026020016040519081016040528092919081815260200182805461035d906112c7565b80156103aa5780601f1061037f576101008083540402835291602001916103aa565b820191906000526020600020905b81548152906001019060200180831161038d57829003601f168201915b5050505050905090565b6000806103bf61071d565b90506103cc818585610725565b600191505092915050565b6000600254905090565b6000806103ec61071d565b90506103f98582856108ee565b61040485858561097a565b60019150509392505050565b60006003905090565b60008061042461071d565b90506104458185856104368589610613565b6104409190611327565b610725565b600191505092915050565b61045b838383610bf0565b50505050565b60008060008373ffffffffffffffffffffffffffffffffffffffff1673ffffffffffffffffffffffffffffffffffffffff168152602001908152602001600020549050919050565b6104b1610c8b565b6104bb6000610d09565b565b6000600560009054906101000a900473ffffffffffffffffffffffffffffffffffffffff16905090565b6060600480546104f6906112c7565b80601f0160208091040260200160405190810160405280929190818152602001828054610522906112c7565b801561056f5780601f106105445761010080835404028352916020019161056f565b820191906000526020600020905b81548152906001019060200180831161055257829003601f168201915b5050505050905090565b60008061058461071d565b905060006105928286610613565b9050838110156105d7576040517f08c379a00000000000000000000000000000000000000000000000000000000081526004016105ce906113cd565b60405180910390fd5b6105e48286868403610725565b60019250505092915050565b6000806105fb61071d565b905061060881858561097a565b600191505092915050565b6000600160008473ffffffffffffffffffffffffffffffffffffffff1673ffffffffffffffffffffffffffffffffffffffff16815260200190815260200160002060008373ffffffffffffffffffffffffffffffffffffffff1673ffffffffffffffffffffffffffffffffffffffff16815260200190815260200160002054905092915050565b6106a2610c8b565b600073ffffffffffffffffffffffffffffffffffffffff168173ffffffffffffffffffffffffffffffffffffffff1603610711576040517f08c379a00000000000000000000000000000000000000000000000000000000081526004016107089061145f565b60405180910390fd5b61071a81610d09565b50565b600033905090565b600073ffffffffffffffffffffffffffffffffffffffff168373ffffffffffffffffffffffffffffffffffffffff1603610794576040517f08c379a000000000000000000000000000000000000000000000000000000000815260040161078b906114f1565b60405180910390fd5b600073ffffffffffffffffffffffffffffffffffffffff168273ffffffffffffffffffffffffffffffffffffffff1603610803576040517f08c379a00000000000000000000000000000000000000000000000000000000081526004016107fa90611583565b60405180910390fd5b80600160008573ffffffffffffffffffffffffffffffffffffffff1673ffffffffffffffffffffffffffffffffffffffff16815260200190815260200160002060008473ffffffffffffffffffffffffffffffffffffffff1673ffffffffffffffffffffffffffffffffffffffff168152602001908152602001600020819055508173ffffffffffffffffffffffffffffffffffffffff168373ffffffffffffffffffffffffffffffffffffffff167f8c5be1e5ebec7d5bd14f71427d1e84f3dd0314c0f7b2291e5b200ac8c7c3b925836040516108e19190610fb8565b60405180910390a3505050565b60006108fa8484610613565b90507fffffffffffffffffffffffffffffffffffffffffffffffffffffffffffffffff81146109745781811015610966576040517f08c379a000000000000000000000000000000000000000000000000000000000815260040161095d906115ef565b60405180910390fd5b6109738484848403610725565b5b50505050565b600073ffffffffffffffffffffffffffffffffffffffff168373ffffffffffffffffffffffffffffffffffffffff16036109e9576040517f08c379a00000000000000000000000000000000000000000000000000000000081526004016109e090611681565b60405180910390fd5b600073ffffffffffffffffffffffffffffffffffffffff168273ffffffffffffffffffffffffffffffffffffffff1603610a58576040517f08c379a0000000000000000000000000000000000000000000000000000000008152600401610a4f90611713565b60405180910390fd5b610a63838383610dcf565b60008060008573ffffffffffffffffffffffffffffffffffffffff1673ffffffffffffffffffffffffffffffffffffffff16815260200190815260200160002054905081811015610ae9576040517f08c379a0000000000000000000000000000000000000000000000000000000008152600401610ae0906117a5565b60405180910390fd5b8181036000808673ffffffffffffffffffffffffffffffffffffffff1673ffffffffffffffffffffffffffffffffffffffff16815260200190815260200160002081905550816000808573ffffffffffffffffffffffffffffffffffffffff1673ffffffffffffffffffffffffffffffffffffffff168152602001908152602001600020600082825401925050819055508273ffffffffffffffffffffffffffffffffffffffff168473ffffffffffffffffffffffffffffffffffffffff167fddf252ad1be2c89b69c2b068fc378daa952ba7f163c4a11628f55a4df523b3ef84604051610bd79190610fb8565b60405180910390a3610bea848484610dd4565b50505050565b6000610bfc84836105f0565b508373ffffffffffffffffffffffffffffffffffffffff16610c1c61071d565b73ffffffffffffffffffffffffffffffffffffffff1684604051610c409190611801565b60405180910390207fdac62292037ac4ba89dd0b90fdf8e90c04b18e6c11848ff41018329e0bbf6b016001604051610c789190610f8e565b60405180910390a4600190509392505050565b610c9361071d565b73ffffffffffffffffffffffffffffffffffffffff16610cb16104bd565b73ffffffffffffffffffffffffffffffffffffffff1614610d07576040517f08c379a0000000000000000000000000000000000000000000000000000000008152600401610cfe90611864565b60405180910390fd5b565b6000600560009054906101000a900473ffffffffffffffffffffffffffffffffffffffff16905081600560006101000a81548173ffffffffffffffffffffffffffffffffffffffff021916908373ffffffffffffffffffffffffffffffffffffffff1602179055508173ffffffffffffffffffffffffffffffffffffffff168173ffffffffffffffffffffffffffffffffffffffff167f8be0079c531659141344cd1fd0a4f28419497f9722a3daafe3b4186f6b6457e060405160405180910390a35050565b505050565b505050565b600081519050919050565b600082825260208201905092915050565b60005b83811015610e13578082015181840152602081019050610df8565b60008484015250505050565b6000601f19601f8301169050919050565b6000610e3b82610dd9565b610e458185610de4565b9350610e55818560208601610df5565b610e5e81610e1f565b840191505092915050565b60006020820190508181036000830152610e838184610e30565b905092915050565b6000604051905090565b600080fd5b600080fd5b600073ffffffffffffffffffffffffffffffffffffffff82169050919050565b6000610eca82610e9f565b9050919050565b610eda81610ebf565b8114610ee557600080fd5b50565b600081359050610ef781610ed1565b92915050565b6000819050919050565b610f1081610efd565b8114610f1b57600080fd5b50565b600081359050610f2d81610f07565b92915050565b60008060408385031215610f4a57610f49610e95565b5b6000610f5885828601610ee8565b9250506020610f6985828601610f1e565b9150509250929050565b60008115159050919050565b610f8881610f73565b82525050565b6000602082019050610fa36000830184610f7f565b92915050565b610fb281610efd565b82525050565b6000602082019050610fcd6000830184610fa9565b92915050565b600080600060608486031215610fec57610feb610e95565b5b6000610ffa86828701610ee8565b935050602061100b86828701610ee8565b925050604061101c86828701610f1e565b9150509250925092565b600060ff82169050919050565b61103c81611026565b82525050565b60006020820190506110576000830184611033565b92915050565b600080fd5b600080fd5b7f4e487b7100000000000000000000000000000000000000000000000000000000600052604160045260246000fd5b61109f82610e1f565b810181811067ffffffffffffffff821117156110be576110bd611067565b5b80604052505050565b60006110d1610e8b565b90506110dd8282611096565b919050565b600067ffffffffffffffff8211156110fd576110fc611067565b5b61110682610e1f565b9050602081019050919050565b82818337600083830152505050565b6000611135611130846110e2565b6110c7565b90508281526020810184848401111561115157611150611062565b5b61115c848285611113565b509392505050565b600082601f8301126111795761117861105d565b5b8135611189848260208601611122565b91505092915050565b6000806000606084860312156111ab576111aa610e95565b5b60006111b986828701610ee8565b935050602084013567ffffffffffffffff8111156111da576111d9610e9a565b5b6111e686828701611164565b92505060406111f786828701610f1e565b9150509250925092565b60006020828403121561121757611216610e95565b5b600061122584828501610ee8565b91505092915050565b61123781610ebf565b82525050565b6000602082019050611252600083018461122e565b92915050565b6000806040838503121561126f5761126e610e95565b5b600061127d85828601610ee8565b925050602061128e85828601610ee8565b9150509250929050565b7f4e487b7100000000000000000000000000000000000000000000000000000000600052602260045260246000fd5b600060028204905060018216806112df57607f821691505b6020821081036112f2576112f1611298565b5b50919050565b7f4e487b7100000000000000000000000000000000000000000000000000000000600052601160045260246000fd5b600061133282610efd565b915061133d83610efd565b9250828201905080821115611355576113546112f8565b5b92915050565b7f45524332303a2064656372656173656420616c6c6f77616e63652062656c6f7760008201527f207a65726f000000000000000000000000000000000000000000000000000000602082015250565b60006113b7602583610de4565b91506113c28261135b565b604082019050919050565b600060208201905081810360008301526113e6816113aa565b9050919050565b7f4f776e61626c653a206e6577206f776e657220697320746865207a65726f206160008201527f6464726573730000000000000000000000000000000000000000000000000000602082015250565b6000611449602683610de4565b9150611454826113ed565b604082019050919050565b600060208201905081810360008301526114788161143c565b9050919050565b7f45524332303a20617070726f76652066726f6d20746865207a65726f2061646460008201527f7265737300000000000000000000000000000000000000000000000000000000602082015250565b60006114db602483610de4565b91506114e68261147f565b604082019050919050565b6000602082019050818103600083015261150a816114ce565b9050919050565b7f45524332303a20617070726f766520746f20746865207a65726f20616464726560008201527f7373000000000000000000000000000000000000000000000000000000000000602082015250565b600061156d602283610de4565b915061157882611511565b604082019050919050565b6000602082019050818103600083015261159c81611560565b9050919050565b7f45524332303a20696e73756666696369656e7420616c6c6f77616e6365000000600082015250565b60006115d9601d83610de4565b91506115e4826115a3565b602082019050919050565b60006020820190508181036000830152611608816115cc565b9050919050565b7f45524332303a207472616e736665722066726f6d20746865207a65726f20616460008201527f6472657373000000000000000000000000000000000000000000000000000000602082015250565b600061166b602583610de4565b91506116768261160f565b604082019050919050565b6000602082019050818103600083015261169a8161165e565b9050919050565b7f45524332303a207472616e7366657220746f20746865207a65726f206164647260008201527f6573730000000000000000000000000000000000000000000000000000000000602082015250565b60006116fd602383610de4565b9150611708826116a1565b604082019050919050565b6000602082019050818103600083015261172c816116f0565b9050919050565b7f45524332303a207472616e7366657220616d6f756e742065786365656473206260008201527f616c616e63650000000000000000000000000000000000000000000000000000602082015250565b600061178f602683610de4565b915061179a82611733565b604082019050919050565b600060208201905081810360008301526117be81611782565b9050919050565b600081905092915050565b60006117db82610dd9565b6117e581856117c5565b93506117f5818560208601610df5565b80840191505092915050565b600061180d82846117d0565b915081905092915050565b7f4f776e61626c653a2063616c6c6572206973206e6f7420746865206f776e6572600082015250565b600061184e602083610de4565b915061185982611818565b602082019050919050565b6000602082019050818103600083015261187d81611841565b905091905056fea2646970667358221220a8bcc227089ec1714e6cc87c5e371fb46990ab27970321b91a15916ddca23cb364736f6c63430008110033",
  "linkReferences": {},
  "deployedLinkReferences": {}
}