{
  "_format": "hh-sol-artifact-1",
  "contractName": "MoonInkMedals",
  "sourceName": "contracts/NFTs/SBRewards.sol",
  "abi": [
    {
      "inputs": [
        {
          "internalType": "string",
          "name": "_name",
          "type": "string"
        },
        {
          "internalType": "string",
          "name": "_symbol",
          "type": "string"
        }
      ],
      "stateMutability": "nonpayable",
      "type": "constructor"
    },
    {
      "anonymous": false,
      "inputs": [
        {
          "indexed": true,
          "internalType": "address",
          "name": "account",
          "type": "address"
        },
        {
          "indexed": true,
          "internalType": "address",
          "name": "operator",
          "type": "address"
        },
        {
          "indexed": false,
          "internalType": "bool",
          "name": "approved",
          "type": "bool"
        }
      ],
      "name": "ApprovalForAll",
      "type": "event"
    },
    {
      "anonymous": false,
      "inputs": [
        {
          "indexed": true,
          "internalType": "address",
          "name": "previousOwner",
          "type": "address"
        },
        {
          "indexed": true,
          "internalType": "address",
          "name": "newOwner",
          "type": "address"
        }
      ],
      "name": "OwnershipTransferred",
      "type": "event"
    },
    {
      "anonymous": false,
      "inputs": [
        {
          "indexed": true,
          "internalType": "address",
          "name": "operator",
          "type": "address"
        },
        {
          "indexed": true,
          "internalType": "address",
          "name": "from",
          "type": "address"
        },
        {
          "indexed": true,
          "internalType": "address",
          "name": "to",
          "type": "address"
        },
        {
          "indexed": false,
          "internalType": "uint256[]",
          "name": "ids",
          "type": "uint256[]"
        },
        {
          "indexed": false,
          "internalType": "uint256[]",
          "name": "values",
          "type": "uint256[]"
        }
      ],
      "name": "TransferBatch",
      "type": "event"
    },
    {
      "anonymous": false,
      "inputs": [
        {
          "indexed": true,
          "internalType": "address",
          "name": "operator",
          "type": "address"
        },
        {
          "indexed": true,
          "internalType": "address",
          "name": "from",
          "type": "address"
        },
        {
          "indexed": true,
          "internalType": "address",
          "name": "to",
          "type": "address"
        },
        {
          "indexed": false,
          "internalType": "uint256",
          "name": "id",
          "type": "uint256"
        },
        {
          "indexed": false,
          "internalType": "uint256",
          "name": "value",
          "type": "uint256"
        }
      ],
      "name": "TransferSingle",
      "type": "event"
    },
    {
      "anonymous": false,
      "inputs": [
        {
          "indexed": false,
          "internalType": "string",
          "name": "value",
          "type": "string"
        },
        {
          "indexed": true,
          "internalType": "uint256",
          "name": "id",
          "type": "uint256"
        }
      ],
      "name": "URI",
      "type": "event"
    },
    {
      "inputs": [
        {
          "internalType": "address",
          "name": "account",
          "type": "address"
        },
        {
          "internalType": "uint256",
          "name": "id",
          "type": "uint256"
        }
      ],
      "name": "balanceOf",
      "outputs": [
        {
          "internalType": "uint256",
          "name": "",
          "type": "uint256"
        }
      ],
      "stateMutability": "view",
      "type": "function"
    },
    {
      "inputs": [
        {
          "internalType": "address[]",
          "name": "accounts",
          "type": "address[]"
        },
        {
          "internalType": "uint256[]",
          "name": "ids",
          "type": "uint256[]"
        }
      ],
      "name": "balanceOfBatch",
      "outputs": [
        {
          "internalType": "uint256[]",
          "name": "",
          "type": "uint256[]"
        }
      ],
      "stateMutability": "view",
      "type": "function"
    },
    {
      "inputs": [
        {
          "internalType": "address",
          "name": "user",
          "type": "address"
        },
        {
          "internalType": "uint256",
          "name": "id",
          "type": "uint256"
        }
      ],
      "name": "getminted",
      "outputs": [
        {
          "internalType": "bool",
          "name": "",
          "type": "bool"
        }
      ],
      "stateMutability": "view",
      "type": "function"
    },
    {
      "inputs": [
        {
          "internalType": "address",
          "name": "account",
          "type": "address"
        },
        {
          "internalType": "address",
          "name": "operator",
          "type": "address"
        }
      ],
      "name": "isApprovedForAll",
      "outputs": [
        {
          "internalType": "bool",
          "name": "",
          "type": "bool"
        }
      ],
      "stateMutability": "view",
      "type": "function"
    },
    {
      "inputs": [],
      "name": "mintReward",
      "outputs": [
        {
          "internalType": "bool",
          "name": "mintResult",
          "type": "bool"
        }
      ],
      "stateMutability": "nonpayable",
      "type": "function"
    },
    {
      "inputs": [],
      "name": "name",
      "outputs": [
        {
          "internalType": "string",
          "name": "",
          "type": "string"
        }
      ],
      "stateMutability": "view",
      "type": "function"
    },
    {
      "inputs": [],
      "name": "owner",
      "outputs": [
        {
          "internalType": "address",
          "name": "",
          "type": "address"
        }
      ],
      "stateMutability": "view",
      "type": "function"
    },
    {
      "inputs": [],
      "name": "renounceOwnership",
      "outputs": [],
      "stateMutability": "nonpayable",
      "type": "function"
    },
    {
      "inputs": [
        {
          "internalType": "address",
          "name": "from",
          "type": "address"
        },
        {
          "internalType": "address",
          "name": "to",
          "type": "address"
        },
        {
          "internalType": "uint256[]",
          "name": "ids",
          "type": "uint256[]"
        },
        {
          "internalType": "uint256[]",
          "name": "amounts",
          "type": "uint256[]"
        },
        {
          "internalType": "bytes",
          "name": "data",
          "type": "bytes"
        }
      ],
      "name": "safeBatchTransferFrom",
      "outputs": [],
      "stateMutability": "nonpayable",
      "type": "function"
    },
    {
      "inputs": [
        {
          "internalType": "address",
          "name": "from",
          "type": "address"
        },
        {
          "internalType": "address",
          "name": "to",
          "type": "address"
        },
        {
          "internalType": "uint256",
          "name": "id",
          "type": "uint256"
        },
        {
          "internalType": "uint256",
          "name": "amount",
          "type": "uint256"
        },
        {
          "internalType": "bytes",
          "name": "data",
          "type": "bytes"
        }
      ],
      "name": "safeTransferFrom",
      "outputs": [],
      "stateMutability": "nonpayable",
      "type": "function"
    },
    {
      "inputs": [
        {
          "internalType": "address",
          "name": "operator",
          "type": "address"
        },
        {
          "internalType": "bool",
          "name": "approved",
          "type": "bool"
        }
      ],
      "name": "setApprovalForAll",
      "outputs": [],
      "stateMutability": "nonpayable",
      "type": "function"
    },
    {
      "inputs": [
        {
          "internalType": "bytes4",
          "name": "interfaceId",
          "type": "bytes4"
        }
      ],
      "name": "supportsInterface",
      "outputs": [
        {
          "internalType": "bool",
          "name": "",
          "type": "bool"
        }
      ],
      "stateMutability": "view",
      "type": "function"
    },
    {
      "inputs": [],
      "name": "symbol",
      "outputs": [
        {
          "internalType": "string",
          "name": "",
          "type": "string"
        }
      ],
      "stateMutability": "view",
      "type": "function"
    },
    {
      "inputs": [
        {
          "internalType": "address",
          "name": "newOwner",
          "type": "address"
        }
      ],
      "name": "transferOwnership",
      "outputs": [],
      "stateMutability": "nonpayable",
      "type": "function"
    },
    {
      "inputs": [
        {
          "internalType": "uint256",
          "name": "_tokenid",
          "type": "uint256"
        }
      ],
      "name": "uri",
      "outputs": [
        {
          "internalType": "string",
          "name": "",
          "type": "string"
        }
      ],
      "stateMutability": "pure",
      "type": "function"
    }
  ],
  "bytecode": "0x60806040523480156200001157600080fd5b50604051620039b2380380620039b2833981810160405281019062000037919062000325565b6040518060800160405280604d815260200162003965604d91396200006281620000af60201b60201c565b506200008362000077620000c460201b60201c565b620000cc60201b60201c565b8160049081620000949190620005f5565b508060059081620000a69190620005f5565b505050620006dc565b8060029081620000c09190620005f5565b5050565b600033905090565b6000600360009054906101000a900473ffffffffffffffffffffffffffffffffffffffff16905081600360006101000a81548173ffffffffffffffffffffffffffffffffffffffff021916908373ffffffffffffffffffffffffffffffffffffffff1602179055508173ffffffffffffffffffffffffffffffffffffffff168173ffffffffffffffffffffffffffffffffffffffff167f8be0079c531659141344cd1fd0a4f28419497f9722a3daafe3b4186f6b6457e060405160405180910390a35050565b6000604051905090565b600080fd5b600080fd5b600080fd5b600080fd5b6000601f19601f8301169050919050565b7f4e487b7100000000000000000000000000000000000000000000000000000000600052604160045260246000fd5b620001fb82620001b0565b810181811067ffffffffffffffff821117156200021d576200021c620001c1565b5b80604052505050565b60006200023262000192565b9050620002408282620001f0565b919050565b600067ffffffffffffffff821115620002635762000262620001c1565b5b6200026e82620001b0565b9050602081019050919050565b60005b838110156200029b5780820151818401526020810190506200027e565b60008484015250505050565b6000620002be620002b88462000245565b62000226565b905082815260208101848484011115620002dd57620002dc620001ab565b5b620002ea8482856200027b565b509392505050565b600082601f8301126200030a5762000309620001a6565b5b81516200031c848260208601620002a7565b91505092915050565b600080604083850312156200033f576200033e6200019c565b5b600083015167ffffffffffffffff81111562000360576200035f620001a1565b5b6200036e85828601620002f2565b925050602083015167ffffffffffffffff811115620003925762000391620001a1565b5b620003a085828601620002f2565b9150509250929050565b600081519050919050565b7f4e487b7100000000000000000000000000000000000000000000000000000000600052602260045260246000fd5b60006002820490506001821680620003fd57607f821691505b602082108103620004135762000412620003b5565b5b50919050565b60008190508160005260206000209050919050565b60006020601f8301049050919050565b600082821b905092915050565b6000600883026200047d7fffffffffffffffffffffffffffffffffffffffffffffffffffffffffffffffff826200043e565b6200048986836200043e565b95508019841693508086168417925050509392505050565b6000819050919050565b6000819050919050565b6000620004d6620004d0620004ca84620004a1565b620004ab565b620004a1565b9050919050565b6000819050919050565b620004f283620004b5565b6200050a6200050182620004dd565b8484546200044b565b825550505050565b600090565b6200052162000512565b6200052e818484620004e7565b505050565b5b8181101562000556576200054a60008262000517565b60018101905062000534565b5050565b601f821115620005a5576200056f8162000419565b6200057a846200042e565b810160208510156200058a578190505b620005a262000599856200042e565b83018262000533565b50505b505050565b600082821c905092915050565b6000620005ca60001984600802620005aa565b1980831691505092915050565b6000620005e58383620005b7565b9150826002028217905092915050565b6200060082620003aa565b67ffffffffffffffff8111156200061c576200061b620001c1565b5b620006288254620003e4565b620006358282856200055a565b600060209050601f8311600181146200066d576000841562000658578287015190505b620006648582620005d7565b865550620006d4565b601f1984166200067d8662000419565b60005b82811015620006a75784890151825560018201915060208501945060208101905062000680565b86831015620006c75784890151620006c3601f891682620005b7565b8355505b6001600288020188555050505b505050505050565b61327980620006ec6000396000f3fe608060405234801561001057600080fd5b50600436106100f45760003560e01c8063715018a611610097578063ab5338ea11610066578063ab5338ea14610273578063e985e9c5146102a3578063f242432a146102d3578063f2fde38b146102ef576100f4565b8063715018a6146102115780638da5cb5b1461021b57806395d89b4114610239578063a22cb46514610257576100f4565b80630e89341c116100d35780630e89341c14610177578063174f57af146101a75780632eb2c2d6146101c55780634e1273f4146101e1576100f4565b8062fdd58e146100f957806301ffc9a71461012957806306fdde0314610159575b600080fd5b610113600480360381019061010e9190611d4c565b61030b565b6040516101209190611d9b565b60405180910390f35b610143600480360381019061013e9190611e0e565b6103d3565b6040516101509190611e56565b60405180910390f35b6101616104b5565b60405161016e9190611f01565b60405180910390f35b610191600480360381019061018c9190611f23565b610547565b60405161019e9190611f01565b60405180910390f35b6101af610578565b6040516101bc9190611e56565b60405180910390f35b6101df60048036038101906101da919061214d565b610656565b005b6101fb60048036038101906101f691906122df565b6106f7565b6040516102089190612415565b60405180910390f35b610219610810565b005b610223610824565b6040516102309190612446565b60405180910390f35b61024161084e565b60405161024e9190611f01565b60405180910390f35b610271600480360381019061026c919061248d565b6108e0565b005b61028d60048036038101906102889190611d4c565b6108f6565b60405161029a9190611e56565b60405180910390f35b6102bd60048036038101906102b891906124cd565b61095e565b6040516102ca9190611e56565b60405180910390f35b6102ed60048036038101906102e8919061250d565b6109f2565b005b610309600480360381019061030491906125a4565b610a93565b005b60008073ffffffffffffffffffffffffffffffffffffffff168373ffffffffffffffffffffffffffffffffffffffff160361037b576040517f08c379a000000000000000000000000000000000000000000000000000000000815260040161037290612643565b60405180910390fd5b60008083815260200190815260200160002060008473ffffffffffffffffffffffffffffffffffffffff1673ffffffffffffffffffffffffffffffffffffffff16815260200190815260200160002054905092915050565b60007fd9b67a26000000000000000000000000000000000000000000000000000000007bffffffffffffffffffffffffffffffffffffffffffffffffffffffff1916827bffffffffffffffffffffffffffffffffffffffffffffffffffffffff1916148061049e57507f0e89341c000000000000000000000000000000000000000000000000000000007bffffffffffffffffffffffffffffffffffffffffffffffffffffffff1916827bffffffffffffffffffffffffffffffffffffffffffffffffffffffff1916145b806104ae57506104ad82610b16565b5b9050919050565b6060600480546104c490612692565b80601f01602080910402602001604051908101604052809291908181526020018280546104f090612692565b801561053d5780601f106105125761010080835404028352916020019161053d565b820191906000526020600020905b81548152906001019060200180831161052057829003601f168201915b5050505050905090565b606061055282610b80565b60405160200161056291906127e3565b6040516020818303038152906040529050919050565b6000806000600190505b600581116105ba5761059b610595610c4e565b826108f6565b6105a7578091506105ba565b80806105b29061283f565b915050610582565b506105de6105c6610c4e565b82600160405180602001604052806000815250610c56565b6001600660006105ec610c4e565b73ffffffffffffffffffffffffffffffffffffffff1673ffffffffffffffffffffffffffffffffffffffff168152602001908152602001600020600083815260200190815260200160002060006101000a81548160ff021916908315150217905550600191505090565b61065e610c4e565b73ffffffffffffffffffffffffffffffffffffffff168573ffffffffffffffffffffffffffffffffffffffff1614806106a457506106a38561069e610c4e565b61095e565b5b6106e3576040517f08c379a00000000000000000000000000000000000000000000000000000000081526004016106da906128f9565b60405180910390fd5b6106f08585858585610e06565b5050505050565b6060815183511461073d576040517f08c379a00000000000000000000000000000000000000000000000000000000081526004016107349061298b565b60405180910390fd5b6000835167ffffffffffffffff81111561075a57610759611f55565b5b6040519080825280602002602001820160405280156107885781602001602082028036833780820191505090505b50905060005b8451811015610805576107d58582815181106107ad576107ac6129ab565b5b60200260200101518583815181106107c8576107c76129ab565b5b602002602001015161030b565b8282815181106107e8576107e76129ab565b5b602002602001018181525050806107fe9061283f565b905061078e565b508091505092915050565b610818611130565b61082260006111ae565b565b6000600360009054906101000a900473ffffffffffffffffffffffffffffffffffffffff16905090565b60606005805461085d90612692565b80601f016020809104026020016040519081016040528092919081815260200182805461088990612692565b80156108d65780601f106108ab576101008083540402835291602001916108d6565b820191906000526020600020905b8154815290600101906020018083116108b957829003601f168201915b5050505050905090565b6108f26108eb610c4e565b8383611274565b5050565b6000600660008473ffffffffffffffffffffffffffffffffffffffff1673ffffffffffffffffffffffffffffffffffffffff168152602001908152602001600020600083815260200190815260200160002060009054906101000a900460ff16905092915050565b6000600160008473ffffffffffffffffffffffffffffffffffffffff1673ffffffffffffffffffffffffffffffffffffffff16815260200190815260200160002060008373ffffffffffffffffffffffffffffffffffffffff1673ffffffffffffffffffffffffffffffffffffffff16815260200190815260200160002060009054906101000a900460ff16905092915050565b6109fa610c4e565b73ffffffffffffffffffffffffffffffffffffffff168573ffffffffffffffffffffffffffffffffffffffff161480610a405750610a3f85610a3a610c4e565b61095e565b5b610a7f576040517f08c379a0000000000000000000000000000000000000000000000000000000008152600401610a76906128f9565b60405180910390fd5b610a8c85858585856113e0565b5050505050565b610a9b611130565b600073ffffffffffffffffffffffffffffffffffffffff168173ffffffffffffffffffffffffffffffffffffffff1603610b0a576040517f08c379a0000000000000000000000000000000000000000000000000000000008152600401610b0190612a4c565b60405180910390fd5b610b13816111ae565b50565b60007f01ffc9a7000000000000000000000000000000000000000000000000000000007bffffffffffffffffffffffffffffffffffffffffffffffffffffffff1916827bffffffffffffffffffffffffffffffffffffffffffffffffffffffff1916149050919050565b606060006001610b8f84611684565b01905060008167ffffffffffffffff811115610bae57610bad611f55565b5b6040519080825280601f01601f191660200182016040528015610be05781602001600182028036833780820191505090505b509050600082602001820190505b600115610c43578080600190039150507f3031323334353637383961626364656600000000000000000000000000000000600a86061a8153600a8581610c3757610c36612a6c565b5b04945060008503610bee575b819350505050919050565b600033905090565b600073ffffffffffffffffffffffffffffffffffffffff168473ffffffffffffffffffffffffffffffffffffffff1603610cc5576040517f08c379a0000000000000000000000000000000000000000000000000000000008152600401610cbc90612b0d565b60405180910390fd5b6000610ccf610c4e565b90506000610cdc856117d7565b90506000610ce9856117d7565b9050610cfa83600089858589611851565b8460008088815260200190815260200160002060008973ffffffffffffffffffffffffffffffffffffffff1673ffffffffffffffffffffffffffffffffffffffff1681526020019081526020016000206000828254610d599190612b2d565b925050819055508673ffffffffffffffffffffffffffffffffffffffff16600073ffffffffffffffffffffffffffffffffffffffff168473ffffffffffffffffffffffffffffffffffffffff167fc3d58168c5ae7397731d063d5bbf3d657854427343f4c083240f7aacaa2d0f628989604051610dd7929190612b61565b60405180910390a4610dee83600089858589611859565b610dfd83600089898989611861565b50505050505050565b8151835114610e4a576040517f08c379a0000000000000000000000000000000000000000000000000000000008152600401610e4190612bfc565b60405180910390fd5b600073ffffffffffffffffffffffffffffffffffffffff168473ffffffffffffffffffffffffffffffffffffffff1603610eb9576040517f08c379a0000000000000000000000000000000000000000000000000000000008152600401610eb090612c8e565b60405180910390fd5b6000610ec3610c4e565b9050610ece86611a38565b610edc818787878787611851565b60005b845181101561108d576000858281518110610efd57610efc6129ab565b5b602002602001015190506000858381518110610f1c57610f1b6129ab565b5b60200260200101519050600080600084815260200190815260200160002060008b73ffffffffffffffffffffffffffffffffffffffff1673ffffffffffffffffffffffffffffffffffffffff16815260200190815260200160002054905081811015610fbd576040517f08c379a0000000000000000000000000000000000000000000000000000000008152600401610fb490612d20565b60405180910390fd5b81810360008085815260200190815260200160002060008c73ffffffffffffffffffffffffffffffffffffffff1673ffffffffffffffffffffffffffffffffffffffff168152602001908152602001600020819055508160008085815260200190815260200160002060008b73ffffffffffffffffffffffffffffffffffffffff1673ffffffffffffffffffffffffffffffffffffffff16815260200190815260200160002060008282546110729190612b2d565b92505081905550505050806110869061283f565b9050610edf565b508473ffffffffffffffffffffffffffffffffffffffff168673ffffffffffffffffffffffffffffffffffffffff168273ffffffffffffffffffffffffffffffffffffffff167f4a39dc06d4c0dbc64b70af90fd698a233a518aa5d07e595d983b8c0526c8f7fb8787604051611104929190612d40565b60405180910390a461111a818787878787611859565b611128818787878787611aaa565b505050505050565b611138610c4e565b73ffffffffffffffffffffffffffffffffffffffff16611156610824565b73ffffffffffffffffffffffffffffffffffffffff16146111ac576040517f08c379a00000000000000000000000000000000000000000000000000000000081526004016111a390612dc3565b60405180910390fd5b565b6000600360009054906101000a900473ffffffffffffffffffffffffffffffffffffffff16905081600360006101000a81548173ffffffffffffffffffffffffffffffffffffffff021916908373ffffffffffffffffffffffffffffffffffffffff1602179055508173ffffffffffffffffffffffffffffffffffffffff168173ffffffffffffffffffffffffffffffffffffffff167f8be0079c531659141344cd1fd0a4f28419497f9722a3daafe3b4186f6b6457e060405160405180910390a35050565b8173ffffffffffffffffffffffffffffffffffffffff168373ffffffffffffffffffffffffffffffffffffffff16036112e2576040517f08c379a00000000000000000000000000000000000000000000000000000000081526004016112d990612e55565b60405180910390fd5b80600160008573ffffffffffffffffffffffffffffffffffffffff1673ffffffffffffffffffffffffffffffffffffffff16815260200190815260200160002060008473ffffffffffffffffffffffffffffffffffffffff1673ffffffffffffffffffffffffffffffffffffffff16815260200190815260200160002060006101000a81548160ff0219169083151502179055508173ffffffffffffffffffffffffffffffffffffffff168373ffffffffffffffffffffffffffffffffffffffff167f17307eab39ab6107e8899845ad3d59bd9653f200f220920489ca2b5937696c31836040516113d39190611e56565b60405180910390a3505050565b600073ffffffffffffffffffffffffffffffffffffffff168473ffffffffffffffffffffffffffffffffffffffff160361144f576040517f08c379a000000000000000000000000000000000000000000000000000000000815260040161144690612c8e565b60405180910390fd5b6000611459610c4e565b90506000611466856117d7565b90506000611473856117d7565b905061147e88611a38565b61148c838989858589611851565b600080600088815260200190815260200160002060008a73ffffffffffffffffffffffffffffffffffffffff1673ffffffffffffffffffffffffffffffffffffffff16815260200190815260200160002054905085811015611523576040517f08c379a000000000000000000000000000000000000000000000000000000000815260040161151a90612d20565b60405180910390fd5b85810360008089815260200190815260200160002060008b73ffffffffffffffffffffffffffffffffffffffff1673ffffffffffffffffffffffffffffffffffffffff168152602001908152602001600020819055508560008089815260200190815260200160002060008a73ffffffffffffffffffffffffffffffffffffffff1673ffffffffffffffffffffffffffffffffffffffff16815260200190815260200160002060008282546115d89190612b2d565b925050819055508773ffffffffffffffffffffffffffffffffffffffff168973ffffffffffffffffffffffffffffffffffffffff168573ffffffffffffffffffffffffffffffffffffffff167fc3d58168c5ae7397731d063d5bbf3d657854427343f4c083240f7aacaa2d0f628a8a604051611655929190612b61565b60405180910390a461166b848a8a86868a611859565b611679848a8a8a8a8a611861565b505050505050505050565b600080600090507a184f03e93ff9f4daa797ed6e38ed64bf6a1f01000000000000000083106116e2577a184f03e93ff9f4daa797ed6e38ed64bf6a1f01000000000000000083816116d8576116d7612a6c565b5b0492506040810190505b6d04ee2d6d415b85acef8100000000831061171f576d04ee2d6d415b85acef8100000000838161171557611714612a6c565b5b0492506020810190505b662386f26fc10000831061174e57662386f26fc10000838161174457611743612a6c565b5b0492506010810190505b6305f5e1008310611777576305f5e100838161176d5761176c612a6c565b5b0492506008810190505b612710831061179c57612710838161179257611791612a6c565b5b0492506004810190505b606483106117bf57606483816117b5576117b4612a6c565b5b0492506002810190505b600a83106117ce576001810190505b80915050919050565b60606000600167ffffffffffffffff8111156117f6576117f5611f55565b5b6040519080825280602002602001820160405280156118245781602001602082028036833780820191505090505b509050828160008151811061183c5761183b6129ab565b5b60200260200101818152505080915050919050565b505050505050565b505050505050565b6118808473ffffffffffffffffffffffffffffffffffffffff16611c81565b15611a30578373ffffffffffffffffffffffffffffffffffffffff1663f23a6e6187878686866040518663ffffffff1660e01b81526004016118c6959493929190612eca565b6020604051808303816000875af192505050801561190257506040513d601f19601f820116820180604052508101906118ff9190612f39565b60015b6119a75761190e612f73565b806308c379a00361196a5750611922612f95565b8061192d575061196c565b806040517f08c379a00000000000000000000000000000000000000000000000000000000081526004016119619190611f01565b60405180910390fd5b505b6040517f08c379a000000000000000000000000000000000000000000000000000000000815260040161199e90613097565b60405180910390fd5b63f23a6e6160e01b7bffffffffffffffffffffffffffffffffffffffffffffffffffffffff1916817bffffffffffffffffffffffffffffffffffffffffffffffffffffffff191614611a2e576040517f08c379a0000000000000000000000000000000000000000000000000000000008152600401611a2590613129565b60405180910390fd5b505b505050505050565b600073ffffffffffffffffffffffffffffffffffffffff168173ffffffffffffffffffffffffffffffffffffffff1614611aa7576040517f08c379a0000000000000000000000000000000000000000000000000000000008152600401611a9e906131bb565b60405180910390fd5b50565b611ac98473ffffffffffffffffffffffffffffffffffffffff16611c81565b15611c79578373ffffffffffffffffffffffffffffffffffffffff1663bc197c8187878686866040518663ffffffff1660e01b8152600401611b0f9594939291906131db565b6020604051808303816000875af1925050508015611b4b57506040513d601f19601f82011682018060405250810190611b489190612f39565b60015b611bf057611b57612f73565b806308c379a003611bb35750611b6b612f95565b80611b765750611bb5565b806040517f08c379a0000000000000000000000000000000000000000000000000000000008152600401611baa9190611f01565b60405180910390fd5b505b6040517f08c379a0000000000000000000000000000000000000000000000000000000008152600401611be790613097565b60405180910390fd5b63bc197c8160e01b7bffffffffffffffffffffffffffffffffffffffffffffffffffffffff1916817bffffffffffffffffffffffffffffffffffffffffffffffffffffffff191614611c77576040517f08c379a0000000000000000000000000000000000000000000000000000000008152600401611c6e90613129565b60405180910390fd5b505b505050505050565b6000808273ffffffffffffffffffffffffffffffffffffffff163b119050919050565b6000604051905090565b600080fd5b600080fd5b600073ffffffffffffffffffffffffffffffffffffffff82169050919050565b6000611ce382611cb8565b9050919050565b611cf381611cd8565b8114611cfe57600080fd5b50565b600081359050611d1081611cea565b92915050565b6000819050919050565b611d2981611d16565b8114611d3457600080fd5b50565b600081359050611d4681611d20565b92915050565b60008060408385031215611d6357611d62611cae565b5b6000611d7185828601611d01565b9250506020611d8285828601611d37565b9150509250929050565b611d9581611d16565b82525050565b6000602082019050611db06000830184611d8c565b92915050565b60007fffffffff0000000000000000000000000000000000000000000000000000000082169050919050565b611deb81611db6565b8114611df657600080fd5b50565b600081359050611e0881611de2565b92915050565b600060208284031215611e2457611e23611cae565b5b6000611e3284828501611df9565b91505092915050565b60008115159050919050565b611e5081611e3b565b82525050565b6000602082019050611e6b6000830184611e47565b92915050565b600081519050919050565b600082825260208201905092915050565b60005b83811015611eab578082015181840152602081019050611e90565b60008484015250505050565b6000601f19601f8301169050919050565b6000611ed382611e71565b611edd8185611e7c565b9350611eed818560208601611e8d565b611ef681611eb7565b840191505092915050565b60006020820190508181036000830152611f1b8184611ec8565b905092915050565b600060208284031215611f3957611f38611cae565b5b6000611f4784828501611d37565b91505092915050565b600080fd5b7f4e487b7100000000000000000000000000000000000000000000000000000000600052604160045260246000fd5b611f8d82611eb7565b810181811067ffffffffffffffff82111715611fac57611fab611f55565b5b80604052505050565b6000611fbf611ca4565b9050611fcb8282611f84565b919050565b600067ffffffffffffffff821115611feb57611fea611f55565b5b602082029050602081019050919050565b600080fd5b600061201461200f84611fd0565b611fb5565b9050808382526020820190506020840283018581111561203757612036611ffc565b5b835b81811015612060578061204c8882611d37565b845260208401935050602081019050612039565b5050509392505050565b600082601f83011261207f5761207e611f50565b5b813561208f848260208601612001565b91505092915050565b600080fd5b600067ffffffffffffffff8211156120b8576120b7611f55565b5b6120c182611eb7565b9050602081019050919050565b82818337600083830152505050565b60006120f06120eb8461209d565b611fb5565b90508281526020810184848401111561210c5761210b612098565b5b6121178482856120ce565b509392505050565b600082601f83011261213457612133611f50565b5b81356121448482602086016120dd565b91505092915050565b600080600080600060a0868803121561216957612168611cae565b5b600061217788828901611d01565b955050602061218888828901611d01565b945050604086013567ffffffffffffffff8111156121a9576121a8611cb3565b5b6121b58882890161206a565b935050606086013567ffffffffffffffff8111156121d6576121d5611cb3565b5b6121e28882890161206a565b925050608086013567ffffffffffffffff81111561220357612202611cb3565b5b61220f8882890161211f565b9150509295509295909350565b600067ffffffffffffffff82111561223757612236611f55565b5b602082029050602081019050919050565b600061225b6122568461221c565b611fb5565b9050808382526020820190506020840283018581111561227e5761227d611ffc565b5b835b818110156122a757806122938882611d01565b845260208401935050602081019050612280565b5050509392505050565b600082601f8301126122c6576122c5611f50565b5b81356122d6848260208601612248565b91505092915050565b600080604083850312156122f6576122f5611cae565b5b600083013567ffffffffffffffff81111561231457612313611cb3565b5b612320858286016122b1565b925050602083013567ffffffffffffffff81111561234157612340611cb3565b5b61234d8582860161206a565b9150509250929050565b600081519050919050565b600082825260208201905092915050565b6000819050602082019050919050565b61238c81611d16565b82525050565b600061239e8383612383565b60208301905092915050565b6000602082019050919050565b60006123c282612357565b6123cc8185612362565b93506123d783612373565b8060005b838110156124085781516123ef8882612392565b97506123fa836123aa565b9250506001810190506123db565b5085935050505092915050565b6000602082019050818103600083015261242f81846123b7565b905092915050565b61244081611cd8565b82525050565b600060208201905061245b6000830184612437565b92915050565b61246a81611e3b565b811461247557600080fd5b50565b60008135905061248781612461565b92915050565b600080604083850312156124a4576124a3611cae565b5b60006124b285828601611d01565b92505060206124c385828601612478565b9150509250929050565b600080604083850312156124e4576124e3611cae565b5b60006124f285828601611d01565b925050602061250385828601611d01565b9150509250929050565b600080600080600060a0868803121561252957612528611cae565b5b600061253788828901611d01565b955050602061254888828901611d01565b945050604061255988828901611d37565b935050606061256a88828901611d37565b925050608086013567ffffffffffffffff81111561258b5761258a611cb3565b5b6125978882890161211f565b9150509295509295909350565b6000602082840312156125ba576125b9611cae565b5b60006125c884828501611d01565b91505092915050565b7f455243313135353a2061646472657373207a65726f206973206e6f742061207660008201527f616c6964206f776e657200000000000000000000000000000000000000000000602082015250565b600061262d602a83611e7c565b9150612638826125d1565b604082019050919050565b6000602082019050818103600083015261265c81612620565b9050919050565b7f4e487b7100000000000000000000000000000000000000000000000000000000600052602260045260246000fd5b600060028204905060018216806126aa57607f821691505b6020821081036126bd576126bc612663565b5b50919050565b600081905092915050565b7f68747470733a2f2f697066732e696f2f697066732f516d56484662734e31697760008201527f50446d4b5a7455415257345744525352535462396f4d39456561536e3277566b60208201527f3579702f00000000000000000000000000000000000000000000000000000000604082015250565b60006127506044836126c3565b915061275b826126ce565b604482019050919050565b600061277182611e71565b61277b81856126c3565b935061278b818560208601611e8d565b80840191505092915050565b7f2e6a736f6e000000000000000000000000000000000000000000000000000000600082015250565b60006127cd6005836126c3565b91506127d882612797565b600582019050919050565b60006127ee82612743565b91506127fa8284612766565b9150612805826127c0565b915081905092915050565b7f4e487b7100000000000000000000000000000000000000000000000000000000600052601160045260246000fd5b600061284a82611d16565b91507fffffffffffffffffffffffffffffffffffffffffffffffffffffffffffffffff820361287c5761287b612810565b5b600182019050919050565b7f455243313135353a2063616c6c6572206973206e6f7420746f6b656e206f776e60008201527f6572206f7220617070726f766564000000000000000000000000000000000000602082015250565b60006128e3602e83611e7c565b91506128ee82612887565b604082019050919050565b60006020820190508181036000830152612912816128d6565b9050919050565b7f455243313135353a206163636f756e747320616e6420696473206c656e67746860008201527f206d69736d617463680000000000000000000000000000000000000000000000602082015250565b6000612975602983611e7c565b915061298082612919565b604082019050919050565b600060208201905081810360008301526129a481612968565b9050919050565b7f4e487b7100000000000000000000000000000000000000000000000000000000600052603260045260246000fd5b7f4f776e61626c653a206e6577206f776e657220697320746865207a65726f206160008201527f6464726573730000000000000000000000000000000000000000000000000000602082015250565b6000612a36602683611e7c565b9150612a41826129da565b604082019050919050565b60006020820190508181036000830152612a6581612a29565b9050919050565b7f4e487b7100000000000000000000000000000000000000000000000000000000600052601260045260246000fd5b7f455243313135353a206d696e7420746f20746865207a65726f2061646472657360008201527f7300000000000000000000000000000000000000000000000000000000000000602082015250565b6000612af7602183611e7c565b9150612b0282612a9b565b604082019050919050565b60006020820190508181036000830152612b2681612aea565b9050919050565b6000612b3882611d16565b9150612b4383611d16565b9250828201905080821115612b5b57612b5a612810565b5b92915050565b6000604082019050612b766000830185611d8c565b612b836020830184611d8c565b9392505050565b7f455243313135353a2069647320616e6420616d6f756e7473206c656e6774682060008201527f6d69736d61746368000000000000000000000000000000000000000000000000602082015250565b6000612be6602883611e7c565b9150612bf182612b8a565b604082019050919050565b60006020820190508181036000830152612c1581612bd9565b9050919050565b7f455243313135353a207472616e7366657220746f20746865207a65726f20616460008201527f6472657373000000000000000000000000000000000000000000000000000000602082015250565b6000612c78602583611e7c565b9150612c8382612c1c565b604082019050919050565b60006020820190508181036000830152612ca781612c6b565b9050919050565b7f455243313135353a20696e73756666696369656e742062616c616e636520666f60008201527f72207472616e7366657200000000000000000000000000000000000000000000602082015250565b6000612d0a602a83611e7c565b9150612d1582612cae565b604082019050919050565b60006020820190508181036000830152612d3981612cfd565b9050919050565b60006040820190508181036000830152612d5a81856123b7565b90508181036020830152612d6e81846123b7565b90509392505050565b7f4f776e61626c653a2063616c6c6572206973206e6f7420746865206f776e6572600082015250565b6000612dad602083611e7c565b9150612db882612d77565b602082019050919050565b60006020820190508181036000830152612ddc81612da0565b9050919050565b7f455243313135353a2073657474696e6720617070726f76616c2073746174757360008201527f20666f722073656c660000000000000000000000000000000000000000000000602082015250565b6000612e3f602983611e7c565b9150612e4a82612de3565b604082019050919050565b60006020820190508181036000830152612e6e81612e32565b9050919050565b600081519050919050565b600082825260208201905092915050565b6000612e9c82612e75565b612ea68185612e80565b9350612eb6818560208601611e8d565b612ebf81611eb7565b840191505092915050565b600060a082019050612edf6000830188612437565b612eec6020830187612437565b612ef96040830186611d8c565b612f066060830185611d8c565b8181036080830152612f188184612e91565b90509695505050505050565b600081519050612f3381611de2565b92915050565b600060208284031215612f4f57612f4e611cae565b5b6000612f5d84828501612f24565b91505092915050565b60008160e01c9050919050565b600060033d1115612f925760046000803e612f8f600051612f66565b90505b90565b600060443d1061302257612fa7611ca4565b60043d036004823e80513d602482011167ffffffffffffffff82111715612fcf575050613022565b808201805167ffffffffffffffff811115612fed5750505050613022565b80602083010160043d03850181111561300a575050505050613022565b61301982602001850186611f84565b82955050505050505b90565b7f455243313135353a207472616e7366657220746f206e6f6e2d4552433131353560008201527f526563656976657220696d706c656d656e746572000000000000000000000000602082015250565b6000613081603483611e7c565b915061308c82613025565b604082019050919050565b600060208201905081810360008301526130b081613074565b9050919050565b7f455243313135353a204552433131353552656365697665722072656a6563746560008201527f6420746f6b656e73000000000000000000000000000000000000000000000000602082015250565b6000613113602883611e7c565b915061311e826130b7565b604082019050919050565b6000602082019050818103600083015261314281613106565b9050919050565b7f536f756c426f756e64203a20546f6b656e206973204e4f4e205472616e73666560008201527f7261626c65000000000000000000000000000000000000000000000000000000602082015250565b60006131a5602583611e7c565b91506131b082613149565b604082019050919050565b600060208201905081810360008301526131d481613198565b9050919050565b600060a0820190506131f06000830188612437565b6131fd6020830187612437565b818103604083015261320f81866123b7565b9050818103606083015261322381856123b7565b905081810360808301526132378184612e91565b9050969550505050505056fea2646970667358221220e9d338a87a73a96a3dc54bfc6f86495ea98ef6be10dd6b1bf471c87a429bd6a564736f6c6343000811003368747470733a2f2f697066732e696f2f697066732f516d56484662734e31697750446d4b5a7455415257345744525352535462396f4d39456561536e3277566b3579702f7b69647d2e6a736f6e",
  "linkReferences": {},
  "deployedLinkReferences": {}
}