{
  "_format": "hh-sol-artifact-1",
  "contractName": "MoonInkMedals",
  "sourceName": "contracts/NFTs/SBRewards.sol",
  "abi": [
    {
      "inputs": [
        {
          "internalType": "string",
          "name": "_name",
          "type": "string"
        },
        {
          "internalType": "string",
          "name": "_symbol",
          "type": "string"
        }
      ],
      "stateMutability": "nonpayable",
      "type": "constructor"
    },
    {
      "anonymous": false,
      "inputs": [
        {
          "indexed": true,
          "internalType": "address",
          "name": "account",
          "type": "address"
        },
        {
          "indexed": true,
          "internalType": "address",
          "name": "operator",
          "type": "address"
        },
        {
          "indexed": false,
          "internalType": "bool",
          "name": "approved",
          "type": "bool"
        }
      ],
      "name": "ApprovalForAll",
      "type": "event"
    },
    {
      "anonymous": false,
      "inputs": [
        {
          "indexed": true,
          "internalType": "address",
          "name": "previousOwner",
          "type": "address"
        },
        {
          "indexed": true,
          "internalType": "address",
          "name": "newOwner",
          "type": "address"
        }
      ],
      "name": "OwnershipTransferred",
      "type": "event"
    },
    {
      "anonymous": false,
      "inputs": [
        {
          "indexed": true,
          "internalType": "address",
          "name": "operator",
          "type": "address"
        },
        {
          "indexed": true,
          "internalType": "address",
          "name": "from",
          "type": "address"
        },
        {
          "indexed": true,
          "internalType": "address",
          "name": "to",
          "type": "address"
        },
        {
          "indexed": false,
          "internalType": "uint256[]",
          "name": "ids",
          "type": "uint256[]"
        },
        {
          "indexed": false,
          "internalType": "uint256[]",
          "name": "values",
          "type": "uint256[]"
        }
      ],
      "name": "TransferBatch",
      "type": "event"
    },
    {
      "anonymous": false,
      "inputs": [
        {
          "indexed": true,
          "internalType": "address",
          "name": "operator",
          "type": "address"
        },
        {
          "indexed": true,
          "internalType": "address",
          "name": "from",
          "type": "address"
        },
        {
          "indexed": true,
          "internalType": "address",
          "name": "to",
          "type": "address"
        },
        {
          "indexed": false,
          "internalType": "uint256",
          "name": "id",
          "type": "uint256"
        },
        {
          "indexed": false,
          "internalType": "uint256",
          "name": "value",
          "type": "uint256"
        }
      ],
      "name": "TransferSingle",
      "type": "event"
    },
    {
      "anonymous": false,
      "inputs": [
        {
          "indexed": false,
          "internalType": "string",
          "name": "value",
          "type": "string"
        },
        {
          "indexed": true,
          "internalType": "uint256",
          "name": "id",
          "type": "uint256"
        }
      ],
      "name": "URI",
      "type": "event"
    },
    {
      "inputs": [
        {
          "internalType": "address",
          "name": "account",
          "type": "address"
        },
        {
          "internalType": "uint256",
          "name": "id",
          "type": "uint256"
        }
      ],
      "name": "balanceOf",
      "outputs": [
        {
          "internalType": "uint256",
          "name": "",
          "type": "uint256"
        }
      ],
      "stateMutability": "view",
      "type": "function"
    },
    {
      "inputs": [
        {
          "internalType": "address[]",
          "name": "accounts",
          "type": "address[]"
        },
        {
          "internalType": "uint256[]",
          "name": "ids",
          "type": "uint256[]"
        }
      ],
      "name": "balanceOfBatch",
      "outputs": [
        {
          "internalType": "uint256[]",
          "name": "",
          "type": "uint256[]"
        }
      ],
      "stateMutability": "view",
      "type": "function"
    },
    {
      "inputs": [
        {
          "internalType": "address",
          "name": "user",
          "type": "address"
        }
      ],
      "name": "getAllMinted",
      "outputs": [
        {
          "internalType": "bool[]",
          "name": "",
          "type": "bool[]"
        }
      ],
      "stateMutability": "nonpayable",
      "type": "function"
    },
    {
      "inputs": [
        {
          "internalType": "address",
          "name": "user",
          "type": "address"
        },
        {
          "internalType": "uint256",
          "name": "id",
          "type": "uint256"
        }
      ],
      "name": "getminted",
      "outputs": [
        {
          "internalType": "bool",
          "name": "",
          "type": "bool"
        }
      ],
      "stateMutability": "view",
      "type": "function"
    },
    {
      "inputs": [
        {
          "internalType": "address",
          "name": "account",
          "type": "address"
        },
        {
          "internalType": "address",
          "name": "operator",
          "type": "address"
        }
      ],
      "name": "isApprovedForAll",
      "outputs": [
        {
          "internalType": "bool",
          "name": "",
          "type": "bool"
        }
      ],
      "stateMutability": "view",
      "type": "function"
    },
    {
      "inputs": [],
      "name": "mintReward",
      "outputs": [
        {
          "internalType": "bool",
          "name": "mintResult",
          "type": "bool"
        }
      ],
      "stateMutability": "nonpayable",
      "type": "function"
    },
    {
      "inputs": [],
      "name": "name",
      "outputs": [
        {
          "internalType": "string",
          "name": "",
          "type": "string"
        }
      ],
      "stateMutability": "view",
      "type": "function"
    },
    {
      "inputs": [],
      "name": "owner",
      "outputs": [
        {
          "internalType": "address",
          "name": "",
          "type": "address"
        }
      ],
      "stateMutability": "view",
      "type": "function"
    },
    {
      "inputs": [],
      "name": "renounceOwnership",
      "outputs": [],
      "stateMutability": "nonpayable",
      "type": "function"
    },
    {
      "inputs": [
        {
          "internalType": "address",
          "name": "from",
          "type": "address"
        },
        {
          "internalType": "address",
          "name": "to",
          "type": "address"
        },
        {
          "internalType": "uint256[]",
          "name": "ids",
          "type": "uint256[]"
        },
        {
          "internalType": "uint256[]",
          "name": "amounts",
          "type": "uint256[]"
        },
        {
          "internalType": "bytes",
          "name": "data",
          "type": "bytes"
        }
      ],
      "name": "safeBatchTransferFrom",
      "outputs": [],
      "stateMutability": "nonpayable",
      "type": "function"
    },
    {
      "inputs": [
        {
          "internalType": "address",
          "name": "from",
          "type": "address"
        },
        {
          "internalType": "address",
          "name": "to",
          "type": "address"
        },
        {
          "internalType": "uint256",
          "name": "id",
          "type": "uint256"
        },
        {
          "internalType": "uint256",
          "name": "amount",
          "type": "uint256"
        },
        {
          "internalType": "bytes",
          "name": "data",
          "type": "bytes"
        }
      ],
      "name": "safeTransferFrom",
      "outputs": [],
      "stateMutability": "nonpayable",
      "type": "function"
    },
    {
      "inputs": [
        {
          "internalType": "address",
          "name": "operator",
          "type": "address"
        },
        {
          "internalType": "bool",
          "name": "approved",
          "type": "bool"
        }
      ],
      "name": "setApprovalForAll",
      "outputs": [],
      "stateMutability": "nonpayable",
      "type": "function"
    },
    {
      "inputs": [
        {
          "internalType": "bytes4",
          "name": "interfaceId",
          "type": "bytes4"
        }
      ],
      "name": "supportsInterface",
      "outputs": [
        {
          "internalType": "bool",
          "name": "",
          "type": "bool"
        }
      ],
      "stateMutability": "view",
      "type": "function"
    },
    {
      "inputs": [],
      "name": "symbol",
      "outputs": [
        {
          "internalType": "string",
          "name": "",
          "type": "string"
        }
      ],
      "stateMutability": "view",
      "type": "function"
    },
    {
      "inputs": [
        {
          "internalType": "address",
          "name": "newOwner",
          "type": "address"
        }
      ],
      "name": "transferOwnership",
      "outputs": [],
      "stateMutability": "nonpayable",
      "type": "function"
    },
    {
      "inputs": [
        {
          "internalType": "uint256",
          "name": "_tokenid",
          "type": "uint256"
        }
      ],
      "name": "uri",
      "outputs": [
        {
          "internalType": "string",
          "name": "",
          "type": "string"
        }
      ],
      "stateMutability": "pure",
      "type": "function"
    }
  ],
  "bytecode": "0x60806040523480156200001157600080fd5b5060405162003cbf38038062003cbf833981810160405281019062000037919062000325565b6040518060800160405280604d815260200162003c72604d91396200006281620000af60201b60201c565b506200008362000077620000c460201b60201c565b620000cc60201b60201c565b8160049081620000949190620005f5565b508060059081620000a69190620005f5565b505050620006dc565b8060029081620000c09190620005f5565b5050565b600033905090565b6000600360009054906101000a900473ffffffffffffffffffffffffffffffffffffffff16905081600360006101000a81548173ffffffffffffffffffffffffffffffffffffffff021916908373ffffffffffffffffffffffffffffffffffffffff1602179055508173ffffffffffffffffffffffffffffffffffffffff168173ffffffffffffffffffffffffffffffffffffffff167f8be0079c531659141344cd1fd0a4f28419497f9722a3daafe3b4186f6b6457e060405160405180910390a35050565b6000604051905090565b600080fd5b600080fd5b600080fd5b600080fd5b6000601f19601f8301169050919050565b7f4e487b7100000000000000000000000000000000000000000000000000000000600052604160045260246000fd5b620001fb82620001b0565b810181811067ffffffffffffffff821117156200021d576200021c620001c1565b5b80604052505050565b60006200023262000192565b9050620002408282620001f0565b919050565b600067ffffffffffffffff821115620002635762000262620001c1565b5b6200026e82620001b0565b9050602081019050919050565b60005b838110156200029b5780820151818401526020810190506200027e565b60008484015250505050565b6000620002be620002b88462000245565b62000226565b905082815260208101848484011115620002dd57620002dc620001ab565b5b620002ea8482856200027b565b509392505050565b600082601f8301126200030a5762000309620001a6565b5b81516200031c848260208601620002a7565b91505092915050565b600080604083850312156200033f576200033e6200019c565b5b600083015167ffffffffffffffff81111562000360576200035f620001a1565b5b6200036e85828601620002f2565b925050602083015167ffffffffffffffff811115620003925762000391620001a1565b5b620003a085828601620002f2565b9150509250929050565b600081519050919050565b7f4e487b7100000000000000000000000000000000000000000000000000000000600052602260045260246000fd5b60006002820490506001821680620003fd57607f821691505b602082108103620004135762000412620003b5565b5b50919050565b60008190508160005260206000209050919050565b60006020601f8301049050919050565b600082821b905092915050565b6000600883026200047d7fffffffffffffffffffffffffffffffffffffffffffffffffffffffffffffffff826200043e565b6200048986836200043e565b95508019841693508086168417925050509392505050565b6000819050919050565b6000819050919050565b6000620004d6620004d0620004ca84620004a1565b620004ab565b620004a1565b9050919050565b6000819050919050565b620004f283620004b5565b6200050a6200050182620004dd565b8484546200044b565b825550505050565b600090565b6200052162000512565b6200052e818484620004e7565b505050565b5b8181101562000556576200054a60008262000517565b60018101905062000534565b5050565b601f821115620005a5576200056f8162000419565b6200057a846200042e565b810160208510156200058a578190505b620005a262000599856200042e565b83018262000533565b50505b505050565b600082821c905092915050565b6000620005ca60001984600802620005aa565b1980831691505092915050565b6000620005e58383620005b7565b9150826002028217905092915050565b6200060082620003aa565b67ffffffffffffffff8111156200061c576200061b620001c1565b5b620006288254620003e4565b620006358282856200055a565b600060209050601f8311600181146200066d576000841562000658578287015190505b620006648582620005d7565b865550620006d4565b601f1984166200067d8662000419565b60005b82811015620006a75784890151825560018201915060208501945060208101905062000680565b86831015620006c75784890151620006c3601f891682620005b7565b8355505b6001600288020188555050505b505050505050565b61358680620006ec6000396000f3fe608060405234801561001057600080fd5b50600436106100ff5760003560e01c80638da5cb5b11610097578063ab5338ea11610066578063ab5338ea146102ae578063e985e9c5146102de578063f242432a1461030e578063f2fde38b1461032a576100ff565b80638da5cb5b146102265780638dfc24741461024457806395d89b4114610274578063a22cb46514610292576100ff565b8063174f57af116100d3578063174f57af146101b25780632eb2c2d6146101d05780634e1273f4146101ec578063715018a61461021c576100ff565b8062fdd58e1461010457806301ffc9a71461013457806306fdde03146101645780630e89341c14610182575b600080fd5b61011e60048036038101906101199190611f0d565b610346565b60405161012b9190611f5c565b60405180910390f35b61014e60048036038101906101499190611fcf565b61040e565b60405161015b9190612017565b60405180910390f35b61016c6104f0565b60405161017991906120c2565b60405180910390f35b61019c600480360381019061019791906120e4565b610582565b6040516101a991906120c2565b60405180910390f35b6101ba6105b3565b6040516101c79190612017565b60405180910390f35b6101ea60048036038101906101e5919061230e565b6106d4565b005b610206600480360381019061020191906124a0565b610775565b60405161021391906125d6565b60405180910390f35b61022461088e565b005b61022e6108a2565b60405161023b9190612607565b60405180910390f35b61025e60048036038101906102599190612622565b6108cc565b60405161026b919061270d565b60405180910390f35b61027c610a0f565b60405161028991906120c2565b60405180910390f35b6102ac60048036038101906102a7919061275b565b610aa1565b005b6102c860048036038101906102c39190611f0d565b610ab7565b6040516102d59190612017565b60405180910390f35b6102f860048036038101906102f3919061279b565b610b1f565b6040516103059190612017565b60405180910390f35b610328600480360381019061032391906127db565b610bb3565b005b610344600480360381019061033f9190612622565b610c54565b005b60008073ffffffffffffffffffffffffffffffffffffffff168373ffffffffffffffffffffffffffffffffffffffff16036103b6576040517f08c379a00000000000000000000000000000000000000000000000000000000081526004016103ad906128e4565b60405180910390fd5b60008083815260200190815260200160002060008473ffffffffffffffffffffffffffffffffffffffff1673ffffffffffffffffffffffffffffffffffffffff16815260200190815260200160002054905092915050565b60007fd9b67a26000000000000000000000000000000000000000000000000000000007bffffffffffffffffffffffffffffffffffffffffffffffffffffffff1916827bffffffffffffffffffffffffffffffffffffffffffffffffffffffff191614806104d957507f0e89341c000000000000000000000000000000000000000000000000000000007bffffffffffffffffffffffffffffffffffffffffffffffffffffffff1916827bffffffffffffffffffffffffffffffffffffffffffffffffffffffff1916145b806104e957506104e882610cd7565b5b9050919050565b6060600480546104ff90612933565b80601f016020809104026020016040519081016040528092919081815260200182805461052b90612933565b80156105785780601f1061054d57610100808354040283529160200191610578565b820191906000526020600020905b81548152906001019060200180831161055b57829003601f168201915b5050505050905090565b606061058d82610d41565b60405160200161059d9190612a84565b6040516020818303038152906040529050919050565b6000806000600190505b600581116105f5576105d66105d0610e0f565b82610ab7565b6105e2578091506105f5565b80806105ed90612ae0565b9150506105bd565b5060008103610639576040517f08c379a000000000000000000000000000000000000000000000000000000000815260040161063090612b74565b60405180910390fd5b61065c610644610e0f565b82600160405180602001604052806000815250610e17565b60016007600061066a610e0f565b73ffffffffffffffffffffffffffffffffffffffff1673ffffffffffffffffffffffffffffffffffffffff168152602001908152602001600020600083815260200190815260200160002060006101000a81548160ff021916908315150217905550600191505090565b6106dc610e0f565b73ffffffffffffffffffffffffffffffffffffffff168573ffffffffffffffffffffffffffffffffffffffff16148061072257506107218561071c610e0f565b610b1f565b5b610761576040517f08c379a000000000000000000000000000000000000000000000000000000000815260040161075890612c06565b60405180910390fd5b61076e8585858585610fc7565b5050505050565b606081518351146107bb576040517f08c379a00000000000000000000000000000000000000000000000000000000081526004016107b290612c98565b60405180910390fd5b6000835167ffffffffffffffff8111156107d8576107d7612116565b5b6040519080825280602002602001820160405280156108065781602001602082028036833780820191505090505b50905060005b84518110156108835761085385828151811061082b5761082a612cb8565b5b602002602001015185838151811061084657610845612cb8565b5b6020026020010151610346565b82828151811061086657610865612cb8565b5b6020026020010181815250508061087c90612ae0565b905061080c565b508091505092915050565b6108966112f1565b6108a0600061136f565b565b6000600360009054906101000a900473ffffffffffffffffffffffffffffffffffffffff16905090565b60606000600190505b60058111610991576006600760008573ffffffffffffffffffffffffffffffffffffffff1673ffffffffffffffffffffffffffffffffffffffff168152602001908152602001600020600083815260200190815260200160002060009054906101000a900460ff1690806001815401808255809150506001900390600052602060002090602091828204019190069091909190916101000a81548160ff021916908315150217905550808061098990612ae0565b9150506108d5565b506006805480602002602001604051908101604052809291908181526020018280548015610a0357602002820191906000526020600020906000905b82829054906101000a900460ff161515815260200190600101906020826000010492830192600103820291508084116109cd5790505b50505050509050919050565b606060058054610a1e90612933565b80601f0160208091040260200160405190810160405280929190818152602001828054610a4a90612933565b8015610a975780601f10610a6c57610100808354040283529160200191610a97565b820191906000526020600020905b815481529060010190602001808311610a7a57829003601f168201915b5050505050905090565b610ab3610aac610e0f565b8383611435565b5050565b6000600760008473ffffffffffffffffffffffffffffffffffffffff1673ffffffffffffffffffffffffffffffffffffffff168152602001908152602001600020600083815260200190815260200160002060009054906101000a900460ff16905092915050565b6000600160008473ffffffffffffffffffffffffffffffffffffffff1673ffffffffffffffffffffffffffffffffffffffff16815260200190815260200160002060008373ffffffffffffffffffffffffffffffffffffffff1673ffffffffffffffffffffffffffffffffffffffff16815260200190815260200160002060009054906101000a900460ff16905092915050565b610bbb610e0f565b73ffffffffffffffffffffffffffffffffffffffff168573ffffffffffffffffffffffffffffffffffffffff161480610c015750610c0085610bfb610e0f565b610b1f565b5b610c40576040517f08c379a0000000000000000000000000000000000000000000000000000000008152600401610c3790612c06565b60405180910390fd5b610c4d85858585856115a1565b5050505050565b610c5c6112f1565b600073ffffffffffffffffffffffffffffffffffffffff168173ffffffffffffffffffffffffffffffffffffffff1603610ccb576040517f08c379a0000000000000000000000000000000000000000000000000000000008152600401610cc290612d59565b60405180910390fd5b610cd48161136f565b50565b60007f01ffc9a7000000000000000000000000000000000000000000000000000000007bffffffffffffffffffffffffffffffffffffffffffffffffffffffff1916827bffffffffffffffffffffffffffffffffffffffffffffffffffffffff1916149050919050565b606060006001610d5084611845565b01905060008167ffffffffffffffff811115610d6f57610d6e612116565b5b6040519080825280601f01601f191660200182016040528015610da15781602001600182028036833780820191505090505b509050600082602001820190505b600115610e04578080600190039150507f3031323334353637383961626364656600000000000000000000000000000000600a86061a8153600a8581610df857610df7612d79565b5b04945060008503610daf575b819350505050919050565b600033905090565b600073ffffffffffffffffffffffffffffffffffffffff168473ffffffffffffffffffffffffffffffffffffffff1603610e86576040517f08c379a0000000000000000000000000000000000000000000000000000000008152600401610e7d90612e1a565b60405180910390fd5b6000610e90610e0f565b90506000610e9d85611998565b90506000610eaa85611998565b9050610ebb83600089858589611a12565b8460008088815260200190815260200160002060008973ffffffffffffffffffffffffffffffffffffffff1673ffffffffffffffffffffffffffffffffffffffff1681526020019081526020016000206000828254610f1a9190612e3a565b925050819055508673ffffffffffffffffffffffffffffffffffffffff16600073ffffffffffffffffffffffffffffffffffffffff168473ffffffffffffffffffffffffffffffffffffffff167fc3d58168c5ae7397731d063d5bbf3d657854427343f4c083240f7aacaa2d0f628989604051610f98929190612e6e565b60405180910390a4610faf83600089858589611a1a565b610fbe83600089898989611a22565b50505050505050565b815183511461100b576040517f08c379a000000000000000000000000000000000000000000000000000000000815260040161100290612f09565b60405180910390fd5b600073ffffffffffffffffffffffffffffffffffffffff168473ffffffffffffffffffffffffffffffffffffffff160361107a576040517f08c379a000000000000000000000000000000000000000000000000000000000815260040161107190612f9b565b60405180910390fd5b6000611084610e0f565b905061108f86611bf9565b61109d818787878787611a12565b60005b845181101561124e5760008582815181106110be576110bd612cb8565b5b6020026020010151905060008583815181106110dd576110dc612cb8565b5b60200260200101519050600080600084815260200190815260200160002060008b73ffffffffffffffffffffffffffffffffffffffff1673ffffffffffffffffffffffffffffffffffffffff1681526020019081526020016000205490508181101561117e576040517f08c379a00000000000000000000000000000000000000000000000000000000081526004016111759061302d565b60405180910390fd5b81810360008085815260200190815260200160002060008c73ffffffffffffffffffffffffffffffffffffffff1673ffffffffffffffffffffffffffffffffffffffff168152602001908152602001600020819055508160008085815260200190815260200160002060008b73ffffffffffffffffffffffffffffffffffffffff1673ffffffffffffffffffffffffffffffffffffffff16815260200190815260200160002060008282546112339190612e3a565b925050819055505050508061124790612ae0565b90506110a0565b508473ffffffffffffffffffffffffffffffffffffffff168673ffffffffffffffffffffffffffffffffffffffff168273ffffffffffffffffffffffffffffffffffffffff167f4a39dc06d4c0dbc64b70af90fd698a233a518aa5d07e595d983b8c0526c8f7fb87876040516112c592919061304d565b60405180910390a46112db818787878787611a1a565b6112e9818787878787611c6b565b505050505050565b6112f9610e0f565b73ffffffffffffffffffffffffffffffffffffffff166113176108a2565b73ffffffffffffffffffffffffffffffffffffffff161461136d576040517f08c379a0000000000000000000000000000000000000000000000000000000008152600401611364906130d0565b60405180910390fd5b565b6000600360009054906101000a900473ffffffffffffffffffffffffffffffffffffffff16905081600360006101000a81548173ffffffffffffffffffffffffffffffffffffffff021916908373ffffffffffffffffffffffffffffffffffffffff1602179055508173ffffffffffffffffffffffffffffffffffffffff168173ffffffffffffffffffffffffffffffffffffffff167f8be0079c531659141344cd1fd0a4f28419497f9722a3daafe3b4186f6b6457e060405160405180910390a35050565b8173ffffffffffffffffffffffffffffffffffffffff168373ffffffffffffffffffffffffffffffffffffffff16036114a3576040517f08c379a000000000000000000000000000000000000000000000000000000000815260040161149a90613162565b60405180910390fd5b80600160008573ffffffffffffffffffffffffffffffffffffffff1673ffffffffffffffffffffffffffffffffffffffff16815260200190815260200160002060008473ffffffffffffffffffffffffffffffffffffffff1673ffffffffffffffffffffffffffffffffffffffff16815260200190815260200160002060006101000a81548160ff0219169083151502179055508173ffffffffffffffffffffffffffffffffffffffff168373ffffffffffffffffffffffffffffffffffffffff167f17307eab39ab6107e8899845ad3d59bd9653f200f220920489ca2b5937696c31836040516115949190612017565b60405180910390a3505050565b600073ffffffffffffffffffffffffffffffffffffffff168473ffffffffffffffffffffffffffffffffffffffff1603611610576040517f08c379a000000000000000000000000000000000000000000000000000000000815260040161160790612f9b565b60405180910390fd5b600061161a610e0f565b9050600061162785611998565b9050600061163485611998565b905061163f88611bf9565b61164d838989858589611a12565b600080600088815260200190815260200160002060008a73ffffffffffffffffffffffffffffffffffffffff1673ffffffffffffffffffffffffffffffffffffffff168152602001908152602001600020549050858110156116e4576040517f08c379a00000000000000000000000000000000000000000000000000000000081526004016116db9061302d565b60405180910390fd5b85810360008089815260200190815260200160002060008b73ffffffffffffffffffffffffffffffffffffffff1673ffffffffffffffffffffffffffffffffffffffff168152602001908152602001600020819055508560008089815260200190815260200160002060008a73ffffffffffffffffffffffffffffffffffffffff1673ffffffffffffffffffffffffffffffffffffffff16815260200190815260200160002060008282546117999190612e3a565b925050819055508773ffffffffffffffffffffffffffffffffffffffff168973ffffffffffffffffffffffffffffffffffffffff168573ffffffffffffffffffffffffffffffffffffffff167fc3d58168c5ae7397731d063d5bbf3d657854427343f4c083240f7aacaa2d0f628a8a604051611816929190612e6e565b60405180910390a461182c848a8a86868a611a1a565b61183a848a8a8a8a8a611a22565b505050505050505050565b600080600090507a184f03e93ff9f4daa797ed6e38ed64bf6a1f01000000000000000083106118a3577a184f03e93ff9f4daa797ed6e38ed64bf6a1f010000000000000000838161189957611898612d79565b5b0492506040810190505b6d04ee2d6d415b85acef810000000083106118e0576d04ee2d6d415b85acef810000000083816118d6576118d5612d79565b5b0492506020810190505b662386f26fc10000831061190f57662386f26fc10000838161190557611904612d79565b5b0492506010810190505b6305f5e1008310611938576305f5e100838161192e5761192d612d79565b5b0492506008810190505b612710831061195d57612710838161195357611952612d79565b5b0492506004810190505b60648310611980576064838161197657611975612d79565b5b0492506002810190505b600a831061198f576001810190505b80915050919050565b60606000600167ffffffffffffffff8111156119b7576119b6612116565b5b6040519080825280602002602001820160405280156119e55781602001602082028036833780820191505090505b50905082816000815181106119fd576119fc612cb8565b5b60200260200101818152505080915050919050565b505050505050565b505050505050565b611a418473ffffffffffffffffffffffffffffffffffffffff16611e42565b15611bf1578373ffffffffffffffffffffffffffffffffffffffff1663f23a6e6187878686866040518663ffffffff1660e01b8152600401611a879594939291906131d7565b6020604051808303816000875af1925050508015611ac357506040513d601f19601f82011682018060405250810190611ac09190613246565b60015b611b6857611acf613280565b806308c379a003611b2b5750611ae36132a2565b80611aee5750611b2d565b806040517f08c379a0000000000000000000000000000000000000000000000000000000008152600401611b2291906120c2565b60405180910390fd5b505b6040517f08c379a0000000000000000000000000000000000000000000000000000000008152600401611b5f906133a4565b60405180910390fd5b63f23a6e6160e01b7bffffffffffffffffffffffffffffffffffffffffffffffffffffffff1916817bffffffffffffffffffffffffffffffffffffffffffffffffffffffff191614611bef576040517f08c379a0000000000000000000000000000000000000000000000000000000008152600401611be690613436565b60405180910390fd5b505b505050505050565b600073ffffffffffffffffffffffffffffffffffffffff168173ffffffffffffffffffffffffffffffffffffffff1614611c68576040517f08c379a0000000000000000000000000000000000000000000000000000000008152600401611c5f906134c8565b60405180910390fd5b50565b611c8a8473ffffffffffffffffffffffffffffffffffffffff16611e42565b15611e3a578373ffffffffffffffffffffffffffffffffffffffff1663bc197c8187878686866040518663ffffffff1660e01b8152600401611cd09594939291906134e8565b6020604051808303816000875af1925050508015611d0c57506040513d601f19601f82011682018060405250810190611d099190613246565b60015b611db157611d18613280565b806308c379a003611d745750611d2c6132a2565b80611d375750611d76565b806040517f08c379a0000000000000000000000000000000000000000000000000000000008152600401611d6b91906120c2565b60405180910390fd5b505b6040517f08c379a0000000000000000000000000000000000000000000000000000000008152600401611da8906133a4565b60405180910390fd5b63bc197c8160e01b7bffffffffffffffffffffffffffffffffffffffffffffffffffffffff1916817bffffffffffffffffffffffffffffffffffffffffffffffffffffffff191614611e38576040517f08c379a0000000000000000000000000000000000000000000000000000000008152600401611e2f90613436565b60405180910390fd5b505b505050505050565b6000808273ffffffffffffffffffffffffffffffffffffffff163b119050919050565b6000604051905090565b600080fd5b600080fd5b600073ffffffffffffffffffffffffffffffffffffffff82169050919050565b6000611ea482611e79565b9050919050565b611eb481611e99565b8114611ebf57600080fd5b50565b600081359050611ed181611eab565b92915050565b6000819050919050565b611eea81611ed7565b8114611ef557600080fd5b50565b600081359050611f0781611ee1565b92915050565b60008060408385031215611f2457611f23611e6f565b5b6000611f3285828601611ec2565b9250506020611f4385828601611ef8565b9150509250929050565b611f5681611ed7565b82525050565b6000602082019050611f716000830184611f4d565b92915050565b60007fffffffff0000000000000000000000000000000000000000000000000000000082169050919050565b611fac81611f77565b8114611fb757600080fd5b50565b600081359050611fc981611fa3565b92915050565b600060208284031215611fe557611fe4611e6f565b5b6000611ff384828501611fba565b91505092915050565b60008115159050919050565b61201181611ffc565b82525050565b600060208201905061202c6000830184612008565b92915050565b600081519050919050565b600082825260208201905092915050565b60005b8381101561206c578082015181840152602081019050612051565b60008484015250505050565b6000601f19601f8301169050919050565b600061209482612032565b61209e818561203d565b93506120ae81856020860161204e565b6120b781612078565b840191505092915050565b600060208201905081810360008301526120dc8184612089565b905092915050565b6000602082840312156120fa576120f9611e6f565b5b600061210884828501611ef8565b91505092915050565b600080fd5b7f4e487b7100000000000000000000000000000000000000000000000000000000600052604160045260246000fd5b61214e82612078565b810181811067ffffffffffffffff8211171561216d5761216c612116565b5b80604052505050565b6000612180611e65565b905061218c8282612145565b919050565b600067ffffffffffffffff8211156121ac576121ab612116565b5b602082029050602081019050919050565b600080fd5b60006121d56121d084612191565b612176565b905080838252602082019050602084028301858111156121f8576121f76121bd565b5b835b81811015612221578061220d8882611ef8565b8452602084019350506020810190506121fa565b5050509392505050565b600082601f8301126122405761223f612111565b5b81356122508482602086016121c2565b91505092915050565b600080fd5b600067ffffffffffffffff82111561227957612278612116565b5b61228282612078565b9050602081019050919050565b82818337600083830152505050565b60006122b16122ac8461225e565b612176565b9050828152602081018484840111156122cd576122cc612259565b5b6122d884828561228f565b509392505050565b600082601f8301126122f5576122f4612111565b5b813561230584826020860161229e565b91505092915050565b600080600080600060a0868803121561232a57612329611e6f565b5b600061233888828901611ec2565b955050602061234988828901611ec2565b945050604086013567ffffffffffffffff81111561236a57612369611e74565b5b6123768882890161222b565b935050606086013567ffffffffffffffff81111561239757612396611e74565b5b6123a38882890161222b565b925050608086013567ffffffffffffffff8111156123c4576123c3611e74565b5b6123d0888289016122e0565b9150509295509295909350565b600067ffffffffffffffff8211156123f8576123f7612116565b5b602082029050602081019050919050565b600061241c612417846123dd565b612176565b9050808382526020820190506020840283018581111561243f5761243e6121bd565b5b835b8181101561246857806124548882611ec2565b845260208401935050602081019050612441565b5050509392505050565b600082601f83011261248757612486612111565b5b8135612497848260208601612409565b91505092915050565b600080604083850312156124b7576124b6611e6f565b5b600083013567ffffffffffffffff8111156124d5576124d4611e74565b5b6124e185828601612472565b925050602083013567ffffffffffffffff81111561250257612501611e74565b5b61250e8582860161222b565b9150509250929050565b600081519050919050565b600082825260208201905092915050565b6000819050602082019050919050565b61254d81611ed7565b82525050565b600061255f8383612544565b60208301905092915050565b6000602082019050919050565b600061258382612518565b61258d8185612523565b935061259883612534565b8060005b838110156125c95781516125b08882612553565b97506125bb8361256b565b92505060018101905061259c565b5085935050505092915050565b600060208201905081810360008301526125f08184612578565b905092915050565b61260181611e99565b82525050565b600060208201905061261c60008301846125f8565b92915050565b60006020828403121561263857612637611e6f565b5b600061264684828501611ec2565b91505092915050565b600081519050919050565b600082825260208201905092915050565b6000819050602082019050919050565b61268481611ffc565b82525050565b6000612696838361267b565b60208301905092915050565b6000602082019050919050565b60006126ba8261264f565b6126c4818561265a565b93506126cf8361266b565b8060005b838110156127005781516126e7888261268a565b97506126f2836126a2565b9250506001810190506126d3565b5085935050505092915050565b6000602082019050818103600083015261272781846126af565b905092915050565b61273881611ffc565b811461274357600080fd5b50565b6000813590506127558161272f565b92915050565b6000806040838503121561277257612771611e6f565b5b600061278085828601611ec2565b925050602061279185828601612746565b9150509250929050565b600080604083850312156127b2576127b1611e6f565b5b60006127c085828601611ec2565b92505060206127d185828601611ec2565b9150509250929050565b600080600080600060a086880312156127f7576127f6611e6f565b5b600061280588828901611ec2565b955050602061281688828901611ec2565b945050604061282788828901611ef8565b935050606061283888828901611ef8565b925050608086013567ffffffffffffffff81111561285957612858611e74565b5b612865888289016122e0565b9150509295509295909350565b7f455243313135353a2061646472657373207a65726f206973206e6f742061207660008201527f616c6964206f776e657200000000000000000000000000000000000000000000602082015250565b60006128ce602a8361203d565b91506128d982612872565b604082019050919050565b600060208201905081810360008301526128fd816128c1565b9050919050565b7f4e487b7100000000000000000000000000000000000000000000000000000000600052602260045260246000fd5b6000600282049050600182168061294b57607f821691505b60208210810361295e5761295d612904565b5b50919050565b600081905092915050565b7f68747470733a2f2f697066732e696f2f697066732f516d56484662734e31697760008201527f50446d4b5a7455415257345744525352535462396f4d39456561536e3277566b60208201527f3579702f00000000000000000000000000000000000000000000000000000000604082015250565b60006129f1604483612964565b91506129fc8261296f565b604482019050919050565b6000612a1282612032565b612a1c8185612964565b9350612a2c81856020860161204e565b80840191505092915050565b7f2e6a736f6e000000000000000000000000000000000000000000000000000000600082015250565b6000612a6e600583612964565b9150612a7982612a38565b600582019050919050565b6000612a8f826129e4565b9150612a9b8284612a07565b9150612aa682612a61565b915081905092915050565b7f4e487b7100000000000000000000000000000000000000000000000000000000600052601160045260246000fd5b6000612aeb82611ed7565b91507fffffffffffffffffffffffffffffffffffffffffffffffffffffffffffffffff8203612b1d57612b1c612ab1565b5b600182019050919050565b7f6d6178206d696e74207472696767726564000000000000000000000000000000600082015250565b6000612b5e60118361203d565b9150612b6982612b28565b602082019050919050565b60006020820190508181036000830152612b8d81612b51565b9050919050565b7f455243313135353a2063616c6c6572206973206e6f7420746f6b656e206f776e60008201527f6572206f7220617070726f766564000000000000000000000000000000000000602082015250565b6000612bf0602e8361203d565b9150612bfb82612b94565b604082019050919050565b60006020820190508181036000830152612c1f81612be3565b9050919050565b7f455243313135353a206163636f756e747320616e6420696473206c656e67746860008201527f206d69736d617463680000000000000000000000000000000000000000000000602082015250565b6000612c8260298361203d565b9150612c8d82612c26565b604082019050919050565b60006020820190508181036000830152612cb181612c75565b9050919050565b7f4e487b7100000000000000000000000000000000000000000000000000000000600052603260045260246000fd5b7f4f776e61626c653a206e6577206f776e657220697320746865207a65726f206160008201527f6464726573730000000000000000000000000000000000000000000000000000602082015250565b6000612d4360268361203d565b9150612d4e82612ce7565b604082019050919050565b60006020820190508181036000830152612d7281612d36565b9050919050565b7f4e487b7100000000000000000000000000000000000000000000000000000000600052601260045260246000fd5b7f455243313135353a206d696e7420746f20746865207a65726f2061646472657360008201527f7300000000000000000000000000000000000000000000000000000000000000602082015250565b6000612e0460218361203d565b9150612e0f82612da8565b604082019050919050565b60006020820190508181036000830152612e3381612df7565b9050919050565b6000612e4582611ed7565b9150612e5083611ed7565b9250828201905080821115612e6857612e67612ab1565b5b92915050565b6000604082019050612e836000830185611f4d565b612e906020830184611f4d565b9392505050565b7f455243313135353a2069647320616e6420616d6f756e7473206c656e6774682060008201527f6d69736d61746368000000000000000000000000000000000000000000000000602082015250565b6000612ef360288361203d565b9150612efe82612e97565b604082019050919050565b60006020820190508181036000830152612f2281612ee6565b9050919050565b7f455243313135353a207472616e7366657220746f20746865207a65726f20616460008201527f6472657373000000000000000000000000000000000000000000000000000000602082015250565b6000612f8560258361203d565b9150612f9082612f29565b604082019050919050565b60006020820190508181036000830152612fb481612f78565b9050919050565b7f455243313135353a20696e73756666696369656e742062616c616e636520666f60008201527f72207472616e7366657200000000000000000000000000000000000000000000602082015250565b6000613017602a8361203d565b915061302282612fbb565b604082019050919050565b600060208201905081810360008301526130468161300a565b9050919050565b600060408201905081810360008301526130678185612578565b9050818103602083015261307b8184612578565b90509392505050565b7f4f776e61626c653a2063616c6c6572206973206e6f7420746865206f776e6572600082015250565b60006130ba60208361203d565b91506130c582613084565b602082019050919050565b600060208201905081810360008301526130e9816130ad565b9050919050565b7f455243313135353a2073657474696e6720617070726f76616c2073746174757360008201527f20666f722073656c660000000000000000000000000000000000000000000000602082015250565b600061314c60298361203d565b9150613157826130f0565b604082019050919050565b6000602082019050818103600083015261317b8161313f565b9050919050565b600081519050919050565b600082825260208201905092915050565b60006131a982613182565b6131b3818561318d565b93506131c381856020860161204e565b6131cc81612078565b840191505092915050565b600060a0820190506131ec60008301886125f8565b6131f960208301876125f8565b6132066040830186611f4d565b6132136060830185611f4d565b8181036080830152613225818461319e565b90509695505050505050565b60008151905061324081611fa3565b92915050565b60006020828403121561325c5761325b611e6f565b5b600061326a84828501613231565b91505092915050565b60008160e01c9050919050565b600060033d111561329f5760046000803e61329c600051613273565b90505b90565b600060443d1061332f576132b4611e65565b60043d036004823e80513d602482011167ffffffffffffffff821117156132dc57505061332f565b808201805167ffffffffffffffff8111156132fa575050505061332f565b80602083010160043d03850181111561331757505050505061332f565b61332682602001850186612145565b82955050505050505b90565b7f455243313135353a207472616e7366657220746f206e6f6e2d4552433131353560008201527f526563656976657220696d706c656d656e746572000000000000000000000000602082015250565b600061338e60348361203d565b915061339982613332565b604082019050919050565b600060208201905081810360008301526133bd81613381565b9050919050565b7f455243313135353a204552433131353552656365697665722072656a6563746560008201527f6420746f6b656e73000000000000000000000000000000000000000000000000602082015250565b600061342060288361203d565b915061342b826133c4565b604082019050919050565b6000602082019050818103600083015261344f81613413565b9050919050565b7f536f756c426f756e64203a20546f6b656e206973204e4f4e205472616e73666560008201527f7261626c65000000000000000000000000000000000000000000000000000000602082015250565b60006134b260258361203d565b91506134bd82613456565b604082019050919050565b600060208201905081810360008301526134e1816134a5565b9050919050565b600060a0820190506134fd60008301886125f8565b61350a60208301876125f8565b818103604083015261351c8186612578565b905081810360608301526135308185612578565b90508181036080830152613544818461319e565b9050969550505050505056fea2646970667358221220f5421b798658eb70a61fec4ef89277e786526a4955c33d236cddb7442140209b64736f6c6343000811003368747470733a2f2f697066732e696f2f697066732f516d56484662734e31697750446d4b5a7455415257345744525352535462396f4d39456561536e3277566b3579702f7b69647d2e6a736f6e",
  "linkReferences": {},
  "deployedLinkReferences": {}
}