{
  "_format": "hh-sol-artifact-1",
  "contractName": "rewardTwo",
  "sourceName": "contracts/NFTs/rewardTwo.sol",
  "abi": [
    {
      "inputs": [],
      "stateMutability": "nonpayable",
      "type": "constructor"
    },
    {
      "anonymous": false,
      "inputs": [
        {
          "indexed": true,
          "internalType": "address",
          "name": "account",
          "type": "address"
        },
        {
          "indexed": true,
          "internalType": "address",
          "name": "operator",
          "type": "address"
        },
        {
          "indexed": false,
          "internalType": "bool",
          "name": "approved",
          "type": "bool"
        }
      ],
      "name": "ApprovalForAll",
      "type": "event"
    },
    {
      "anonymous": false,
      "inputs": [
        {
          "indexed": true,
          "internalType": "address",
          "name": "previousOwner",
          "type": "address"
        },
        {
          "indexed": true,
          "internalType": "address",
          "name": "newOwner",
          "type": "address"
        }
      ],
      "name": "OwnershipTransferred",
      "type": "event"
    },
    {
      "anonymous": false,
      "inputs": [
        {
          "indexed": true,
          "internalType": "address",
          "name": "operator",
          "type": "address"
        },
        {
          "indexed": true,
          "internalType": "address",
          "name": "from",
          "type": "address"
        },
        {
          "indexed": true,
          "internalType": "address",
          "name": "to",
          "type": "address"
        },
        {
          "indexed": false,
          "internalType": "uint256[]",
          "name": "ids",
          "type": "uint256[]"
        },
        {
          "indexed": false,
          "internalType": "uint256[]",
          "name": "values",
          "type": "uint256[]"
        }
      ],
      "name": "TransferBatch",
      "type": "event"
    },
    {
      "anonymous": false,
      "inputs": [
        {
          "indexed": true,
          "internalType": "address",
          "name": "operator",
          "type": "address"
        },
        {
          "indexed": true,
          "internalType": "address",
          "name": "from",
          "type": "address"
        },
        {
          "indexed": true,
          "internalType": "address",
          "name": "to",
          "type": "address"
        },
        {
          "indexed": false,
          "internalType": "uint256",
          "name": "id",
          "type": "uint256"
        },
        {
          "indexed": false,
          "internalType": "uint256",
          "name": "value",
          "type": "uint256"
        }
      ],
      "name": "TransferSingle",
      "type": "event"
    },
    {
      "anonymous": false,
      "inputs": [
        {
          "indexed": false,
          "internalType": "string",
          "name": "value",
          "type": "string"
        },
        {
          "indexed": true,
          "internalType": "uint256",
          "name": "id",
          "type": "uint256"
        }
      ],
      "name": "URI",
      "type": "event"
    },
    {
      "inputs": [
        {
          "internalType": "address",
          "name": "account",
          "type": "address"
        },
        {
          "internalType": "uint256",
          "name": "id",
          "type": "uint256"
        }
      ],
      "name": "balanceOf",
      "outputs": [
        {
          "internalType": "uint256",
          "name": "",
          "type": "uint256"
        }
      ],
      "stateMutability": "view",
      "type": "function"
    },
    {
      "inputs": [
        {
          "internalType": "address[]",
          "name": "accounts",
          "type": "address[]"
        },
        {
          "internalType": "uint256[]",
          "name": "ids",
          "type": "uint256[]"
        }
      ],
      "name": "balanceOfBatch",
      "outputs": [
        {
          "internalType": "uint256[]",
          "name": "",
          "type": "uint256[]"
        }
      ],
      "stateMutability": "view",
      "type": "function"
    },
    {
      "inputs": [
        {
          "internalType": "address",
          "name": "user",
          "type": "address"
        }
      ],
      "name": "getminted",
      "outputs": [
        {
          "internalType": "bool",
          "name": "",
          "type": "bool"
        }
      ],
      "stateMutability": "view",
      "type": "function"
    },
    {
      "inputs": [
        {
          "internalType": "address",
          "name": "account",
          "type": "address"
        },
        {
          "internalType": "address",
          "name": "operator",
          "type": "address"
        }
      ],
      "name": "isApprovedForAll",
      "outputs": [
        {
          "internalType": "bool",
          "name": "",
          "type": "bool"
        }
      ],
      "stateMutability": "view",
      "type": "function"
    },
    {
      "inputs": [],
      "name": "mintReward",
      "outputs": [
        {
          "internalType": "bool",
          "name": "mintResult",
          "type": "bool"
        }
      ],
      "stateMutability": "nonpayable",
      "type": "function"
    },
    {
      "inputs": [],
      "name": "name",
      "outputs": [
        {
          "internalType": "string",
          "name": "",
          "type": "string"
        }
      ],
      "stateMutability": "view",
      "type": "function"
    },
    {
      "inputs": [],
      "name": "owner",
      "outputs": [
        {
          "internalType": "address",
          "name": "",
          "type": "address"
        }
      ],
      "stateMutability": "view",
      "type": "function"
    },
    {
      "inputs": [],
      "name": "renounceOwnership",
      "outputs": [],
      "stateMutability": "nonpayable",
      "type": "function"
    },
    {
      "inputs": [
        {
          "internalType": "address",
          "name": "from",
          "type": "address"
        },
        {
          "internalType": "address",
          "name": "to",
          "type": "address"
        },
        {
          "internalType": "uint256[]",
          "name": "ids",
          "type": "uint256[]"
        },
        {
          "internalType": "uint256[]",
          "name": "amounts",
          "type": "uint256[]"
        },
        {
          "internalType": "bytes",
          "name": "data",
          "type": "bytes"
        }
      ],
      "name": "safeBatchTransferFrom",
      "outputs": [],
      "stateMutability": "nonpayable",
      "type": "function"
    },
    {
      "inputs": [
        {
          "internalType": "address",
          "name": "from",
          "type": "address"
        },
        {
          "internalType": "address",
          "name": "to",
          "type": "address"
        },
        {
          "internalType": "uint256",
          "name": "id",
          "type": "uint256"
        },
        {
          "internalType": "uint256",
          "name": "amount",
          "type": "uint256"
        },
        {
          "internalType": "bytes",
          "name": "data",
          "type": "bytes"
        }
      ],
      "name": "safeTransferFrom",
      "outputs": [],
      "stateMutability": "nonpayable",
      "type": "function"
    },
    {
      "inputs": [
        {
          "internalType": "address",
          "name": "operator",
          "type": "address"
        },
        {
          "internalType": "bool",
          "name": "approved",
          "type": "bool"
        }
      ],
      "name": "setApprovalForAll",
      "outputs": [],
      "stateMutability": "nonpayable",
      "type": "function"
    },
    {
      "inputs": [
        {
          "internalType": "bool",
          "name": "_mintStatus",
          "type": "bool"
        }
      ],
      "name": "setMintStatus",
      "outputs": [],
      "stateMutability": "nonpayable",
      "type": "function"
    },
    {
      "inputs": [
        {
          "internalType": "bytes4",
          "name": "interfaceId",
          "type": "bytes4"
        }
      ],
      "name": "supportsInterface",
      "outputs": [
        {
          "internalType": "bool",
          "name": "",
          "type": "bool"
        }
      ],
      "stateMutability": "view",
      "type": "function"
    },
    {
      "inputs": [],
      "name": "symbol",
      "outputs": [
        {
          "internalType": "string",
          "name": "",
          "type": "string"
        }
      ],
      "stateMutability": "view",
      "type": "function"
    },
    {
      "inputs": [
        {
          "internalType": "address",
          "name": "newOwner",
          "type": "address"
        }
      ],
      "name": "transferOwnership",
      "outputs": [],
      "stateMutability": "nonpayable",
      "type": "function"
    },
    {
      "inputs": [
        {
          "internalType": "uint256",
          "name": "",
          "type": "uint256"
        }
      ],
      "name": "uri",
      "outputs": [
        {
          "internalType": "string",
          "name": "",
          "type": "string"
        }
      ],
      "stateMutability": "view",
      "type": "function"
    }
  ],
  "bytecode": "0x6080604052604051806080016040528060548152602001620036b460549139600890816200002e919062000498565b503480156200003c57600080fd5b50604051806080016040528060548152602001620036b46054913962000068816200013b60201b60201c565b50620000896200007d6200015060201b60201c565b6200015860201b60201c565b6040518060400160405280600981526020017f427269676874576179000000000000000000000000000000000000000000000081525060049081620000cf919062000498565b506040518060400160405280600481526020017f42525457000000000000000000000000000000000000000000000000000000008152506005908162000116919062000498565b506001600760000160006101000a81548160ff0219169083151502179055506200057f565b80600290816200014c919062000498565b5050565b600033905090565b6000600360009054906101000a900473ffffffffffffffffffffffffffffffffffffffff16905081600360006101000a81548173ffffffffffffffffffffffffffffffffffffffff021916908373ffffffffffffffffffffffffffffffffffffffff1602179055508173ffffffffffffffffffffffffffffffffffffffff168173ffffffffffffffffffffffffffffffffffffffff167f8be0079c531659141344cd1fd0a4f28419497f9722a3daafe3b4186f6b6457e060405160405180910390a35050565b600081519050919050565b7f4e487b7100000000000000000000000000000000000000000000000000000000600052604160045260246000fd5b7f4e487b7100000000000000000000000000000000000000000000000000000000600052602260045260246000fd5b60006002820490506001821680620002a057607f821691505b602082108103620002b657620002b562000258565b5b50919050565b60008190508160005260206000209050919050565b60006020601f8301049050919050565b600082821b905092915050565b600060088302620003207fffffffffffffffffffffffffffffffffffffffffffffffffffffffffffffffff82620002e1565b6200032c8683620002e1565b95508019841693508086168417925050509392505050565b6000819050919050565b6000819050919050565b600062000379620003736200036d8462000344565b6200034e565b62000344565b9050919050565b6000819050919050565b620003958362000358565b620003ad620003a48262000380565b848454620002ee565b825550505050565b600090565b620003c4620003b5565b620003d18184846200038a565b505050565b5b81811015620003f957620003ed600082620003ba565b600181019050620003d7565b5050565b601f82111562000448576200041281620002bc565b6200041d84620002d1565b810160208510156200042d578190505b620004456200043c85620002d1565b830182620003d6565b50505b505050565b600082821c905092915050565b60006200046d600019846008026200044d565b1980831691505092915050565b60006200048883836200045a565b9150826002028217905092915050565b620004a3826200021e565b67ffffffffffffffff811115620004bf57620004be62000229565b5b620004cb825462000287565b620004d8828285620003fd565b600060209050601f831160018114620005105760008415620004fb578287015190505b6200050785826200047a565b86555062000577565b601f1984166200052086620002bc565b60005b828110156200054a5784890151825560018201915060208501945060208101905062000523565b868310156200056a578489015162000566601f8916826200045a565b8355505b6001600288020188555050505b505050505050565b613125806200058f6000396000f3fe608060405234801561001057600080fd5b50600436106100ff5760003560e01c8063715018a611610097578063e985e9c511610066578063e985e9c51461029a578063f242432a146102ca578063f2fde38b146102e6578063fca97db914610302576100ff565b8063715018a6146102385780638da5cb5b1461024257806395d89b4114610260578063a22cb4651461027e576100ff565b8063174f57af116100d3578063174f57af146101b25780631f85e3ca146101d05780632eb2c2d6146101ec5780634e1273f414610208576100ff565b8062fdd58e1461010457806301ffc9a71461013457806306fdde03146101645780630e89341c14610182575b600080fd5b61011e60048036038101906101199190611c49565b610332565b60405161012b9190611c98565b60405180910390f35b61014e60048036038101906101499190611d0b565b6103fa565b60405161015b9190611d53565b60405180910390f35b61016c6104dc565b6040516101799190611dfe565b60405180910390f35b61019c60048036038101906101979190611e20565b61056e565b6040516101a99190611dfe565b60405180910390f35b6101ba610602565b6040516101c79190611d53565b60405180910390f35b6101ea60048036038101906101e59190611e79565b610773565b005b610206600480360381019061020191906120a3565b61079b565b005b610222600480360381019061021d9190612235565b61083c565b60405161022f919061236b565b60405180910390f35b610240610955565b005b61024a610969565b604051610257919061239c565b60405180910390f35b610268610993565b6040516102759190611dfe565b60405180910390f35b610298600480360381019061029391906123b7565b610a25565b005b6102b460048036038101906102af91906123f7565b610a3b565b6040516102c19190611d53565b60405180910390f35b6102e460048036038101906102df9190612437565b610acf565b005b61030060048036038101906102fb91906124ce565b610b70565b005b61031c600480360381019061031791906124ce565b610bf3565b6040516103299190611d53565b60405180910390f35b60008073ffffffffffffffffffffffffffffffffffffffff168373ffffffffffffffffffffffffffffffffffffffff16036103a2576040517f08c379a00000000000000000000000000000000000000000000000000000000081526004016103999061256d565b60405180910390fd5b60008083815260200190815260200160002060008473ffffffffffffffffffffffffffffffffffffffff1673ffffffffffffffffffffffffffffffffffffffff16815260200190815260200160002054905092915050565b60007fd9b67a26000000000000000000000000000000000000000000000000000000007bffffffffffffffffffffffffffffffffffffffffffffffffffffffff1916827bffffffffffffffffffffffffffffffffffffffffffffffffffffffff191614806104c557507f0e89341c000000000000000000000000000000000000000000000000000000007bffffffffffffffffffffffffffffffffffffffffffffffffffffffff1916827bffffffffffffffffffffffffffffffffffffffffffffffffffffffff1916145b806104d557506104d482610c49565b5b9050919050565b6060600480546104eb906125bc565b80601f0160208091040260200160405190810160405280929190818152602001828054610517906125bc565b80156105645780601f1061053957610100808354040283529160200191610564565b820191906000526020600020905b81548152906001019060200180831161054757829003601f168201915b5050505050905090565b60606008805461057d906125bc565b80601f01602080910402602001604051908101604052809291908181526020018280546105a9906125bc565b80156105f65780601f106105cb576101008083540402835291602001916105f6565b820191906000526020600020905b8154815290600101906020018083116105d957829003601f168201915b50505050509050919050565b6000600760000160009054906101000a900460ff16610656576040517f08c379a000000000000000000000000000000000000000000000000000000000815260040161064d90612639565b60405180910390fd5b60066000610662610cb3565b73ffffffffffffffffffffffffffffffffffffffff1673ffffffffffffffffffffffffffffffffffffffff16815260200190815260200160002060009054906101000a900460ff166106e9576040517f08c379a00000000000000000000000000000000000000000000000000000000081526004016106e0906126cb565b60405180910390fd5b61070d6106f4610cb3565b6002600160405180602001604052806000815250610cbb565b60016006600061071b610cb3565b73ffffffffffffffffffffffffffffffffffffffff1673ffffffffffffffffffffffffffffffffffffffff16815260200190815260200160002060006101000a81548160ff0219169083151502179055506001905090565b61077b610e6b565b80600760000160006101000a81548160ff02191690831515021790555050565b6107a3610cb3565b73ffffffffffffffffffffffffffffffffffffffff168573ffffffffffffffffffffffffffffffffffffffff1614806107e957506107e8856107e3610cb3565b610a3b565b5b610828576040517f08c379a000000000000000000000000000000000000000000000000000000000815260040161081f9061275d565b60405180910390fd5b6108358585858585610ee9565b5050505050565b60608151835114610882576040517f08c379a0000000000000000000000000000000000000000000000000000000008152600401610879906127ef565b60405180910390fd5b6000835167ffffffffffffffff81111561089f5761089e611eab565b5b6040519080825280602002602001820160405280156108cd5781602001602082028036833780820191505090505b50905060005b845181101561094a5761091a8582815181106108f2576108f161280f565b5b602002602001015185838151811061090d5761090c61280f565b5b6020026020010151610332565b82828151811061092d5761092c61280f565b5b602002602001018181525050806109439061286d565b90506108d3565b508091505092915050565b61095d610e6b565b610967600061120a565b565b6000600360009054906101000a900473ffffffffffffffffffffffffffffffffffffffff16905090565b6060600580546109a2906125bc565b80601f01602080910402602001604051908101604052809291908181526020018280546109ce906125bc565b8015610a1b5780601f106109f057610100808354040283529160200191610a1b565b820191906000526020600020905b8154815290600101906020018083116109fe57829003601f168201915b5050505050905090565b610a37610a30610cb3565b83836112d0565b5050565b6000600160008473ffffffffffffffffffffffffffffffffffffffff1673ffffffffffffffffffffffffffffffffffffffff16815260200190815260200160002060008373ffffffffffffffffffffffffffffffffffffffff1673ffffffffffffffffffffffffffffffffffffffff16815260200190815260200160002060009054906101000a900460ff16905092915050565b610ad7610cb3565b73ffffffffffffffffffffffffffffffffffffffff168573ffffffffffffffffffffffffffffffffffffffff161480610b1d5750610b1c85610b17610cb3565b610a3b565b5b610b5c576040517f08c379a0000000000000000000000000000000000000000000000000000000008152600401610b539061275d565b60405180910390fd5b610b69858585858561143c565b5050505050565b610b78610e6b565b600073ffffffffffffffffffffffffffffffffffffffff168173ffffffffffffffffffffffffffffffffffffffff1603610be7576040517f08c379a0000000000000000000000000000000000000000000000000000000008152600401610bde90612927565b60405180910390fd5b610bf08161120a565b50565b6000600660008373ffffffffffffffffffffffffffffffffffffffff1673ffffffffffffffffffffffffffffffffffffffff16815260200190815260200160002060009054906101000a900460ff169050919050565b60007f01ffc9a7000000000000000000000000000000000000000000000000000000007bffffffffffffffffffffffffffffffffffffffffffffffffffffffff1916827bffffffffffffffffffffffffffffffffffffffffffffffffffffffff1916149050919050565b600033905090565b600073ffffffffffffffffffffffffffffffffffffffff168473ffffffffffffffffffffffffffffffffffffffff1603610d2a576040517f08c379a0000000000000000000000000000000000000000000000000000000008152600401610d21906129b9565b60405180910390fd5b6000610d34610cb3565b90506000610d41856116d7565b90506000610d4e856116d7565b9050610d5f83600089858589611751565b8460008088815260200190815260200160002060008973ffffffffffffffffffffffffffffffffffffffff1673ffffffffffffffffffffffffffffffffffffffff1681526020019081526020016000206000828254610dbe91906129d9565b925050819055508673ffffffffffffffffffffffffffffffffffffffff16600073ffffffffffffffffffffffffffffffffffffffff168473ffffffffffffffffffffffffffffffffffffffff167fc3d58168c5ae7397731d063d5bbf3d657854427343f4c083240f7aacaa2d0f628989604051610e3c929190612a0d565b60405180910390a4610e53836000898585896117c8565b610e62836000898989896117d0565b50505050505050565b610e73610cb3565b73ffffffffffffffffffffffffffffffffffffffff16610e91610969565b73ffffffffffffffffffffffffffffffffffffffff1614610ee7576040517f08c379a0000000000000000000000000000000000000000000000000000000008152600401610ede90612a82565b60405180910390fd5b565b8151835114610f2d576040517f08c379a0000000000000000000000000000000000000000000000000000000008152600401610f2490612b14565b60405180910390fd5b600073ffffffffffffffffffffffffffffffffffffffff168473ffffffffffffffffffffffffffffffffffffffff1603610f9c576040517f08c379a0000000000000000000000000000000000000000000000000000000008152600401610f9390612ba6565b60405180910390fd5b6000610fa6610cb3565b9050610fb6818787878787611751565b60005b8451811015611167576000858281518110610fd757610fd661280f565b5b602002602001015190506000858381518110610ff657610ff561280f565b5b60200260200101519050600080600084815260200190815260200160002060008b73ffffffffffffffffffffffffffffffffffffffff1673ffffffffffffffffffffffffffffffffffffffff16815260200190815260200160002054905081811015611097576040517f08c379a000000000000000000000000000000000000000000000000000000000815260040161108e90612c38565b60405180910390fd5b81810360008085815260200190815260200160002060008c73ffffffffffffffffffffffffffffffffffffffff1673ffffffffffffffffffffffffffffffffffffffff168152602001908152602001600020819055508160008085815260200190815260200160002060008b73ffffffffffffffffffffffffffffffffffffffff1673ffffffffffffffffffffffffffffffffffffffff168152602001908152602001600020600082825461114c91906129d9565b92505081905550505050806111609061286d565b9050610fb9565b508473ffffffffffffffffffffffffffffffffffffffff168673ffffffffffffffffffffffffffffffffffffffff168273ffffffffffffffffffffffffffffffffffffffff167f4a39dc06d4c0dbc64b70af90fd698a233a518aa5d07e595d983b8c0526c8f7fb87876040516111de929190612c58565b60405180910390a46111f48187878787876117c8565b6112028187878787876119a7565b505050505050565b6000600360009054906101000a900473ffffffffffffffffffffffffffffffffffffffff16905081600360006101000a81548173ffffffffffffffffffffffffffffffffffffffff021916908373ffffffffffffffffffffffffffffffffffffffff1602179055508173ffffffffffffffffffffffffffffffffffffffff168173ffffffffffffffffffffffffffffffffffffffff167f8be0079c531659141344cd1fd0a4f28419497f9722a3daafe3b4186f6b6457e060405160405180910390a35050565b8173ffffffffffffffffffffffffffffffffffffffff168373ffffffffffffffffffffffffffffffffffffffff160361133e576040517f08c379a000000000000000000000000000000000000000000000000000000000815260040161133590612d01565b60405180910390fd5b80600160008573ffffffffffffffffffffffffffffffffffffffff1673ffffffffffffffffffffffffffffffffffffffff16815260200190815260200160002060008473ffffffffffffffffffffffffffffffffffffffff1673ffffffffffffffffffffffffffffffffffffffff16815260200190815260200160002060006101000a81548160ff0219169083151502179055508173ffffffffffffffffffffffffffffffffffffffff168373ffffffffffffffffffffffffffffffffffffffff167f17307eab39ab6107e8899845ad3d59bd9653f200f220920489ca2b5937696c318360405161142f9190611d53565b60405180910390a3505050565b600073ffffffffffffffffffffffffffffffffffffffff168473ffffffffffffffffffffffffffffffffffffffff16036114ab576040517f08c379a00000000000000000000000000000000000000000000000000000000081526004016114a290612ba6565b60405180910390fd5b60006114b5610cb3565b905060006114c2856116d7565b905060006114cf856116d7565b90506114df838989858589611751565b600080600088815260200190815260200160002060008a73ffffffffffffffffffffffffffffffffffffffff1673ffffffffffffffffffffffffffffffffffffffff16815260200190815260200160002054905085811015611576576040517f08c379a000000000000000000000000000000000000000000000000000000000815260040161156d90612c38565b60405180910390fd5b85810360008089815260200190815260200160002060008b73ffffffffffffffffffffffffffffffffffffffff1673ffffffffffffffffffffffffffffffffffffffff168152602001908152602001600020819055508560008089815260200190815260200160002060008a73ffffffffffffffffffffffffffffffffffffffff1673ffffffffffffffffffffffffffffffffffffffff168152602001908152602001600020600082825461162b91906129d9565b925050819055508773ffffffffffffffffffffffffffffffffffffffff168973ffffffffffffffffffffffffffffffffffffffff168573ffffffffffffffffffffffffffffffffffffffff167fc3d58168c5ae7397731d063d5bbf3d657854427343f4c083240f7aacaa2d0f628a8a6040516116a8929190612a0d565b60405180910390a46116be848a8a86868a6117c8565b6116cc848a8a8a8a8a6117d0565b505050505050505050565b60606000600167ffffffffffffffff8111156116f6576116f5611eab565b5b6040519080825280602002602001820160405280156117245781602001602082028036833780820191505090505b509050828160008151811061173c5761173b61280f565b5b60200260200101818152505080915050919050565b600073ffffffffffffffffffffffffffffffffffffffff168573ffffffffffffffffffffffffffffffffffffffff16146117c0576040517f08c379a00000000000000000000000000000000000000000000000000000000081526004016117b790612d93565b60405180910390fd5b505050505050565b505050505050565b6117ef8473ffffffffffffffffffffffffffffffffffffffff16611b7e565b1561199f578373ffffffffffffffffffffffffffffffffffffffff1663f23a6e6187878686866040518663ffffffff1660e01b8152600401611835959493929190612e08565b6020604051808303816000875af192505050801561187157506040513d601f19601f8201168201806040525081019061186e9190612e77565b60015b6119165761187d612eb1565b806308c379a0036118d95750611891612ed3565b8061189c57506118db565b806040517f08c379a00000000000000000000000000000000000000000000000000000000081526004016118d09190611dfe565b60405180910390fd5b505b6040517f08c379a000000000000000000000000000000000000000000000000000000000815260040161190d90612fd5565b60405180910390fd5b63f23a6e6160e01b7bffffffffffffffffffffffffffffffffffffffffffffffffffffffff1916817bffffffffffffffffffffffffffffffffffffffffffffffffffffffff19161461199d576040517f08c379a000000000000000000000000000000000000000000000000000000000815260040161199490613067565b60405180910390fd5b505b505050505050565b6119c68473ffffffffffffffffffffffffffffffffffffffff16611b7e565b15611b76578373ffffffffffffffffffffffffffffffffffffffff1663bc197c8187878686866040518663ffffffff1660e01b8152600401611a0c959493929190613087565b6020604051808303816000875af1925050508015611a4857506040513d601f19601f82011682018060405250810190611a459190612e77565b60015b611aed57611a54612eb1565b806308c379a003611ab05750611a68612ed3565b80611a735750611ab2565b806040517f08c379a0000000000000000000000000000000000000000000000000000000008152600401611aa79190611dfe565b60405180910390fd5b505b6040517f08c379a0000000000000000000000000000000000000000000000000000000008152600401611ae490612fd5565b60405180910390fd5b63bc197c8160e01b7bffffffffffffffffffffffffffffffffffffffffffffffffffffffff1916817bffffffffffffffffffffffffffffffffffffffffffffffffffffffff191614611b74576040517f08c379a0000000000000000000000000000000000000000000000000000000008152600401611b6b90613067565b60405180910390fd5b505b505050505050565b6000808273ffffffffffffffffffffffffffffffffffffffff163b119050919050565b6000604051905090565b600080fd5b600080fd5b600073ffffffffffffffffffffffffffffffffffffffff82169050919050565b6000611be082611bb5565b9050919050565b611bf081611bd5565b8114611bfb57600080fd5b50565b600081359050611c0d81611be7565b92915050565b6000819050919050565b611c2681611c13565b8114611c3157600080fd5b50565b600081359050611c4381611c1d565b92915050565b60008060408385031215611c6057611c5f611bab565b5b6000611c6e85828601611bfe565b9250506020611c7f85828601611c34565b9150509250929050565b611c9281611c13565b82525050565b6000602082019050611cad6000830184611c89565b92915050565b60007fffffffff0000000000000000000000000000000000000000000000000000000082169050919050565b611ce881611cb3565b8114611cf357600080fd5b50565b600081359050611d0581611cdf565b92915050565b600060208284031215611d2157611d20611bab565b5b6000611d2f84828501611cf6565b91505092915050565b60008115159050919050565b611d4d81611d38565b82525050565b6000602082019050611d686000830184611d44565b92915050565b600081519050919050565b600082825260208201905092915050565b60005b83811015611da8578082015181840152602081019050611d8d565b60008484015250505050565b6000601f19601f8301169050919050565b6000611dd082611d6e565b611dda8185611d79565b9350611dea818560208601611d8a565b611df381611db4565b840191505092915050565b60006020820190508181036000830152611e188184611dc5565b905092915050565b600060208284031215611e3657611e35611bab565b5b6000611e4484828501611c34565b91505092915050565b611e5681611d38565b8114611e6157600080fd5b50565b600081359050611e7381611e4d565b92915050565b600060208284031215611e8f57611e8e611bab565b5b6000611e9d84828501611e64565b91505092915050565b600080fd5b7f4e487b7100000000000000000000000000000000000000000000000000000000600052604160045260246000fd5b611ee382611db4565b810181811067ffffffffffffffff82111715611f0257611f01611eab565b5b80604052505050565b6000611f15611ba1565b9050611f218282611eda565b919050565b600067ffffffffffffffff821115611f4157611f40611eab565b5b602082029050602081019050919050565b600080fd5b6000611f6a611f6584611f26565b611f0b565b90508083825260208201905060208402830185811115611f8d57611f8c611f52565b5b835b81811015611fb65780611fa28882611c34565b845260208401935050602081019050611f8f565b5050509392505050565b600082601f830112611fd557611fd4611ea6565b5b8135611fe5848260208601611f57565b91505092915050565b600080fd5b600067ffffffffffffffff82111561200e5761200d611eab565b5b61201782611db4565b9050602081019050919050565b82818337600083830152505050565b600061204661204184611ff3565b611f0b565b90508281526020810184848401111561206257612061611fee565b5b61206d848285612024565b509392505050565b600082601f83011261208a57612089611ea6565b5b813561209a848260208601612033565b91505092915050565b600080600080600060a086880312156120bf576120be611bab565b5b60006120cd88828901611bfe565b95505060206120de88828901611bfe565b945050604086013567ffffffffffffffff8111156120ff576120fe611bb0565b5b61210b88828901611fc0565b935050606086013567ffffffffffffffff81111561212c5761212b611bb0565b5b61213888828901611fc0565b925050608086013567ffffffffffffffff81111561215957612158611bb0565b5b61216588828901612075565b9150509295509295909350565b600067ffffffffffffffff82111561218d5761218c611eab565b5b602082029050602081019050919050565b60006121b16121ac84612172565b611f0b565b905080838252602082019050602084028301858111156121d4576121d3611f52565b5b835b818110156121fd57806121e98882611bfe565b8452602084019350506020810190506121d6565b5050509392505050565b600082601f83011261221c5761221b611ea6565b5b813561222c84826020860161219e565b91505092915050565b6000806040838503121561224c5761224b611bab565b5b600083013567ffffffffffffffff81111561226a57612269611bb0565b5b61227685828601612207565b925050602083013567ffffffffffffffff81111561229757612296611bb0565b5b6122a385828601611fc0565b9150509250929050565b600081519050919050565b600082825260208201905092915050565b6000819050602082019050919050565b6122e281611c13565b82525050565b60006122f483836122d9565b60208301905092915050565b6000602082019050919050565b6000612318826122ad565b61232281856122b8565b935061232d836122c9565b8060005b8381101561235e57815161234588826122e8565b975061235083612300565b925050600181019050612331565b5085935050505092915050565b60006020820190508181036000830152612385818461230d565b905092915050565b61239681611bd5565b82525050565b60006020820190506123b1600083018461238d565b92915050565b600080604083850312156123ce576123cd611bab565b5b60006123dc85828601611bfe565b92505060206123ed85828601611e64565b9150509250929050565b6000806040838503121561240e5761240d611bab565b5b600061241c85828601611bfe565b925050602061242d85828601611bfe565b9150509250929050565b600080600080600060a0868803121561245357612452611bab565b5b600061246188828901611bfe565b955050602061247288828901611bfe565b945050604061248388828901611c34565b935050606061249488828901611c34565b925050608086013567ffffffffffffffff8111156124b5576124b4611bb0565b5b6124c188828901612075565b9150509295509295909350565b6000602082840312156124e4576124e3611bab565b5b60006124f284828501611bfe565b91505092915050565b7f455243313135353a2061646472657373207a65726f206973206e6f742061207660008201527f616c6964206f776e657200000000000000000000000000000000000000000000602082015250565b6000612557602a83611d79565b9150612562826124fb565b604082019050919050565b600060208201905081810360008301526125868161254a565b9050919050565b7f4e487b7100000000000000000000000000000000000000000000000000000000600052602260045260246000fd5b600060028204905060018216806125d457607f821691505b6020821081036125e7576125e661258d565b5b50919050565b7f6d696e74206973206e6f7420617661696c61626c652100000000000000000000600082015250565b6000612623601683611d79565b915061262e826125ed565b602082019050919050565b6000602082019050818103600083015261265281612616565b9050919050565b7f796f75206861766520636c616d69656420796f757220726577617264206f6e6360008201527f6521000000000000000000000000000000000000000000000000000000000000602082015250565b60006126b5602283611d79565b91506126c082612659565b604082019050919050565b600060208201905081810360008301526126e4816126a8565b9050919050565b7f455243313135353a2063616c6c6572206973206e6f7420746f6b656e206f776e60008201527f6572206f7220617070726f766564000000000000000000000000000000000000602082015250565b6000612747602e83611d79565b9150612752826126eb565b604082019050919050565b600060208201905081810360008301526127768161273a565b9050919050565b7f455243313135353a206163636f756e747320616e6420696473206c656e67746860008201527f206d69736d617463680000000000000000000000000000000000000000000000602082015250565b60006127d9602983611d79565b91506127e48261277d565b604082019050919050565b60006020820190508181036000830152612808816127cc565b9050919050565b7f4e487b7100000000000000000000000000000000000000000000000000000000600052603260045260246000fd5b7f4e487b7100000000000000000000000000000000000000000000000000000000600052601160045260246000fd5b600061287882611c13565b91507fffffffffffffffffffffffffffffffffffffffffffffffffffffffffffffffff82036128aa576128a961283e565b5b600182019050919050565b7f4f776e61626c653a206e6577206f776e657220697320746865207a65726f206160008201527f6464726573730000000000000000000000000000000000000000000000000000602082015250565b6000612911602683611d79565b915061291c826128b5565b604082019050919050565b6000602082019050818103600083015261294081612904565b9050919050565b7f455243313135353a206d696e7420746f20746865207a65726f2061646472657360008201527f7300000000000000000000000000000000000000000000000000000000000000602082015250565b60006129a3602183611d79565b91506129ae82612947565b604082019050919050565b600060208201905081810360008301526129d281612996565b9050919050565b60006129e482611c13565b91506129ef83611c13565b9250828201905080821115612a0757612a0661283e565b5b92915050565b6000604082019050612a226000830185611c89565b612a2f6020830184611c89565b9392505050565b7f4f776e61626c653a2063616c6c6572206973206e6f7420746865206f776e6572600082015250565b6000612a6c602083611d79565b9150612a7782612a36565b602082019050919050565b60006020820190508181036000830152612a9b81612a5f565b9050919050565b7f455243313135353a2069647320616e6420616d6f756e7473206c656e6774682060008201527f6d69736d61746368000000000000000000000000000000000000000000000000602082015250565b6000612afe602883611d79565b9150612b0982612aa2565b604082019050919050565b60006020820190508181036000830152612b2d81612af1565b9050919050565b7f455243313135353a207472616e7366657220746f20746865207a65726f20616460008201527f6472657373000000000000000000000000000000000000000000000000000000602082015250565b6000612b90602583611d79565b9150612b9b82612b34565b604082019050919050565b60006020820190508181036000830152612bbf81612b83565b9050919050565b7f455243313135353a20696e73756666696369656e742062616c616e636520666f60008201527f72207472616e7366657200000000000000000000000000000000000000000000602082015250565b6000612c22602a83611d79565b9150612c2d82612bc6565b604082019050919050565b60006020820190508181036000830152612c5181612c15565b9050919050565b60006040820190508181036000830152612c72818561230d565b90508181036020830152612c86818461230d565b90509392505050565b7f455243313135353a2073657474696e6720617070726f76616c2073746174757360008201527f20666f722073656c660000000000000000000000000000000000000000000000602082015250565b6000612ceb602983611d79565b9150612cf682612c8f565b604082019050919050565b60006020820190508181036000830152612d1a81612cde565b9050919050565b7f536f756c426f756e64203a20546f6b656e206973204e4f4e205472616e73666560008201527f7261626c65000000000000000000000000000000000000000000000000000000602082015250565b6000612d7d602583611d79565b9150612d8882612d21565b604082019050919050565b60006020820190508181036000830152612dac81612d70565b9050919050565b600081519050919050565b600082825260208201905092915050565b6000612dda82612db3565b612de48185612dbe565b9350612df4818560208601611d8a565b612dfd81611db4565b840191505092915050565b600060a082019050612e1d600083018861238d565b612e2a602083018761238d565b612e376040830186611c89565b612e446060830185611c89565b8181036080830152612e568184612dcf565b90509695505050505050565b600081519050612e7181611cdf565b92915050565b600060208284031215612e8d57612e8c611bab565b5b6000612e9b84828501612e62565b91505092915050565b60008160e01c9050919050565b600060033d1115612ed05760046000803e612ecd600051612ea4565b90505b90565b600060443d10612f6057612ee5611ba1565b60043d036004823e80513d602482011167ffffffffffffffff82111715612f0d575050612f60565b808201805167ffffffffffffffff811115612f2b5750505050612f60565b80602083010160043d038501811115612f48575050505050612f60565b612f5782602001850186611eda565b82955050505050505b90565b7f455243313135353a207472616e7366657220746f206e6f6e2d4552433131353560008201527f526563656976657220696d706c656d656e746572000000000000000000000000602082015250565b6000612fbf603483611d79565b9150612fca82612f63565b604082019050919050565b60006020820190508181036000830152612fee81612fb2565b9050919050565b7f455243313135353a204552433131353552656365697665722072656a6563746560008201527f6420746f6b656e73000000000000000000000000000000000000000000000000602082015250565b6000613051602883611d79565b915061305c82612ff5565b604082019050919050565b6000602082019050818103600083015261308081613044565b9050919050565b600060a08201905061309c600083018861238d565b6130a9602083018761238d565b81810360408301526130bb818661230d565b905081810360608301526130cf818561230d565b905081810360808301526130e38184612dcf565b9050969550505050505056fea2646970667358221220946e06f567cfd3a84452d60ad46ac669244c61a036f1b509196a6ab48f7250eb64736f6c6343000811003368747470733a2f2f697066732e696f2f697066732f516d594a4b50793769374351477a456b756b726b597a59444e524443643468716a755159595239373850714863722f726577617264326d6574612e6a736f6e",
  "linkReferences": {},
  "deployedLinkReferences": {}
}