{
  "_format": "hh-sol-artifact-1",
  "contractName": "TestOneFile",
  "sourceName": "contracts/NFTs/onefilesoulbound.sol",
  "abi": [
    {
      "inputs": [],
      "stateMutability": "nonpayable",
      "type": "constructor"
    },
    {
      "anonymous": false,
      "inputs": [
        {
          "indexed": true,
          "internalType": "address",
          "name": "account",
          "type": "address"
        },
        {
          "indexed": true,
          "internalType": "address",
          "name": "operator",
          "type": "address"
        },
        {
          "indexed": false,
          "internalType": "bool",
          "name": "approved",
          "type": "bool"
        }
      ],
      "name": "ApprovalForAll",
      "type": "event"
    },
    {
      "anonymous": false,
      "inputs": [
        {
          "indexed": true,
          "internalType": "address",
          "name": "previousOwner",
          "type": "address"
        },
        {
          "indexed": true,
          "internalType": "address",
          "name": "newOwner",
          "type": "address"
        }
      ],
      "name": "OwnershipTransferred",
      "type": "event"
    },
    {
      "anonymous": false,
      "inputs": [
        {
          "indexed": true,
          "internalType": "address",
          "name": "operator",
          "type": "address"
        },
        {
          "indexed": true,
          "internalType": "address",
          "name": "from",
          "type": "address"
        },
        {
          "indexed": true,
          "internalType": "address",
          "name": "to",
          "type": "address"
        },
        {
          "indexed": false,
          "internalType": "uint256[]",
          "name": "ids",
          "type": "uint256[]"
        },
        {
          "indexed": false,
          "internalType": "uint256[]",
          "name": "values",
          "type": "uint256[]"
        }
      ],
      "name": "TransferBatch",
      "type": "event"
    },
    {
      "anonymous": false,
      "inputs": [
        {
          "indexed": true,
          "internalType": "address",
          "name": "operator",
          "type": "address"
        },
        {
          "indexed": true,
          "internalType": "address",
          "name": "from",
          "type": "address"
        },
        {
          "indexed": true,
          "internalType": "address",
          "name": "to",
          "type": "address"
        },
        {
          "indexed": false,
          "internalType": "uint256",
          "name": "id",
          "type": "uint256"
        },
        {
          "indexed": false,
          "internalType": "uint256",
          "name": "value",
          "type": "uint256"
        }
      ],
      "name": "TransferSingle",
      "type": "event"
    },
    {
      "anonymous": false,
      "inputs": [
        {
          "indexed": false,
          "internalType": "string",
          "name": "value",
          "type": "string"
        },
        {
          "indexed": true,
          "internalType": "uint256",
          "name": "id",
          "type": "uint256"
        }
      ],
      "name": "URI",
      "type": "event"
    },
    {
      "inputs": [
        {
          "internalType": "address",
          "name": "account",
          "type": "address"
        },
        {
          "internalType": "uint256",
          "name": "id",
          "type": "uint256"
        }
      ],
      "name": "balanceOf",
      "outputs": [
        {
          "internalType": "uint256",
          "name": "",
          "type": "uint256"
        }
      ],
      "stateMutability": "view",
      "type": "function"
    },
    {
      "inputs": [
        {
          "internalType": "address[]",
          "name": "accounts",
          "type": "address[]"
        },
        {
          "internalType": "uint256[]",
          "name": "ids",
          "type": "uint256[]"
        }
      ],
      "name": "balanceOfBatch",
      "outputs": [
        {
          "internalType": "uint256[]",
          "name": "",
          "type": "uint256[]"
        }
      ],
      "stateMutability": "view",
      "type": "function"
    },
    {
      "inputs": [
        {
          "internalType": "address",
          "name": "user",
          "type": "address"
        },
        {
          "internalType": "uint256",
          "name": "id",
          "type": "uint256"
        }
      ],
      "name": "getminted",
      "outputs": [
        {
          "internalType": "bool",
          "name": "",
          "type": "bool"
        }
      ],
      "stateMutability": "view",
      "type": "function"
    },
    {
      "inputs": [
        {
          "internalType": "address",
          "name": "account",
          "type": "address"
        },
        {
          "internalType": "address",
          "name": "operator",
          "type": "address"
        }
      ],
      "name": "isApprovedForAll",
      "outputs": [
        {
          "internalType": "bool",
          "name": "",
          "type": "bool"
        }
      ],
      "stateMutability": "view",
      "type": "function"
    },
    {
      "inputs": [
        {
          "internalType": "uint256",
          "name": "id",
          "type": "uint256"
        }
      ],
      "name": "mintReward",
      "outputs": [
        {
          "internalType": "bool",
          "name": "mintResult",
          "type": "bool"
        }
      ],
      "stateMutability": "nonpayable",
      "type": "function"
    },
    {
      "inputs": [],
      "name": "name",
      "outputs": [
        {
          "internalType": "string",
          "name": "",
          "type": "string"
        }
      ],
      "stateMutability": "view",
      "type": "function"
    },
    {
      "inputs": [],
      "name": "owner",
      "outputs": [
        {
          "internalType": "address",
          "name": "",
          "type": "address"
        }
      ],
      "stateMutability": "view",
      "type": "function"
    },
    {
      "inputs": [],
      "name": "renounceOwnership",
      "outputs": [],
      "stateMutability": "nonpayable",
      "type": "function"
    },
    {
      "inputs": [
        {
          "internalType": "address",
          "name": "from",
          "type": "address"
        },
        {
          "internalType": "address",
          "name": "to",
          "type": "address"
        },
        {
          "internalType": "uint256[]",
          "name": "ids",
          "type": "uint256[]"
        },
        {
          "internalType": "uint256[]",
          "name": "amounts",
          "type": "uint256[]"
        },
        {
          "internalType": "bytes",
          "name": "data",
          "type": "bytes"
        }
      ],
      "name": "safeBatchTransferFrom",
      "outputs": [],
      "stateMutability": "nonpayable",
      "type": "function"
    },
    {
      "inputs": [
        {
          "internalType": "address",
          "name": "from",
          "type": "address"
        },
        {
          "internalType": "address",
          "name": "to",
          "type": "address"
        },
        {
          "internalType": "uint256",
          "name": "id",
          "type": "uint256"
        },
        {
          "internalType": "uint256",
          "name": "amount",
          "type": "uint256"
        },
        {
          "internalType": "bytes",
          "name": "data",
          "type": "bytes"
        }
      ],
      "name": "safeTransferFrom",
      "outputs": [],
      "stateMutability": "nonpayable",
      "type": "function"
    },
    {
      "inputs": [
        {
          "internalType": "address",
          "name": "operator",
          "type": "address"
        },
        {
          "internalType": "bool",
          "name": "approved",
          "type": "bool"
        }
      ],
      "name": "setApprovalForAll",
      "outputs": [],
      "stateMutability": "nonpayable",
      "type": "function"
    },
    {
      "inputs": [
        {
          "internalType": "bool",
          "name": "_mintStatus",
          "type": "bool"
        }
      ],
      "name": "setMintStatus",
      "outputs": [],
      "stateMutability": "nonpayable",
      "type": "function"
    },
    {
      "inputs": [
        {
          "internalType": "bytes4",
          "name": "interfaceId",
          "type": "bytes4"
        }
      ],
      "name": "supportsInterface",
      "outputs": [
        {
          "internalType": "bool",
          "name": "",
          "type": "bool"
        }
      ],
      "stateMutability": "view",
      "type": "function"
    },
    {
      "inputs": [],
      "name": "symbol",
      "outputs": [
        {
          "internalType": "string",
          "name": "",
          "type": "string"
        }
      ],
      "stateMutability": "view",
      "type": "function"
    },
    {
      "inputs": [
        {
          "internalType": "address",
          "name": "newOwner",
          "type": "address"
        }
      ],
      "name": "transferOwnership",
      "outputs": [],
      "stateMutability": "nonpayable",
      "type": "function"
    },
    {
      "inputs": [
        {
          "internalType": "uint256",
          "name": "_tokenid",
          "type": "uint256"
        }
      ],
      "name": "uri",
      "outputs": [
        {
          "internalType": "string",
          "name": "",
          "type": "string"
        }
      ],
      "stateMutability": "pure",
      "type": "function"
    }
  ],
  "bytecode": "0x60806040523480156200001157600080fd5b506040518060800160405280604d815260200162003a0b604d91396200003d816200011060201b60201c565b506200005e620000526200012560201b60201c565b6200012d60201b60201c565b6040518060400160405280601281526020017f4d6f6f6e696e6b5265776172647354657374000000000000000000000000000081525060049081620000a491906200046d565b506040518060400160405280600781526020017f4d4952544553540000000000000000000000000000000000000000000000000081525060059081620000eb91906200046d565b506001600760000160006101000a81548160ff02191690831515021790555062000554565b80600290816200012191906200046d565b5050565b600033905090565b6000600360009054906101000a900473ffffffffffffffffffffffffffffffffffffffff16905081600360006101000a81548173ffffffffffffffffffffffffffffffffffffffff021916908373ffffffffffffffffffffffffffffffffffffffff1602179055508173ffffffffffffffffffffffffffffffffffffffff168173ffffffffffffffffffffffffffffffffffffffff167f8be0079c531659141344cd1fd0a4f28419497f9722a3daafe3b4186f6b6457e060405160405180910390a35050565b600081519050919050565b7f4e487b7100000000000000000000000000000000000000000000000000000000600052604160045260246000fd5b7f4e487b7100000000000000000000000000000000000000000000000000000000600052602260045260246000fd5b600060028204905060018216806200027557607f821691505b6020821081036200028b576200028a6200022d565b5b50919050565b60008190508160005260206000209050919050565b60006020601f8301049050919050565b600082821b905092915050565b600060088302620002f57fffffffffffffffffffffffffffffffffffffffffffffffffffffffffffffffff82620002b6565b620003018683620002b6565b95508019841693508086168417925050509392505050565b6000819050919050565b6000819050919050565b60006200034e62000348620003428462000319565b62000323565b62000319565b9050919050565b6000819050919050565b6200036a836200032d565b62000382620003798262000355565b848454620002c3565b825550505050565b600090565b620003996200038a565b620003a68184846200035f565b505050565b5b81811015620003ce57620003c26000826200038f565b600181019050620003ac565b5050565b601f8211156200041d57620003e78162000291565b620003f284620002a6565b8101602085101562000402578190505b6200041a6200041185620002a6565b830182620003ab565b50505b505050565b600082821c905092915050565b6000620004426000198460080262000422565b1980831691505092915050565b60006200045d83836200042f565b9150826002028217905092915050565b6200047882620001f3565b67ffffffffffffffff811115620004945762000493620001fe565b5b620004a082546200025c565b620004ad828285620003d2565b600060209050601f831160018114620004e55760008415620004d0578287015190505b620004dc85826200044f565b8655506200054c565b601f198416620004f58662000291565b60005b828110156200051f57848901518255600182019150602085019450602081019050620004f8565b868310156200053f57848901516200053b601f8916826200042f565b8355505b6001600288020188555050505b505050505050565b6134a780620005646000396000f3fe608060405234801561001057600080fd5b50600436106100ff5760003560e01c80638da5cb5b11610097578063ab5338ea11610066578063ab5338ea146102ac578063e985e9c5146102dc578063f242432a1461030c578063f2fde38b14610328576100ff565b80638da5cb5b1461022457806391c0aabf1461024257806395d89b4114610272578063a22cb46514610290576100ff565b80631f85e3ca116100d35780631f85e3ca146101b25780632eb2c2d6146101ce5780634e1273f4146101ea578063715018a61461021a576100ff565b8062fdd58e1461010457806301ffc9a71461013457806306fdde03146101645780630e89341c14610182575b600080fd5b61011e60048036038101906101199190611e4f565b610344565b60405161012b9190611e9e565b60405180910390f35b61014e60048036038101906101499190611f11565b61040c565b60405161015b9190611f59565b60405180910390f35b61016c6104ee565b6040516101799190612004565b60405180910390f35b61019c60048036038101906101979190612026565b610580565b6040516101a99190612004565b60405180910390f35b6101cc60048036038101906101c7919061207f565b6105b1565b005b6101e860048036038101906101e391906122a9565b6105d9565b005b61020460048036038101906101ff919061243b565b61067a565b6040516102119190612571565b60405180910390f35b610222610793565b005b61022c6107a7565b60405161023991906125a2565b60405180910390f35b61025c60048036038101906102579190612026565b6107d1565b6040516102699190611f59565b60405180910390f35b61027a610966565b6040516102879190612004565b60405180910390f35b6102aa60048036038101906102a591906125bd565b6109f8565b005b6102c660048036038101906102c19190611e4f565b610a0e565b6040516102d39190611f59565b60405180910390f35b6102f660048036038101906102f191906125fd565b610a76565b6040516103039190611f59565b60405180910390f35b6103266004803603810190610321919061263d565b610b0a565b005b610342600480360381019061033d91906126d4565b610bab565b005b60008073ffffffffffffffffffffffffffffffffffffffff168373ffffffffffffffffffffffffffffffffffffffff16036103b4576040517f08c379a00000000000000000000000000000000000000000000000000000000081526004016103ab90612773565b60405180910390fd5b60008083815260200190815260200160002060008473ffffffffffffffffffffffffffffffffffffffff1673ffffffffffffffffffffffffffffffffffffffff16815260200190815260200160002054905092915050565b60007fd9b67a26000000000000000000000000000000000000000000000000000000007bffffffffffffffffffffffffffffffffffffffffffffffffffffffff1916827bffffffffffffffffffffffffffffffffffffffffffffffffffffffff191614806104d757507f0e89341c000000000000000000000000000000000000000000000000000000007bffffffffffffffffffffffffffffffffffffffffffffffffffffffff1916827bffffffffffffffffffffffffffffffffffffffffffffffffffffffff1916145b806104e757506104e682610c2e565b5b9050919050565b6060600480546104fd906127c2565b80601f0160208091040260200160405190810160405280929190818152602001828054610529906127c2565b80156105765780601f1061054b57610100808354040283529160200191610576565b820191906000526020600020905b81548152906001019060200180831161055957829003601f168201915b5050505050905090565b606061058b82610c98565b60405160200161059b9190612913565b6040516020818303038152906040529050919050565b6105b9610d66565b80600760000160006101000a81548160ff02191690831515021790555050565b6105e1610de4565b73ffffffffffffffffffffffffffffffffffffffff168573ffffffffffffffffffffffffffffffffffffffff161480610627575061062685610621610de4565b610a76565b5b610666576040517f08c379a000000000000000000000000000000000000000000000000000000000815260040161065d906129b2565b60405180910390fd5b6106738585858585610dec565b5050505050565b606081518351146106c0576040517f08c379a00000000000000000000000000000000000000000000000000000000081526004016106b790612a44565b60405180910390fd5b6000835167ffffffffffffffff8111156106dd576106dc6120b1565b5b60405190808252806020026020018201604052801561070b5781602001602082028036833780820191505090505b50905060005b8451811015610788576107588582815181106107305761072f612a64565b5b602002602001015185838151811061074b5761074a612a64565b5b6020026020010151610344565b82828151811061076b5761076a612a64565b5b6020026020010181815250508061078190612ac2565b9050610711565b508091505092915050565b61079b610d66565b6107a5600061110d565b565b6000600360009054906101000a900473ffffffffffffffffffffffffffffffffffffffff16905090565b6000600760000160009054906101000a900460ff16610825576040517f08c379a000000000000000000000000000000000000000000000000000000000815260040161081c90612b56565b60405180910390fd5b60066000610831610de4565b73ffffffffffffffffffffffffffffffffffffffff1673ffffffffffffffffffffffffffffffffffffffff168152602001908152602001600020600083815260200190815260200160002060009054906101000a900460ff16156108ca576040517f08c379a00000000000000000000000000000000000000000000000000000000081526004016108c190612be8565b60405180910390fd5b6108ed6108d5610de4565b836001604051806020016040528060008152506111d3565b6001600660006108fb610de4565b73ffffffffffffffffffffffffffffffffffffffff1673ffffffffffffffffffffffffffffffffffffffff168152602001908152602001600020600084815260200190815260200160002060006101000a81548160ff02191690831515021790555060019050919050565b606060058054610975906127c2565b80601f01602080910402602001604051908101604052809291908181526020018280546109a1906127c2565b80156109ee5780601f106109c3576101008083540402835291602001916109ee565b820191906000526020600020905b8154815290600101906020018083116109d157829003601f168201915b5050505050905090565b610a0a610a03610de4565b8383611383565b5050565b6000600660008473ffffffffffffffffffffffffffffffffffffffff1673ffffffffffffffffffffffffffffffffffffffff168152602001908152602001600020600083815260200190815260200160002060009054906101000a900460ff16905092915050565b6000600160008473ffffffffffffffffffffffffffffffffffffffff1673ffffffffffffffffffffffffffffffffffffffff16815260200190815260200160002060008373ffffffffffffffffffffffffffffffffffffffff1673ffffffffffffffffffffffffffffffffffffffff16815260200190815260200160002060009054906101000a900460ff16905092915050565b610b12610de4565b73ffffffffffffffffffffffffffffffffffffffff168573ffffffffffffffffffffffffffffffffffffffff161480610b585750610b5785610b52610de4565b610a76565b5b610b97576040517f08c379a0000000000000000000000000000000000000000000000000000000008152600401610b8e906129b2565b60405180910390fd5b610ba485858585856114ef565b5050505050565b610bb3610d66565b600073ffffffffffffffffffffffffffffffffffffffff168173ffffffffffffffffffffffffffffffffffffffff1603610c22576040517f08c379a0000000000000000000000000000000000000000000000000000000008152600401610c1990612c7a565b60405180910390fd5b610c2b8161110d565b50565b60007f01ffc9a7000000000000000000000000000000000000000000000000000000007bffffffffffffffffffffffffffffffffffffffffffffffffffffffff1916827bffffffffffffffffffffffffffffffffffffffffffffffffffffffff1916149050919050565b606060006001610ca78461178a565b01905060008167ffffffffffffffff811115610cc657610cc56120b1565b5b6040519080825280601f01601f191660200182016040528015610cf85781602001600182028036833780820191505090505b509050600082602001820190505b600115610d5b578080600190039150507f3031323334353637383961626364656600000000000000000000000000000000600a86061a8153600a8581610d4f57610d4e612c9a565b5b04945060008503610d06575b819350505050919050565b610d6e610de4565b73ffffffffffffffffffffffffffffffffffffffff16610d8c6107a7565b73ffffffffffffffffffffffffffffffffffffffff1614610de2576040517f08c379a0000000000000000000000000000000000000000000000000000000008152600401610dd990612d15565b60405180910390fd5b565b600033905090565b8151835114610e30576040517f08c379a0000000000000000000000000000000000000000000000000000000008152600401610e2790612da7565b60405180910390fd5b600073ffffffffffffffffffffffffffffffffffffffff168473ffffffffffffffffffffffffffffffffffffffff1603610e9f576040517f08c379a0000000000000000000000000000000000000000000000000000000008152600401610e9690612e39565b60405180910390fd5b6000610ea9610de4565b9050610eb98187878787876118dd565b60005b845181101561106a576000858281518110610eda57610ed9612a64565b5b602002602001015190506000858381518110610ef957610ef8612a64565b5b60200260200101519050600080600084815260200190815260200160002060008b73ffffffffffffffffffffffffffffffffffffffff1673ffffffffffffffffffffffffffffffffffffffff16815260200190815260200160002054905081811015610f9a576040517f08c379a0000000000000000000000000000000000000000000000000000000008152600401610f9190612ecb565b60405180910390fd5b81810360008085815260200190815260200160002060008c73ffffffffffffffffffffffffffffffffffffffff1673ffffffffffffffffffffffffffffffffffffffff168152602001908152602001600020819055508160008085815260200190815260200160002060008b73ffffffffffffffffffffffffffffffffffffffff1673ffffffffffffffffffffffffffffffffffffffff168152602001908152602001600020600082825461104f9190612eeb565b925050819055505050508061106390612ac2565b9050610ebc565b508473ffffffffffffffffffffffffffffffffffffffff168673ffffffffffffffffffffffffffffffffffffffff168273ffffffffffffffffffffffffffffffffffffffff167f4a39dc06d4c0dbc64b70af90fd698a233a518aa5d07e595d983b8c0526c8f7fb87876040516110e1929190612f1f565b60405180910390a46110f7818787878787611954565b61110581878787878761195c565b505050505050565b6000600360009054906101000a900473ffffffffffffffffffffffffffffffffffffffff16905081600360006101000a81548173ffffffffffffffffffffffffffffffffffffffff021916908373ffffffffffffffffffffffffffffffffffffffff1602179055508173ffffffffffffffffffffffffffffffffffffffff168173ffffffffffffffffffffffffffffffffffffffff167f8be0079c531659141344cd1fd0a4f28419497f9722a3daafe3b4186f6b6457e060405160405180910390a35050565b600073ffffffffffffffffffffffffffffffffffffffff168473ffffffffffffffffffffffffffffffffffffffff1603611242576040517f08c379a000000000000000000000000000000000000000000000000000000000815260040161123990612fc8565b60405180910390fd5b600061124c610de4565b9050600061125985611b33565b9050600061126685611b33565b9050611277836000898585896118dd565b8460008088815260200190815260200160002060008973ffffffffffffffffffffffffffffffffffffffff1673ffffffffffffffffffffffffffffffffffffffff16815260200190815260200160002060008282546112d69190612eeb565b925050819055508673ffffffffffffffffffffffffffffffffffffffff16600073ffffffffffffffffffffffffffffffffffffffff168473ffffffffffffffffffffffffffffffffffffffff167fc3d58168c5ae7397731d063d5bbf3d657854427343f4c083240f7aacaa2d0f628989604051611354929190612fe8565b60405180910390a461136b83600089858589611954565b61137a83600089898989611bad565b50505050505050565b8173ffffffffffffffffffffffffffffffffffffffff168373ffffffffffffffffffffffffffffffffffffffff16036113f1576040517f08c379a00000000000000000000000000000000000000000000000000000000081526004016113e890613083565b60405180910390fd5b80600160008573ffffffffffffffffffffffffffffffffffffffff1673ffffffffffffffffffffffffffffffffffffffff16815260200190815260200160002060008473ffffffffffffffffffffffffffffffffffffffff1673ffffffffffffffffffffffffffffffffffffffff16815260200190815260200160002060006101000a81548160ff0219169083151502179055508173ffffffffffffffffffffffffffffffffffffffff168373ffffffffffffffffffffffffffffffffffffffff167f17307eab39ab6107e8899845ad3d59bd9653f200f220920489ca2b5937696c31836040516114e29190611f59565b60405180910390a3505050565b600073ffffffffffffffffffffffffffffffffffffffff168473ffffffffffffffffffffffffffffffffffffffff160361155e576040517f08c379a000000000000000000000000000000000000000000000000000000000815260040161155590612e39565b60405180910390fd5b6000611568610de4565b9050600061157585611b33565b9050600061158285611b33565b90506115928389898585896118dd565b600080600088815260200190815260200160002060008a73ffffffffffffffffffffffffffffffffffffffff1673ffffffffffffffffffffffffffffffffffffffff16815260200190815260200160002054905085811015611629576040517f08c379a000000000000000000000000000000000000000000000000000000000815260040161162090612ecb565b60405180910390fd5b85810360008089815260200190815260200160002060008b73ffffffffffffffffffffffffffffffffffffffff1673ffffffffffffffffffffffffffffffffffffffff168152602001908152602001600020819055508560008089815260200190815260200160002060008a73ffffffffffffffffffffffffffffffffffffffff1673ffffffffffffffffffffffffffffffffffffffff16815260200190815260200160002060008282546116de9190612eeb565b925050819055508773ffffffffffffffffffffffffffffffffffffffff168973ffffffffffffffffffffffffffffffffffffffff168573ffffffffffffffffffffffffffffffffffffffff167fc3d58168c5ae7397731d063d5bbf3d657854427343f4c083240f7aacaa2d0f628a8a60405161175b929190612fe8565b60405180910390a4611771848a8a86868a611954565b61177f848a8a8a8a8a611bad565b505050505050505050565b600080600090507a184f03e93ff9f4daa797ed6e38ed64bf6a1f01000000000000000083106117e8577a184f03e93ff9f4daa797ed6e38ed64bf6a1f01000000000000000083816117de576117dd612c9a565b5b0492506040810190505b6d04ee2d6d415b85acef81000000008310611825576d04ee2d6d415b85acef8100000000838161181b5761181a612c9a565b5b0492506020810190505b662386f26fc10000831061185457662386f26fc10000838161184a57611849612c9a565b5b0492506010810190505b6305f5e100831061187d576305f5e100838161187357611872612c9a565b5b0492506008810190505b61271083106118a257612710838161189857611897612c9a565b5b0492506004810190505b606483106118c557606483816118bb576118ba612c9a565b5b0492506002810190505b600a83106118d4576001810190505b80915050919050565b600073ffffffffffffffffffffffffffffffffffffffff168573ffffffffffffffffffffffffffffffffffffffff161461194c576040517f08c379a000000000000000000000000000000000000000000000000000000000815260040161194390613115565b60405180910390fd5b505050505050565b505050505050565b61197b8473ffffffffffffffffffffffffffffffffffffffff16611d84565b15611b2b578373ffffffffffffffffffffffffffffffffffffffff1663bc197c8187878686866040518663ffffffff1660e01b81526004016119c195949392919061318a565b6020604051808303816000875af19250505080156119fd57506040513d601f19601f820116820180604052508101906119fa9190613207565b60015b611aa257611a09613241565b806308c379a003611a655750611a1d613263565b80611a285750611a67565b806040517f08c379a0000000000000000000000000000000000000000000000000000000008152600401611a5c9190612004565b60405180910390fd5b505b6040517f08c379a0000000000000000000000000000000000000000000000000000000008152600401611a9990613365565b60405180910390fd5b63bc197c8160e01b7bffffffffffffffffffffffffffffffffffffffffffffffffffffffff1916817bffffffffffffffffffffffffffffffffffffffffffffffffffffffff191614611b29576040517f08c379a0000000000000000000000000000000000000000000000000000000008152600401611b20906133f7565b60405180910390fd5b505b505050505050565b60606000600167ffffffffffffffff811115611b5257611b516120b1565b5b604051908082528060200260200182016040528015611b805781602001602082028036833780820191505090505b5090508281600081518110611b9857611b97612a64565b5b60200260200101818152505080915050919050565b611bcc8473ffffffffffffffffffffffffffffffffffffffff16611d84565b15611d7c578373ffffffffffffffffffffffffffffffffffffffff1663f23a6e6187878686866040518663ffffffff1660e01b8152600401611c12959493929190613417565b6020604051808303816000875af1925050508015611c4e57506040513d601f19601f82011682018060405250810190611c4b9190613207565b60015b611cf357611c5a613241565b806308c379a003611cb65750611c6e613263565b80611c795750611cb8565b806040517f08c379a0000000000000000000000000000000000000000000000000000000008152600401611cad9190612004565b60405180910390fd5b505b6040517f08c379a0000000000000000000000000000000000000000000000000000000008152600401611cea90613365565b60405180910390fd5b63f23a6e6160e01b7bffffffffffffffffffffffffffffffffffffffffffffffffffffffff1916817bffffffffffffffffffffffffffffffffffffffffffffffffffffffff191614611d7a576040517f08c379a0000000000000000000000000000000000000000000000000000000008152600401611d71906133f7565b60405180910390fd5b505b505050505050565b6000808273ffffffffffffffffffffffffffffffffffffffff163b119050919050565b6000604051905090565b600080fd5b600080fd5b600073ffffffffffffffffffffffffffffffffffffffff82169050919050565b6000611de682611dbb565b9050919050565b611df681611ddb565b8114611e0157600080fd5b50565b600081359050611e1381611ded565b92915050565b6000819050919050565b611e2c81611e19565b8114611e3757600080fd5b50565b600081359050611e4981611e23565b92915050565b60008060408385031215611e6657611e65611db1565b5b6000611e7485828601611e04565b9250506020611e8585828601611e3a565b9150509250929050565b611e9881611e19565b82525050565b6000602082019050611eb36000830184611e8f565b92915050565b60007fffffffff0000000000000000000000000000000000000000000000000000000082169050919050565b611eee81611eb9565b8114611ef957600080fd5b50565b600081359050611f0b81611ee5565b92915050565b600060208284031215611f2757611f26611db1565b5b6000611f3584828501611efc565b91505092915050565b60008115159050919050565b611f5381611f3e565b82525050565b6000602082019050611f6e6000830184611f4a565b92915050565b600081519050919050565b600082825260208201905092915050565b60005b83811015611fae578082015181840152602081019050611f93565b60008484015250505050565b6000601f19601f8301169050919050565b6000611fd682611f74565b611fe08185611f7f565b9350611ff0818560208601611f90565b611ff981611fba565b840191505092915050565b6000602082019050818103600083015261201e8184611fcb565b905092915050565b60006020828403121561203c5761203b611db1565b5b600061204a84828501611e3a565b91505092915050565b61205c81611f3e565b811461206757600080fd5b50565b60008135905061207981612053565b92915050565b60006020828403121561209557612094611db1565b5b60006120a38482850161206a565b91505092915050565b600080fd5b7f4e487b7100000000000000000000000000000000000000000000000000000000600052604160045260246000fd5b6120e982611fba565b810181811067ffffffffffffffff82111715612108576121076120b1565b5b80604052505050565b600061211b611da7565b905061212782826120e0565b919050565b600067ffffffffffffffff821115612147576121466120b1565b5b602082029050602081019050919050565b600080fd5b600061217061216b8461212c565b612111565b9050808382526020820190506020840283018581111561219357612192612158565b5b835b818110156121bc57806121a88882611e3a565b845260208401935050602081019050612195565b5050509392505050565b600082601f8301126121db576121da6120ac565b5b81356121eb84826020860161215d565b91505092915050565b600080fd5b600067ffffffffffffffff821115612214576122136120b1565b5b61221d82611fba565b9050602081019050919050565b82818337600083830152505050565b600061224c612247846121f9565b612111565b905082815260208101848484011115612268576122676121f4565b5b61227384828561222a565b509392505050565b600082601f8301126122905761228f6120ac565b5b81356122a0848260208601612239565b91505092915050565b600080600080600060a086880312156122c5576122c4611db1565b5b60006122d388828901611e04565b95505060206122e488828901611e04565b945050604086013567ffffffffffffffff81111561230557612304611db6565b5b612311888289016121c6565b935050606086013567ffffffffffffffff81111561233257612331611db6565b5b61233e888289016121c6565b925050608086013567ffffffffffffffff81111561235f5761235e611db6565b5b61236b8882890161227b565b9150509295509295909350565b600067ffffffffffffffff821115612393576123926120b1565b5b602082029050602081019050919050565b60006123b76123b284612378565b612111565b905080838252602082019050602084028301858111156123da576123d9612158565b5b835b8181101561240357806123ef8882611e04565b8452602084019350506020810190506123dc565b5050509392505050565b600082601f830112612422576124216120ac565b5b81356124328482602086016123a4565b91505092915050565b6000806040838503121561245257612451611db1565b5b600083013567ffffffffffffffff8111156124705761246f611db6565b5b61247c8582860161240d565b925050602083013567ffffffffffffffff81111561249d5761249c611db6565b5b6124a9858286016121c6565b9150509250929050565b600081519050919050565b600082825260208201905092915050565b6000819050602082019050919050565b6124e881611e19565b82525050565b60006124fa83836124df565b60208301905092915050565b6000602082019050919050565b600061251e826124b3565b61252881856124be565b9350612533836124cf565b8060005b8381101561256457815161254b88826124ee565b975061255683612506565b925050600181019050612537565b5085935050505092915050565b6000602082019050818103600083015261258b8184612513565b905092915050565b61259c81611ddb565b82525050565b60006020820190506125b76000830184612593565b92915050565b600080604083850312156125d4576125d3611db1565b5b60006125e285828601611e04565b92505060206125f38582860161206a565b9150509250929050565b6000806040838503121561261457612613611db1565b5b600061262285828601611e04565b925050602061263385828601611e04565b9150509250929050565b600080600080600060a0868803121561265957612658611db1565b5b600061266788828901611e04565b955050602061267888828901611e04565b945050604061268988828901611e3a565b935050606061269a88828901611e3a565b925050608086013567ffffffffffffffff8111156126bb576126ba611db6565b5b6126c78882890161227b565b9150509295509295909350565b6000602082840312156126ea576126e9611db1565b5b60006126f884828501611e04565b91505092915050565b7f455243313135353a2061646472657373207a65726f206973206e6f742061207660008201527f616c6964206f776e657200000000000000000000000000000000000000000000602082015250565b600061275d602a83611f7f565b915061276882612701565b604082019050919050565b6000602082019050818103600083015261278c81612750565b9050919050565b7f4e487b7100000000000000000000000000000000000000000000000000000000600052602260045260246000fd5b600060028204905060018216806127da57607f821691505b6020821081036127ed576127ec612793565b5b50919050565b600081905092915050565b7f68747470733a2f2f697066732e696f2f697066732f516d56484662734e31697760008201527f50446d4b5a7455415257345744525352535462396f4d39456561536e3277566b60208201527f3579702f00000000000000000000000000000000000000000000000000000000604082015250565b60006128806044836127f3565b915061288b826127fe565b604482019050919050565b60006128a182611f74565b6128ab81856127f3565b93506128bb818560208601611f90565b80840191505092915050565b7f2e6a736f6e000000000000000000000000000000000000000000000000000000600082015250565b60006128fd6005836127f3565b9150612908826128c7565b600582019050919050565b600061291e82612873565b915061292a8284612896565b9150612935826128f0565b915081905092915050565b7f455243313135353a2063616c6c6572206973206e6f7420746f6b656e206f776e60008201527f6572206f7220617070726f766564000000000000000000000000000000000000602082015250565b600061299c602e83611f7f565b91506129a782612940565b604082019050919050565b600060208201905081810360008301526129cb8161298f565b9050919050565b7f455243313135353a206163636f756e747320616e6420696473206c656e67746860008201527f206d69736d617463680000000000000000000000000000000000000000000000602082015250565b6000612a2e602983611f7f565b9150612a39826129d2565b604082019050919050565b60006020820190508181036000830152612a5d81612a21565b9050919050565b7f4e487b7100000000000000000000000000000000000000000000000000000000600052603260045260246000fd5b7f4e487b7100000000000000000000000000000000000000000000000000000000600052601160045260246000fd5b6000612acd82611e19565b91507fffffffffffffffffffffffffffffffffffffffffffffffffffffffffffffffff8203612aff57612afe612a93565b5b600182019050919050565b7f6d696e74206973206e6f7420617661696c61626c652100000000000000000000600082015250565b6000612b40601683611f7f565b9150612b4b82612b0a565b602082019050919050565b60006020820190508181036000830152612b6f81612b33565b9050919050565b7f796f752068617665206d696e746564207468697320736f756c626f756e64206160008201527f6368696576656d656e74206f6e63652100000000000000000000000000000000602082015250565b6000612bd2603083611f7f565b9150612bdd82612b76565b604082019050919050565b60006020820190508181036000830152612c0181612bc5565b9050919050565b7f4f776e61626c653a206e6577206f776e657220697320746865207a65726f206160008201527f6464726573730000000000000000000000000000000000000000000000000000602082015250565b6000612c64602683611f7f565b9150612c6f82612c08565b604082019050919050565b60006020820190508181036000830152612c9381612c57565b9050919050565b7f4e487b7100000000000000000000000000000000000000000000000000000000600052601260045260246000fd5b7f4f776e61626c653a2063616c6c6572206973206e6f7420746865206f776e6572600082015250565b6000612cff602083611f7f565b9150612d0a82612cc9565b602082019050919050565b60006020820190508181036000830152612d2e81612cf2565b9050919050565b7f455243313135353a2069647320616e6420616d6f756e7473206c656e6774682060008201527f6d69736d61746368000000000000000000000000000000000000000000000000602082015250565b6000612d91602883611f7f565b9150612d9c82612d35565b604082019050919050565b60006020820190508181036000830152612dc081612d84565b9050919050565b7f455243313135353a207472616e7366657220746f20746865207a65726f20616460008201527f6472657373000000000000000000000000000000000000000000000000000000602082015250565b6000612e23602583611f7f565b9150612e2e82612dc7565b604082019050919050565b60006020820190508181036000830152612e5281612e16565b9050919050565b7f455243313135353a20696e73756666696369656e742062616c616e636520666f60008201527f72207472616e7366657200000000000000000000000000000000000000000000602082015250565b6000612eb5602a83611f7f565b9150612ec082612e59565b604082019050919050565b60006020820190508181036000830152612ee481612ea8565b9050919050565b6000612ef682611e19565b9150612f0183611e19565b9250828201905080821115612f1957612f18612a93565b5b92915050565b60006040820190508181036000830152612f398185612513565b90508181036020830152612f4d8184612513565b90509392505050565b7f455243313135353a206d696e7420746f20746865207a65726f2061646472657360008201527f7300000000000000000000000000000000000000000000000000000000000000602082015250565b6000612fb2602183611f7f565b9150612fbd82612f56565b604082019050919050565b60006020820190508181036000830152612fe181612fa5565b9050919050565b6000604082019050612ffd6000830185611e8f565b61300a6020830184611e8f565b9392505050565b7f455243313135353a2073657474696e6720617070726f76616c2073746174757360008201527f20666f722073656c660000000000000000000000000000000000000000000000602082015250565b600061306d602983611f7f565b915061307882613011565b604082019050919050565b6000602082019050818103600083015261309c81613060565b9050919050565b7f536f756c426f756e64203a20546f6b656e206973204e4f4e205472616e73666560008201527f7261626c65000000000000000000000000000000000000000000000000000000602082015250565b60006130ff602583611f7f565b915061310a826130a3565b604082019050919050565b6000602082019050818103600083015261312e816130f2565b9050919050565b600081519050919050565b600082825260208201905092915050565b600061315c82613135565b6131668185613140565b9350613176818560208601611f90565b61317f81611fba565b840191505092915050565b600060a08201905061319f6000830188612593565b6131ac6020830187612593565b81810360408301526131be8186612513565b905081810360608301526131d28185612513565b905081810360808301526131e68184613151565b90509695505050505050565b60008151905061320181611ee5565b92915050565b60006020828403121561321d5761321c611db1565b5b600061322b848285016131f2565b91505092915050565b60008160e01c9050919050565b600060033d11156132605760046000803e61325d600051613234565b90505b90565b600060443d106132f057613275611da7565b60043d036004823e80513d602482011167ffffffffffffffff8211171561329d5750506132f0565b808201805167ffffffffffffffff8111156132bb57505050506132f0565b80602083010160043d0385018111156132d85750505050506132f0565b6132e7826020018501866120e0565b82955050505050505b90565b7f455243313135353a207472616e7366657220746f206e6f6e2d4552433131353560008201527f526563656976657220696d706c656d656e746572000000000000000000000000602082015250565b600061334f603483611f7f565b915061335a826132f3565b604082019050919050565b6000602082019050818103600083015261337e81613342565b9050919050565b7f455243313135353a204552433131353552656365697665722072656a6563746560008201527f6420746f6b656e73000000000000000000000000000000000000000000000000602082015250565b60006133e1602883611f7f565b91506133ec82613385565b604082019050919050565b60006020820190508181036000830152613410816133d4565b9050919050565b600060a08201905061342c6000830188612593565b6134396020830187612593565b6134466040830186611e8f565b6134536060830185611e8f565b81810360808301526134658184613151565b9050969550505050505056fea2646970667358221220432df42bf6f0596c948f7ba94cacee5cfaf5d676c0bec01945c5609d1a7d2daf64736f6c6343000811003368747470733a2f2f697066732e696f2f697066732f516d56484662734e31697750446d4b5a7455415257345744525352535462396f4d39456561536e3277566b3579702f7b69647d2e6a736f6e",
  "linkReferences": {},
  "deployedLinkReferences": {}
}